:020000040800F2
:1000000000200020ED6E0008815B0008835B000883
:1000100000000000000000000000000000000000E0
:10002000000000000000000000000000855B0008E8
:100030000000000000000000875B0008895B0008EA
:100040003D6F00083D6F0008915B00083D6F0008A0
:100050003D6F0008A15B00083D6F0008AB5B000826
:100060003D6F00083D6F00083D6F00083D6F0008C0
:100070003D6F00083D6F0008000000003D6F000864
:10008000000000003D6F00080000000000000000BC
:100090003D6F0008000000003D6F00083D6F000844
:1000A0003D6F00083D6F00083D6F00083D6F000880
:1000B0003D6F00083D6F00083D6F00083D6F000870
:1000C00010B5064C2378002B07D1054B002B02D02E
:1000D000044800E000BF0123237010BD4802002047
:1000E0000000000040900008044B10B5002B03D026
:1000F0000349044800E000BF10BDC04600000000F6
:100100004C020020409000080023C25C0133002A0A
:10011000FBD1581E704702780B78002A03D00130BB
:1001200001319A42F7D0D01A7047000002B47146EC
:1001300049084900095C49008E4402BC7047C0462A
:10014000002243088B4274D303098B425FD3030A16
:100150008B4244D3030B8B4228D3030C8B420DD329
:10016000FF22090212BA030C8B4202D312120902B7
:1001700065D0030B8B4219D300E0090AC30B8B42F5
:1001800001D3CB03C01A5241830B8B4201D38B03A3
:10019000C01A5241430B8B4201D34B03C01A524148
:1001A000030B8B4201D30B03C01A5241C30A8B428B
:1001B00001D3CB02C01A5241830A8B4201D38B0276
:1001C000C01A5241430A8B4201D34B02C01A52411A
:1001D000030A8B4201D30B02C01A5241CDD2C3098C
:1001E0008B4201D3CB01C01A524183098B4201D308
:1001F0008B01C01A524143098B4201D34B01C01AF3
:10020000524103098B4201D30B01C01A5241C3086A
:100210008B4201D3CB00C01A524183088B4201D3D9
:100220008B00C01A524143088B4201D34B00C01AC5
:100230005241411A00D20146524110467047FFE731
:1002400001B5002000F0F0F802BDC0460029F7D04B
:1002500076E7704703460B437FD4002243088B4266
:1002600074D303098B425FD3030A8B4244D3030B3D
:100270008B4228D3030C8B420DD3FF22090212BA02
:10028000030C8B4202D31212090265D0030B8B427E
:1002900019D300E0090AC30B8B4201D3CB03C01A68
:1002A0005241830B8B4201D38B03C01A5241430B43
:1002B0008B4201D34B03C01A5241030B8B4201D333
:1002C0000B03C01A5241C30A8B4201D3CB02C01A9E
:1002D0005241830A8B4201D38B02C01A5241430A16
:1002E0008B4201D34B02C01A5241030A8B4201D305
:1002F0000B02C01A5241CDD2C3098B4201D3CB01AC
:10030000C01A524183098B4201D38B01C01A52415A
:1003100043098B4201D34B01C01A524103098B425E
:1003200001D30B01C01A5241C3088B4201D3CB0049
:10033000C01A524183088B4201D38B00C01A52412C
:1003400043088B4201D34B00C01A5241411A00D2DC
:1003500001465241104670475DE0CA0F00D0494245
:10036000031000D34042534000229C4603098B42B5
:100370002DD3030A8B4212D3FC22890112BA030A3D
:100380008B420CD3890192118B4208D389019211BF
:100390008B4204D389013AD0921100E08909C30944
:1003A0008B4201D3CB01C01A524183098B4201D346
:1003B0008B01C01A524143098B4201D34B01C01A31
:1003C000524103098B4201D30B01C01A5241C308A9
:1003D0008B4201D3CB00C01A524183088B4201D318
:1003E0008B00C01A5241D9D243088B4201D34B0033
:1003F000C01A5241411A00D20146634652415B1075
:10040000104601D34042002B00D549427047634655
:100410005B1000D3404201B5002000F005F802BD9A
:100420000029F8D016E770477047C046002B11D15D
:10043000002A0FD1002900D1002802D00021C94391
:10044000081C07B4024802A14018029003BDC04630
:10045000D9FFFFFF03B4684601B5029800F024F805
:10046000019B9E4602B00CBC7047C04670B500228E
:100470000C4B04000D0001F0B5FE002804D1200053
:10048000290001F0F1FC70BD064B0022200029007C
:1004900001F0D4F901F0E8FC80231B069C4660447F
:1004A000F1E7C0460000E041F0B557464E464546EC
:1004B000DE46E0B5040083B00D00924699468B42BB
:1004C0002FD82CD04946504601F0B4FE2900060032
:1004D000200001F0AFFE331A9846203B9B4600D522
:1004E00074E053465A4693401F0053464246934099
:1004F0001E00AF4229D826D05B46A41BBD41002B6D
:1005000000DA79E0002200230092019301235A4689
:1005100093400193012342469340009319E08242A5
:10052000D0D900220023009201930C9B002B01D014
:100530001C605D600098019903B03CBC90469946F0
:10054000A246AB46F0BDA342D6D9002200230092BA
:1005500001934346002BE8D0FB0772081A43464636
:100560007B080EE0AB4201D1A2420CD8A41A9D41F7
:10057000012024196D410021013E24184D41002E17
:1005800006D0AB42EED9013E24196D41002EF8D1C0
:100590005B460098019900196941002B22DB2B0072
:1005A0005A46D3402A004446E2401C005B461500F0
:1005B000002B2CDB26009E40330026004746BE4021
:1005C0003200801A994100900191AEE74246202303
:1005D0009B1A5246DA40414613004A468A401700A9
:1005E0001F4382E7424620239B1A2A0046469A4030
:1005F0002300F3401343D5E74246202300219B1AF2
:100600000022009101920122DA40019282E74246E3
:10061000202326009B1ADE402F00B44697406646F2
:100620003B003343C9E7C04610B5041E27D001F094
:10063000E3FD9E231B1A962B0ADC9622D21A9440C5
:100640006402640ADBB26402DB05600A184310BD71
:10065000992B17DC9922D21A002A27DD9440220018
:10066000134C1440510704D00F210A40042A00D033
:100670000434620112D4A401640ADBB2E3E700236C
:100680000024E0E7B9222100D21A91400A00511E4D
:100690008A410521091ACC401443DBE7044B1C4076
:1006A0009F23A4011B1A640ADBB2CCE72200D7E720
:1006B000FFFFFFFBF8B54546DE4657464E460C03A6
:1006C000E0B54E00C90F88460D00610A440F0C4387
:1006D000C70019035800DB0F9B464B0A510F0B4311
:1006E000760D400D1900D200D84500D1AEE0351A84
:1006F000002D00DCF6E000280FD1134300D1DBE031
:100700006B1E002B00D037E1BA1A9742BF41641A22
:100710007F42E41B0126170024E0C64B9E424DD0C9
:1007200080231B041943382D00DD07E11F2D00DD58
:1007300038E12020431B9A460B00504683409946DF
:1007400013004846EB401843030050468240501EB9
:100750008241E9401A43BA1A611A9742A44117002C
:1007600064420C1B230262D56402650A002D00D18D
:10077000DFE0280001F040FD0300083B1F2B00DDF7
:10078000D2E020223C00D21A9D40D4409F40254315
:100790009E4200DDC4E09E1B731C1F2B00DDF1E0B8
:1007A000202238002900D21AD840914097402C00CE
:1007B0000143781E8741DC4000260F437B0709D0A8
:1007C0000F233B40042B05D03B1DBB42BF417F4262
:1007D000E4191F0023022CD5964B01369E4200D10E
:1007E0009AE04546944BFF081C406007760564027A
:1007F0000743240B760D00212403230B0C0D8F4A95
:1008000024051C431440330523435B00ED075B08BC
:100810002B43380019003CBC90469946A246AB4693
:10082000F8BD6446044300D111E2040067467B072B
:10083000C6D145466007FF080743E4087D4B9E424A
:1008400030D024037605240B760DD4E7331A9A466C
:10085000002B78DD002831D076488642AED080204B
:10086000000401435346382B00DCE9E00A43511EE3
:100870008A410021D219BA42BF4109197C421700AE
:100880000C192302D3D56B4B01369E4200D13AE1BD
:100890000120694B1C407B0807401F43E0070743CA
:1008A00064088BE723003B4300D1CBE18022120395
:1008B00014432403240B9EE72E007FE70800104317
:1008C00000D1B4E0581E002800D0DEE0BA18BA42C9
:1008D0009B4164185B42E418170001262302A6D549
:1008E0000226D5E7002D6ED1701C4005400D012871
:1008F00000DCF9E0B81A844687428041E51A40429C
:100900002D1A280200D489E0D71BBA4292411C1B41
:100910005242A51AD84629E74546002400276AE72F
:10092000454CF61A2C4049E73D0028388540002701
:100930002EE7380001F060FC20301DE70A43511E0D
:100940008A41002107E7002B00D0F3E0701C43052B
:100950005B0D012B00DCADE0364B984200D1D1E0BD
:10096000BA18BA42BF4164187F42E419E707520837
:1009700017436408060021E72E48854200D193E022
:100980001D00D0E629001F3EF140202B00D18DE054
:100990004022D31A9D402F437D1EAF4100240F43B8
:1009A000002644E72B000800203BD8400300202D00
:1009B00000D17DE04020451BA9400A43511E8A41D9
:1009C00000211A43C7E6002E50D01A4EB04257D02D
:1009D00080266B429946360434434B46382B00DD63
:1009E000D6E01F2B00DD35E12026F51A2600AE40AB
:1009F000B2463E00DE40AC46350056462E436546C4
:100A0000AF407D1EAF41DC403743D71BBA42924115
:100A10000C1B5242A41A0600D846A3E66446674659
:100A20002C4300D0A2E600250026002706E71E0082
:100A3000C4E6C046FF070000FFFF7FFFFFFF0F80F7
:100A40001F2B63DC2020C31A080098409C46834675
:100A500053461000D84003005846184363469A4056
:100A6000531E9A4153460243D94003E726003E43B2
:100A700006D0EB439946002BC7D0944EB042ACD180
:100A80000C0017000600D84698E6904B9A450BD00C
:100A90008246E7E6002800D09EE01800104300D10F
:100AA000E9E01C001700D846884E87E6002572E76B
:100AB000002182E723003B43002E00D0ABE0002B57
:100AC00000D1E7E00B00134300D177E6BA18BA4231
:100AD000BF4164187F42E419230200D4F2E07C4B4A
:100AE00017001C40060069E620003843002ED1D1D3
:100AF00000285BD11C00144300D1A8E01C001700A3
:100B0000D8465BE606000024002797E650460B0017
:100B10002038C34099465346202B00D195E040230E
:100B200050461B1A99400A43511E8A414B460021E8
:100B30001A439FE6002E30D126003E4367D0DB43A8
:100B40009A46002B1CD0614EB04260D05346382BE1
:100B500000DD96E01F2B00DD9FE02026F31A260023
:100B60009E409C46B34653463E00DE4033005E4600
:100B70001E4363469F407B1E9F415346DC403743E4
:100B8000BF189742924164185242A418060078E6B2
:100B900027437C1EA741002437E74C4EB04236D095
:100BA00080265B4236049A463443CFE71800104350
:100BB00000D103E6B81A84466745AD41E01A6D429C
:100BC000401B050200D42CE6D71BBA4292411C1BE5
:100BD0005242A41AD846F1E51800104300D163E749
:100BE000F808670707438020E4080003044208D0A0
:100BF000DD08054205D1D208590711430F002C002A
:100C0000D8467B0FE4001C43FF00304ED6E50C00B5
:100C100017000600D2E5002B38D00B00134300D19B
:100C200042E7F808670707438020E408000304420E
:100C3000E7D0CB080342E4D1D208490711430F00A3
:100C40001C00DEE700270024D5E500216BE7002526
:100C50000027F3E54E462500203EF5404B462E008A
:100C6000202B2DD04025ED1AAC4027437C1EA741F8
:100C700000243743C9E6802400252403134E0027AF
:100C8000DCE527437C1EA741002479E70C00170010
:100C90000E4E93E50C00170090E556462300203ECB
:100CA000F34099465346202B0ED0402356469B1BBB
:100CB0009C4027437C1EA7414B4600241F435FE70F
:100CC0000024D2E71700B2E50024F2E7FF07000096
:100CD000FFFF7FFFF0B557464546DE464E46E0B57E
:100CE0004C000E0387B0834692461D008046360BAB
:100CF000640DCF0F002C4FD06F4B9C4235D080231A
:100D0000420F1B04F600134333439946C300984631
:100D10006A4B00269C460023644403932B031B0B61
:100D20009B466B00ED0F50465B0D01955ED0624A0D
:100D3000934253D05A46D1008022400F12040243FE
:100D40000A4393465246D1005C4A944600226344CB
:100D50003800684084460290E41A16430F2E00D9EA
:100D6000B4E0574BB6009B599F4603003343994666
:100D70006CD100239846023308260393CEE7CB4676
:100D80004146039A0197022A65D1019B4A4C9C4631
:100D90000023002298466BE00300334399464ED06F
:100DA000002E00D1BCE1300001F026FA03000B3B1D
:100DB0001C2B00DDACE11D22D31A5A460100DA409B
:100DC00008398E401300334399465B468B40984662
:100DD00000233C4C0026241A03939FE751465A46B1
:100DE000114329D1002293460232B1E7594601430B
:100DF0001ED05B46002B00D19EE1584601F0FCF965
:100E000003000B3B1C2B00DD8FE102005946083A22
:100E100091408B461D21CB1A5146D9400B005946B3
:100E20000B4351469B469140264B00221B1A8FE7ED
:100E3000002301229B468BE75146032288E70023CB
:100E40009846013304260024039367E70323B14641
:100E500003930C2662E7032A00D15CE2019B012A7E
:100E600000D0E4E113409C46002300240022984671
:100E700000211203130B0A0D12051A432305124C0D
:100E800040462240134362465B00D2075B0813438F
:100E9000190007B03CBC90469946A246AB46F0BD4F
:100EA000002380229C4612039846034CE0E700236F
:100EB000014C00229846DBE7FF07000001FCFFFF22
:100EC000649000080DFCFFFFFFFF0F80D94500D99B
:100ED00039E100D134E1002346464D469A46013CB3
:100EE0005B460A0E1B021A430B02170C03931304F2
:100EF0001B0C3900280090460193FFF721F90200EE
:100F0000019B83465A43280039009146FFF79EF91A
:100F1000350C09040D43A9450DD95B464544013BF9
:100F2000A84500D93AE1A94500D837E102235B4240
:100F30009C464544E3444B46EB1A390018000493A1
:100F4000FFF7FEF8019B05004343390004989946DA
:100F5000FFF77CF9330409041B0C0B43994509D9AD
:100F600043446A1E984500D91AE1994500D817E113
:100F7000023D43444A469B1A5A4612042A430399A7
:100F80009346100C0A0C914609045A46090C4E4629
:100F90000D001204120C45430591514372437043F6
:100FA00052190E0CB218954203D980256D02AC4639
:100FB0006044150C09041204090C281852188342C5
:100FC00000D2CEE000D1C8E01D1A53469E1AB245A9
:100FD00092415242AB1A9A46984500D117E1390026
:100FE0001800FFF7ADF8019B050043433900504658
:100FF0000493FFF72BF904980B04310C1943884232
:1010000009D941446B1E884500D907E1884200D8C0
:1010100004E1023D4144049BCB1A180039000493BB
:10102000FFF78EF8019B82464343390004980193F1
:10103000FFF70CF901980B043104090C194388429D
:101040000DD953464144013B884500D9E8E0884228
:1010500000D8E5E002235B429C464144E244019B08
:101060002D04CE1A51462943059D4F462A000B04F4
:10107000080C1B0C5A4345437B4378435B19170C00
:10108000FB189D4203D980256D02AC4660441D0CBF
:1010900012041B04120C28189B18864200D293E0FD
:1010A00000D18EE001231943A04BE318002B00DC94
:1010B00099E04A0700D09EE05A46D20106D55A462A
:1010C0009B4B1A4080239346DB00E318994A9342D6
:1010D00068DD0123029A984C1A40002394469846F2
:1010E0000022C5E680224B46120313420AD05B461B
:1010F000134206D11A431203120BAC4688468E4C9B
:10110000B6E64B461A431203120BBC468A4CAFE6B6
:1011100003005A46283B9A4000239146984657E6DA
:10112000584601F069F8203040E603005246283B5B
:101130009A400021934677E601F05EF820305FE6A2
:10114000884500D2C7E64B46DE075D0843465B088C
:101150001E434346DB079A46C2E60025924500D36C
:1011600033E7039E5946B446E244B245AD416D4271
:101170004544EB180139984507D2984200D97FE0E1
:1011800000D1BCE01D1A8B461FE79845FAD1039D9C
:101190005545F2D943468B461D1A16E79B46CAE6CB
:1011A0001500E7E65A46C90852070A435B05904610
:1011B0005C0D5A460123029952021940120B8C46CB
:1011C00056E6002B00D16FE746444A1EB04529D9A8
:1011D0001100864200D065E7039A934200D061E790
:1011E00062E7012149420120C21A382A21DD029B0F
:1011F00003409C4638E60F220A40042A00D15BE7F0
:101200000A00111D914292415242934454E7474BC8
:10121000E318002BE5DD01225242F2E71D00FAE659
:101220009A461CE7B04239D86ED011003AE70293D3
:101230003AE71F2A3CDC20239B1A0C0058469940B1
:1012400098404B1E99415B46D440D340204308430D
:101250001A00430709D00F230340042B05D00100D7
:10126000081D88429B415B42D21813023AD50123E4
:10127000029A01241A400023944698460022F7E57A
:10128000022149428C46039DE344AC46E244AA4510
:10129000AD416D424544ED182D1A96E68A1E03991C
:1012A0004D008D42894149424144761803958FE7AC
:1012B0001F204042C31A5846D8400300202A28D095
:1012C00040205D46821A954029434A1E91411943A8
:1012D000072300220B4009D00F2300220B400800F7
:1012E000042BBDD1010053075202120BC908194348
:1012F000012388460299002419408C46B8E55245DE
:10130000BED88B46002560E6039D9D42C6D31100E2
:1013100062E70025D8E780225B4612031A43019B4F
:101320001203120B9C468846034CA1E5FF03000004
:10133000FFFFFFFEFE070000FF070000F0B5574665
:101340004546DE464E46E0B50C0398464E00230B5C
:1013500087B0070092469B46760DCD0F002E6BD0CE
:101360006D4B9E4235D080245B46420F2404DB0047
:1013700014431C43C3009946684BA3469C46002374
:1013800000276644029343461C035A00DB0F504675
:10139000240B520D984600D176E05F4B9A426DD0F7
:1013A0008023410F1B040B435C49E4008C461C4323
:1013B000C300002062444146B6186940721C019186
:1013C000944607430F2F00D9B0E0554ABF00D259C9
:1013D00097465B460343994600D087E000239B462F
:1013E000023308270293CEE742460192022867D0D3
:1013F000032800D10EE2012800D062E1002300247E
:101400000022994601990140CDB2002112030B0D33
:10141000120B1B051343434A240513401C4364006D
:10142000ED0764082C434846210007B03CBC9046B9
:101430009946A246AB46F0BD034399464FD05B4662
:10144000002B00D189E1584600F0D6FE03000B3B8B
:101450001C2B00DD7AE11D22D31A3A0001005C4604
:10146000DA4008398C4013008F4023439B46B9462D
:1014700000232D4E0027361A029384E75346234358
:101480002AD10024022096E75346234320D0002C83
:1014900000D157E1200000F0AFFE03000B3B1C2BF6
:1014A00000DD49E11D21CB1A51460200D9405346C7
:1014B000083A944093400C431B4A121A00207AE7E2
:1014C0000125019B144C1D400023002299469CE7F6
:1014D0000024002201206EE7534603206BE700231F
:1014E0009B4601330427002602934CE703238146E1
:1014F0000C27029347E78022002300251203994618
:10150000054C82E75C464B4602986FE75C464B46CB
:10151000019502986AE7C046FF07000001FCFFFF43
:10152000A4900008FFFF0F800DFCFFFF4A464946CC
:10153000170C1A0C1B041B0C08041900000C414367
:101540001500884619007D43794303958946290093
:10155000150045434D44029545462D0CAA46029D73
:101560005544A94506D98A46802149028946CA447C
:1015700051460391290C0491414609042D04090C9C
:1015800088462900250C24044144240C059121009F
:1015900041438846210079438A4668434146504486
:1015A0008146080C48446F43824503D98021490293
:1015B00089464F44010C894639004944029141460D
:1015C0000F0404993F0C88460004C019804441462A
:1015D000049159460F0C0904090C884659438A4660
:1015E00039005143894641464A435146090C8B46CE
:1015F0007B43D2185A44934203D980235B029B4613
:10160000D94451460904090C8A46414661437C434A
:10161000130C12044B445244A1468A463C004146F6
:101620006C434D4351464D440F0C7D19A94503D9D8
:101630008021490288464444049F0399B8464144A6
:101640008B468345804141428846514608042F0419
:10165000000C3F1858460299101889469042924152
:101660004F44BA46524299469346C244D144CB4471
:101670008F42BF41C245894199459B419345924163
:101680007F4249422D0C52420F435B4213437F1964
:10169000FF185B463C19DB0D059A64021C434302AC
:1016A00013435D1EAB415A46C00D03435202134320
:1016B000E20156D501205A0803401343E2071343C1
:1016C00064085A48604400284DDD5A0709D00F22AB
:1016D0001A40042A05D01A1D9A429B415B42E41825
:1016E0001300E20104D58020514AC0001440604438
:1016F000504A904200DDE3E60125DB0862071A4309
:101700006402019B9146220B4405640D1D407CE65A
:10171000802259461203114208D0144206D12243B6
:101720001203120B45469946434C6EE65B461A433C
:101730001203120B404C68E603005446283B9C40C1
:101740000023B9E600F058FD2030A6E60300283B50
:101750009F400023BB4699468AE600F04DFD2030AD
:1017600074E6B446ADE701252A1A382A06DD019B46
:1017700000241D4000230022994646E61F2A21DC52
:1017800020252000AD1A1E00AB40A840D6405D1EAB
:10179000AB4130431843D440430709D00F230340E3
:1017A000042B05D00300181D98429B415B42E418AE
:1017B000230221D50125019B01241D400023002285
:1017C000994622E61F2521006D42281AC1400800D3
:1017D000202A1DD05F35AA1A944023435C1EA341E2
:1017E000072503431D400022002D09D00F220024AD
:1017F0001A401800042AD6D1030065076402220BA0
:10180000DB082B4301259946019B00241D40FCE584
:101810000024E2E7802201251203224301991203EA
:10182000120B0D409946044CEFE5C046FF03000043
:10183000FFFFFFFEFE070000FF070000F0B5464671
:10184000D6464F460C03C0B5CD0F4E00610A440F7B
:101850000C43C1005800400D84468A460F0019030E
:10186000500F490A0143C648760DA846DB0FD20047
:10187000844500D1D8E001204340AB4200D1A6E02E
:101880006046351A002D00DC05E1002810D10B0060
:10189000134300D1D7E06B1E002B00D04BE1534621
:1018A0009F1ABA458041641A4042241A01261EE05C
:1018B000B34B9E4248D080231B041943382D00DDD2
:1018C00019E11F2D00DD4CE120230F005B1B1000F0
:1018D0009A409F40E840531E9A41E940074317430E
:1018E0005346DF1B611ABA45A44164420C1B230214
:1018F00000D4C5E06402650A002D00D1F6E028009E
:1019000000F07AFC0300083B1F2B00DDE9E02022F9
:101910003C00D21A9D40D4409F4025439E4200DDAA
:10192000DBE09E1B731C1F2B00DD0AE12022380028
:10193000D21A290097402C009140D8407A1E974136
:10194000DC40002601430F437B0709D00F233B40B7
:10195000042B05D03B1DBB42BF417F42E4191F0051
:10196000230225D5864B01369E4200D1AFE0854B40
:1019700001251C4043466207FF08640276051743B1
:10198000240B760D1D4000212403230B0C0D7E4AF1
:1019900024051C431440330523435B00ED075B081B
:1019A0002B43380019001CBC90469946A246F0BD56
:1019B000012543466207FF081743E4081D40704BAA
:1019C0009E4236D024037605240B760DDBE7634672
:1019D000F31A002B00DC94E06046002835D06848FC
:1019E0008642B1D080273F043943382B00DCFDE02C
:1019F0000A43170000217A1E9741574457458041FA
:101A0000091944420C1923023AD55D4B01369E4216
:101A100000D14BE101225B4B1C407B0817401F4368
:101A2000E207174364088FE70800104300D024E75B
:101A300021E723003B4300D1B9E180221203144384
:101A40002403240B9FE72E007EE70800104300D1FB
:101A5000CAE0581E8446002800D0E7E052445245B0
:101A6000804164184042241817000126230207D53C
:101A70000226CFE764462C4300D1B3E12C00674631
:101A80007B0700D062E76307FF081F430125434639
:101A9000E4081D4093E7002D78D1751C6D056D0D90
:101AA000012D00DCF2E05046801A8245BF41651AE4
:101AB0007F42ED1B8446280200D48CE05046171A62
:101AC000BA4292410C1B5542651B984614E701250A
:101AD000434600241D40002755E72A4CF61A2C40A7
:101AE00032E73D0028388540002717E7380000F02E
:101AF00083FB203006E70A43170000217A1E974136
:101B0000EEE6002B00D0E5E0731C9C465B055B0D08
:101B1000012B00DC9FE01A4B9C4500D1C5E05244EC
:101B200052458041641840422418E7075208174381
:101B30006408664608E71248854200D185E01D002A
:101B4000BCE629001F3EF140202B00D17FE040225F
:101B5000D31A9D402F437D1EAF4100240F43002622
:101B60008EE72B000F00203BDF40202D71D040235B
:101B70005D1BA9400A43511E8A4100211743AFE66D
:101B8000FF070000FFFF7FFFFFFF0F80002E3ED00A
:101B9000B34EB44545D0802636046D423443382DCB
:101BA00000DDA8E01F2D00DD1FE1202627005046A4
:101BB000761BB740E84007435046B040461EB04150
:101BC000EC403843171ABA4292410C1B5242A41AF5
:101BD000664698468BE6644667462C4300D08BE603
:101BE000002500260027EAE61E00ADE61F2B60DC7C
:101BF0002027F81A0F00844687401000D84007437A
:101C000060468240501E8241D9401743F5E62600C7
:101C10005046064305D0ED43002DD3D0904EB44539
:101C2000BDD10C001700664698468DE68C4883426D
:101C30000BD06346D9E6002D00D096E00800104393
:101C400000D1E2E00C0017009846854E7CE60025A6
:101C500080E700218EE7230050460343002E00D08A
:101C6000A8E0002B00D1DEE00B00134300D16BE6AF
:101C70005244524580416418404224181700230200
:101C800000D4FDE6774B66461C405DE625005046D5
:101C90000543002ECFD1002D4FD10C00144300D1AD
:101CA000A0E00C00170098464EE666460024002788
:101CB00085E61F000800203FF8400700202B00D1D8
:101CC0008EE04020C31A99400A43511E8A410021E8
:101CD000174392E6002E14D126005046064362D0E8
:101CE000DB43002B5CD18718974292416418524223
:101CF000A418664687E650462043441EA0410024AF
:101D000060E7574EB4454ED0802636045B423443DC
:101D1000382B00DD7FE01F2B00DD8BE02026270025
:101D20005046F61AB740D84007435046B040461ECA
:101D3000B0410743DC40BF18D6E70D00154300D182
:101D400002E65046801A8245BF41651A7F42ED1B6C
:101D50008446280200D48DE65046171ABA429241B2
:101D60000C1B5242A41A9846EEE50D00154300D113
:101D70006BE750466707C00807438020E40800036C
:101D8000044207D0CD08054204D12C009846D7085C
:101D900049070F437B0FE4001C43FF00304ED3E59F
:101DA0002F4EB445B4D10C0017006646CCE5002791
:101DB0000024E8E5002B39D00B00134300D144E7A1
:101DC000C008670707438020E40800030442E1D00D
:101DD000CB080342DED1D70849070F431C00D9E7DF
:101DE000002171E700250027E9E52E002700203EAD
:101DF000F740202D2FD04026751BAC405046204385
:101E0000441EA04100243843DCE68024002524033E
:101E1000134E0027D3E5504620430700781E874124
:101E20000024BF1860E70C0017008DE50C001700B8
:101E30000B4E89E51E002700203EF740202B0CD0DA
:101E40004026F31A9C4050462043441EA0410743BD
:101E50000024BF1848E70024D0E70024F3E7C04679
:101E6000FF070000FFFF7FFF30B5134D0A034B0053
:101E7000120B5B0DC90F0024AB4210DD0F4CA342C7
:101E80000FDC80240E4D64032243ED1A1F2D0BDD61
:101E90000C48C31ADA405442002900D11400200033
:101EA00030BD094BCC18FAE7084CE840A44663441F
:101EB0009A400243EFE7C046FE0300001D04000005
:101EC0003304000013040000FFFFFF7FEDFBFFFF62
:101ED00070B5002830D0C317C4185C40C50F20006F
:101EE00000F08AF9174B184A1B1AD21A1F2A18DD5C
:101EF000164AD21A9440002224035B05240B5B0D82
:101F00000021100024030A0D240B12052243104C5B
:101F10001B05224013435B00ED075B082B431900B0
:101F200070BD210091400A000B21081AC4405B05D6
:101F30002403240B5B0DE3E700250023002400228B
:101F4000DEE7C0461E040000330400001304000056
:101F5000FFFF0F8010B5041E28D000F04DF9154B7F
:101F6000154A1B1AD21A1F2A15DD144AD21A944098
:101F7000002224035B05240B5B0D002110002403C9
:101F80000A0D240B120522430D4C1B05224013435E
:101F90005B00590810BD210091400A000B21081A6E
:101FA000C4405B052403240B5B0DE6E700230024FB
:101FB0000022E2E71E0400003304000013040000C6
:101FC000FFFF0F804100090E4B1C70B5DBB24602CB
:101FD000750AC40F012B14DDE0239B006D07360B3F
:101FE000CB1800210A0D280012051C4D32435B0559
:101FF0002A405B0813435B00E4075B082343190096
:1020000070BD002914D1002D1ED0280000F0F4F876
:102010000A281CDC0B232A001B1ADA4003001533A4
:102020009D400F4B12031B1A5B05160B5B0DD8E787
:10203000002D06D0320B802636036D071643094B60
:10204000CFE7084B0026CCE700230026C9E70300B2
:102050002A000B3B9A400025E3E7C046FFFF0F80B4
:1020600089030000FF070000F0B54C00640D0B036E
:10207000621C450F5B0A52052B43C90FC500520D68
:10208000012A28DD3A4AA618FE2E1BDC002E3EDD72
:1020900080010200501E82416D0F2A43DB00134372
:1020A0005A0704D00F221A40042A00D00433802299
:1020B000D2041A405AD00136FF2E03D09B015B0A8E
:1020C000F4B201E0FF2400235802E405400AC907E6
:1020D00020430843F0BD002C07D01D43F2D08020E0
:1020E000DB0080040343FF26DAE72B4303D00523FC
:1020F000DB08FF2C03D05B025B0AE4B2E4E7002BB1
:1021000032D08020C00303435B025B0ADCE732006D
:10211000173214DB80221E2712041343BF1B1F2F0C
:102120000FDC144A944664442A00A5402E00A340C4
:10213000751EAE41FA40334313430026B0E7002436
:10214000D5E702225242961B1A00F240202F09D0F6
:10215000094884466444A3402B435D1EAB410026DE
:1021600013439DE70023F7E70023ADE73400BFE703
:1021700080FCFFFF82FCFFFFA2FCFFFF8446101CD7
:1021800062468C46191C634600E0C0461FB500F04D
:10219000FBF8002801D40021C8421FBD10B500F093
:1021A00055F84042013010BD10B500F0EDF80028A0
:1021B00001DB002010BD012010BDC04610B500F0AD
:1021C000E3F8002801DD002010BD012010BDC0464D
:1021D00010B500F075F8002801DC002010BD0120CA
:1021E00010BDC04610B500F06BF8002801DA0020E1
:1021F00010BD012010BDC0461C2101231B049842C4
:1022000001D3000C10391B0A984201D3000A083987
:102210001B09984201D30009043902A2105C40183E
:102220007047C046040302020101010100000000E2
:102230000000000010B5002903D1FFF7DDFF2030BA
:1022400002E0081CFFF7D8FF10BDC046F0B54F46AE
:102250004646D6465C00C0B51F03DB0F9A46174BB7
:102260000E034D0084468046360B6D0DC90F914616
:102270003F0B640D01209D4208D09C4201D0A54235
:102280000BD01CBC90469946A246F0BD6346334332
:10229000F7D1AC42F5D13A43F3D10120BE42F0D19F
:1022A000C845EED1514507D0002DEAD163461E4303
:1022B0003000461EB041E4E70020E2E7FF070000DF
:1022C000F0B54546DE4657464E46E0B51F033D0B8A
:1022D0002C4F0E034C00AB465D008446360B640D5C
:1022E000C90F90466D0DDB0FBC422AD0254FBD4271
:1022F0002DD0002C0FD13043070081467842784121
:10230000C0B2002D17D15F463A4314D14B4600208E
:10231000002B0AD006E0002D02D15846024301D01E
:10232000994218D04842012108433CBC9046994646
:10233000A246AB46F0BD0028F2D00120013B184375
:10234000F3E737000743D1D002204042EDE75F4674
:102350001743CED0F8E7AC42E4DC03DA481E012193
:102360000843E2E75E45DDD806D000205E45DCD2BA
:102370000123481E1843D8E7C445D3D80020C445DC
:10238000F6D3D2E7FF070000F0B54E464546DE46DD
:1023900057465C00E0B51F03DB0F99462A4B0E033E
:1023A0004D00C90F8446360B6D0D8B4690463F0B92
:1023B000640D9D4220D0244B9C4222D0002D12D18E
:1023C000304343424341DBB2002C1FD0002B0CD0E2
:1023D0004B460120013B034318003CBC9046994604
:1023E000A246AB46F0BD002C16D0CB4517D05B46BD
:1023F000594201230B43EFE7310002230143EBD1A4
:10240000D9E7390002231143E6D1D7E73A43DDD1BA
:1024100000230028E0D0EAE73A43E6D1E7E7A54207
:10242000E5DC05DBBE42E2D807D00023BE42D3D2B2
:102430005946012301390B43CEE7C445D7D80023C1
:10244000C445F5D3C8E7C046FF07000070B50500D6
:10245000FA200D4B80001978FDF772FE0B4B01003E
:102460001868FDF76DFE00F0B3FB04000120002C9E
:1024700009D1032D07D802382200290000F06EFB95
:102480002000034B1D6070BD000000202C000020C8
:10249000040000204023084A10B5116800200B43B7
:1024A0001360FFF7D3FF041E03D103F037FA2000B7
:1024B00010BD0124FBE7C04600200240034A044B44
:1024C00011681B785B1813607047C046100300202A
:1024D00000000020014B18687047C0461003002020
:1024E00070B50400FFF7F6FF0500631C02D0044B33
:1024F0001B78E418FFF7EEFF401B8442FAD870BD4A
:10250000000000200221024A13688B4313607047C9
:1025100010E000E00223024A11680B431360704789
:1025200010E000E0084B13B5040008491868FDF7F7
:1025300007FE44430194019B002B00D113BD019B76
:10254000013B0193F7E7C0462C00002040420F00FA
:102550000321036870B5040098680840012801D081
:10256000002070BD1A680242FAD005229D6815400D
:10257000012D19D10222986802439A601960FFF771
:10258000A9FF060023689B682B42E9D0FFF7A2FF52
:10259000801B0A28F6D91023626D0120134363655E
:1025A000A36D1D43A565DCE71023626D13436365CE
:1025B000A36D0343A365D4E70321036870B59A684C
:1025C00004000A40012A0DD1196811420AD00020E6
:1025D00070BD10230120626D13436365A36D034337
:1025E000A365F5E799680F4A1142F2D101259A686F
:1025F00028002A439A60FFF795FFFFF76BFF06005C
:1026000023681B682B42E2D1FFF764FF801B0A2876
:10261000F6D91023626D012013436365A36D1D433A
:10262000A565D5E7170000800422036870B5996896
:102630000400114201D1002070BD9968114206D0FA
:102640009A68920703D4102299680A439A60FFF7A8
:1026500041FF0425060023689B682B42EBD0FFF75F
:1026600039FF801B0A28F6D910230120626D13431D
:102670006365A36D0343A365DEE7000070B5040046
:102680000120002C19D0636D002B06D1220050329E
:10269000A3652000137003F04FF9636DDB0604D4CB
:1026A000042223689868104008D01023626D01202E
:1026B0001343636500235034237070BD626D554928
:1026C000114002220A436265032299681140524A6E
:1026D000012902D11D680D4219D180266568F605D1
:1026E00069004908B14203D0802109068D4276D1A4
:1026F000196989008908196119690D431D61182537
:10270000D968A943D960D968A5682943D9601168F7
:10271000424D29401160616B1568490629431160DB
:10272000802299685205114202D199680A439A6041
:10273000DA683B490A402169DA60DD68E26802290B
:1027400000D10420266B611C32432A43A569C97F4E
:10275000AD032A43E569ED032A434D032A432500CF
:102760002C352D786D002A430243C220DA60626A5C
:10277000FF30824204D0A56AD8682A430243DA6057
:10278000A21CD27F012A06D1002934D18022D96827
:1027900052020A43DA60E16B1A69012933D12148F8
:1027A000656C02401A61226C18692A43A56C2A43A1
:1027B00002431A611A691143196107215A690020FD
:1027C0008A435A615A69A16B0A435A610322A06580
:1027D000636D93431A000123134363656DE7196921
:1027E000114E890089081961116831401160116822
:1027F0000D43156083E72021606D01436165A16D84
:102800000A43A265C7E701210A42D6D01A698A4362
:102810001A61D2E7FDFEFFFF08270140FFFFFFFD21
:102820001902FEFF03FCFFFFFFFFC3FF70B50400AA
:102830000125002811D00223426D13434365FFF7A1
:10284000F3FE051E37D12000FFF782FE05000128A8
:1028500005D10125002350342370280070BD0123C9
:102860006365236815495A6820000A405A60144A73
:1028700014491A609A680A409A60DA6812490A4054
:10288000DA601A6911490A4007211A615A698A43B4
:102890005A611A6A0E490A407F211A62B4331A68D3
:1028A0008A431A601A688A431A6003F06DF800239D
:1028B000A3656365CEE70128CBD0D2E760F7FFFFC1
:1028C0009F080000FFFFFFEF00023E8302FCFF3F76
:1028D00000F000F0036870B59B68040002205B07FD
:1028E0001AD4250050352B78012B15D001232B70DD
:1028F000E369012B11D1636D0B4A00201A4080233C
:102900005B0013431C2263652368A06528701A606E
:102910009968183A0A439A6070BD2000FFF74CFE90
:102920000028F9D1E7E7C046FEF0FFFFF8B545699A
:1029300004000E00082D0DD003680120DB680C2573
:10294000034207D02023626D503413436360002399
:102950002370F8BDFFF7BEFD070023681A682A42FE
:1029600024D08022616D92000A436265C022D9683A
:102970001201114213D1621CD27F002A0FD11A68B2
:1029800012070CD59A68520723D40C215A688A433F
:102990005A60626D1349114001220A4362650020AA
:1029A000A2698242D5D10C221A60D2E7721CD5D01E
:1029B000002E08D10423626D50341343636000235A
:1029C00003202370C5E7FFF785FDC01B8642C4D2F4
:1029D000F0E72022616D0A4362650122A16D0A437E
:1029E000A265DCE7FEFEFFFF0368186C704700007D
:1029F00070B504005034237806000D000220012B2E
:102A00000BD032680138916820704B0706D5202220
:102A1000716D0A4372650022227070BD80202249C8
:102A20006E682B68C0028E4223D0966A5903490B08
:102A300031439162034208D080231C4A1B04116871
:102A40000A200B431360FFF76DFD2A68930305D539
:102A500080231649DB03086803430B60D30305D5C5
:102A60008023124A5B0411680B431360002020701E
:102A7000D3E7916A5D036D0BA9439162034204D0D1
:102A80000A490B480A6802400A609A0304D50749BC
:102A900008480A6802400A60DB03E7D5034A064992
:102AA00013680B40E1E7C046011000000827014011
:102AB000FFFF7FFFFFFFBFFFFFFFFFFEF8B5050031
:102AC00050352B7804000220012B3FD00123032234
:102AD0002B70236898681040012802D11A680242BE
:102AE00035D1626D1C49114002220A4303216265FF
:102AF000DE68DA688A43DA608022996812060A433F
:102B00009A60FFF7E7FC070023689A68002A0EDB4B
:102B10000322D96816400E43DE60636D00209343A4
:102B20001A0001231343636500232B700EE0FFF7A7
:102B3000D1FCC01B0A28E7D91222636D0120934300
:102B40001A0010231343636500232B70F8BD202364
:102B5000626D13436365E7E7FDFEFFFF70B5890112
:102B6000002814DA0F23C0B20340083B114A9B0827
:102B70009B009B18032210409040FC32150011402E
:102B800085408140DC69AC432143D96170BD032598
:102B900083082840A840FC352E00074A9B009B185C
:102BA000C02286402940814092009C58B443214372
:102BB0009950EBE700ED00E000E100E01F23184032
:102BC0001E3B8340014A13607047C04600E100E0AD
:102BD000094A431E012093420DD8C021074A0848E4
:102BE0005360036A09061B021B0A0B4303620020A1
:102BF0000723906013607047FFFFFF0010E000E0C4
:102C000000ED00E0F0B5574A0B688218541EA2414F
:102C100087B004930023053203910592049ADA40A9
:102C200001D107B0F0BD012637009F40049A3A4019
:102C3000029200D193E0039A526801921022019D02
:102C400095436A1EB24213D8032459008C408C4627
:102C500082680399A243CC6861468C40224382601B
:102C6000019A4468120932409A40BC4322434260B0
:102C700003225F00BA400399D2438C68C668BC4007
:102C800016403443C460022D0ED10F2105351D407E
:102C9000AD00A940DC08A4000419266A8E430399FC
:102CA0000969A9400E432662032604682240019C5C
:102CB0003440BC4022430260019AD2004FD5012724
:102CC000294C1D00626B35403A436263274A9C08D9
:102CD000A400A418A268AD0094460F226146AA4041
:102CE0009143A022D2059446002260450DD0204A8F
:102CF00094463A00604508D01E4F9218B84204D05E
:102D00001D4F3200B84200D0059AAA400A430299EA
:102D1000A2600D00194ACC43166801993543C903D6
:102D200001D43500254015605668029D0199354350
:102D3000890301D43500254055609668029D0199AC
:102D40003543C90201D4350025409560D568029EFF
:102D500001992E43890201D425402E00D66001330B
:102D60005CE7C04600E4FFAF0010024000000140F5
:102D70000004005000080050000C00500004014006
:102D8000344AF0B58218541EA241002385B00532A2
:102D900003920A00DA4001D105B0F0BD01229A4049
:102DA000160000920E4053D02B4C9A089200121934
:102DB0009468032527000F241D40AD00AC4001940A
:102DC0003C400294A024E405A446002460450DD0B4
:102DD000224CA4460124604508D0214F2419B84252
:102DE00004D0204F0134B84200D0039CAC40029D77
:102DF000A54211D1F6431C4C256835402560656815
:102E000035406560A5683540A560E5682E40E66000
:102E10009468019DAC43946003225D00AA4007259D
:102E20000F271D40AD00AF40D54304681443046034
:102E3000DC08A4000419266A009ABE432662C4680E
:102E40002C40C46044689443446082682A40826095
:102E500001339EE700E4FFAF000001400004005092
:102E600000080050000C00500004014000690840B8
:102E7000411E8841C0B27047002A01D0816170476D
:102E80008162FCE7044B10B55A69104202D05861C8
:102E900002F03EFD10BDC0460004014003689A697F
:102EA000920701D500229A6201229969114202D14A
:102EB00099690A439A61704770B5049E8905334346
:102EC000890D194380230468DB00700D1840044B02
:102ED000656812041843854311432943616070BD3E
:102EE000FF63FF03F8B504000E0017001D00226801
:102EF000936933409B1B59424B41BB4201D0002098
:102F000017E06B1CF4D0FFF7E5FA069BC01A854268
:102F100001D3002DEBD12022636C012013436364A5
:102F2000230041331A7022000023423240341370D0
:102F30002370F8BDF8B503680400986910230E00EB
:102F4000170018402025002818D1F8BD721C16D093
:102F5000FFF7C0FAC01B864201D3002E0ED12022FB
:102F6000636C13436364230041331A70220000230F
:102F700042324034137001202370E6E723689A69D7
:102F80002A42E3D010222000DA61DD61FFF786FFDC
:102F90002268064953680B4053600423626C134354
:102FA0006364230041331D70E0E7C04600E800FE83
:102FB000F8B504000D001600022723689B693B4208
:102FC00001D00020F8BD320029002000FFF7B2FF39
:102FD000002815D16B1CF0D0FFF77CFA801B8542CE
:102FE00001D3002DE9D12022636C134363642300D5
:102FF00041331A7022000023423240341370237090
:103000000120DFE7F8B504000D0016002027236833
:103010009B693B4201D00020F8BD3200290020000E
:10302000FFF788FF002813D1FFF754FA801B854271
:1030300001D3002DEBD12022636C13436364230082
:1030400041331A702200002342324034137023703F
:103050000120E1E7F8B504000D00170004262368FD
:103060009B69334211D13A0029002000FFF762FF2B
:1030700000281AD1202123689A690A4217D09A6938
:10308000324204D0228D002A01D00020F8BD202138
:10309000D9615A680E4802405A602200002341322A
:1030A000636411704034537023700120EEE7FFF722
:1030B00011FAC01B854201D3002DD0D12022636CB0
:1030C00013436364230041331A7040340023EBE759
:1030D00000E800FE70B504000120002C3FD0250060
:1030E00041352B78DBB2002B05D122004032137022
:1030F000200002F05FFC242301212B702368E0688C
:103100001A68A6688A431A6061681A4A0A401A61F6
:103110009968194A11409960012821D1802109023A
:10312000314399605868154901435960D9680020B6
:103130000A40DA60616922690A43A16909020A4307
:10314000DA60216AE2690A431A60012219680A43B7
:103150001A60202360642B7020634234207070BD9D
:1031600084210902314399600228DBD180210901C1
:103170005960D7E7FFFFFFF0FF7FFFFF00800002ED
:1031800070B504000120002C13D0250024232268F0
:1031900041352B70136883431360200002F03AFC22
:1031A000002023006064423328702063403418708C
:1031B000207070BDF0B5050087B0039104920593AF
:1031C00041352B7804000220202B14D123004033FA
:1031D0001A78012A0FD001261E70FFF77BF9802193
:1031E000070000901923320009022000FFF77AFE41
:1031F000002802D0012007B0F0BD21232B7025004C
:10320000113B42352B70049B606463626B469B8A62
:1032100060636385628D304BFF2A21D9FF222285AE
:10322000009380235B0403992000FFF745FEFF26EF
:10323000638D3A000C992000002B19D1FFF7E2FEB4
:103240000028D7D120212368244ED9615A68324002
:103250005A60230040344133197028702070CAE747
:10326000628D92B2228500938023D2B29B04DAE76A
:10327000FFF79EFE0028BDD1636A226819780133EA
:1032800091626362638D228D013B9BB26385013A3B
:10329000638D92B22285002BCAD0002AC8D1009734
:1032A0000C9B80212000FFF71DFE0028A2D1638D1A
:1032B000FF2B09D98023FF2226855B040090039908
:1032C0002000FFF7F9FDB3E78023628D9B0492B2E3
:1032D0002285D2B20090F2E70020008000E800FED4
:1032E000F0B5050087B003910492059341352B7822
:1032F00004000220202B14D1230040331A78012A25
:103300000FD001261E70FFF7E5F88021070000901E
:103310001923320009022000FFF7E4FD002802D043
:10332000012007B0F0BD22232B702500123B42354F
:103330002B70049B606463626B469B8A6063638549
:10334000628D314BFF2A21D9FF22228500938023F1
:103350005B0403992000FFF7AFFDFF26638D3A0061
:103360000C992000002B19D1FFF74CFE0028D7D173
:1033700020212368254ED9615A6832405A602300C3
:1033800040344133197028702070CAE7628D92B2C0
:10339000228500938023D2B29B04DAE7FFF75AFE1E
:1033A0000028BDD12368626A5B6A1370636A228D4C
:1033B00001336362638D013A013B9BB26385638D88
:1033C00092B22285002BC9D0002AC7D100970C9B4E
:1033D00080212000FFF786FD0028A1D1638DFF2BFF
:1033E00009D98023FF2226855B04009003992000E1
:1033F000FFF762FDB2E78023628D9B0492B22285C3
:10340000D2B20090F2E7C0460024008000E800FE3F
:10341000F0B50400413422780300D2B20220202A01
:1034200018D11D0040352E78012E13D01B68223094
:1034300020701E68233886431E601E68064F3E407B
:103440001E601E6831431960196808431860002027
:1034500022702870F0BDC046FFEFFFFFF0B50500F9
:1034600041352A780300D2B20220202A17D11C004D
:1034700040342678012E12D01B68223028701E6836
:10348000233886431E601E68054F09023E403143C3
:10349000196019680843186000202A702070F0BD78
:1034A000FFF0FFFF8023034A5B0011680B431360AA
:1034B0007047C046007000401021024A13688B43D9
:1034C000136070470070004010B503240A4A136867
:1034D000A343184310600422084B186902431A6181
:1034E000012905D130BF04211A698A431A6110BD30
:1034F00040BF20BF20BFF6E70070004000ED00E0B5
:103500000223054A11680B4313600423034A11691F
:103510000B43136130BF70470070004000ED00E0C6
:103520008023034A9B0011680B4313607047C04619
:10353000007000400C22184B10B5D9680A40082AC8
:1035400026D00C2A06D0042A1AD11B68DB0621D407
:10355000124810BD8A021248120F825C0902D86814
:10356000890F0131C00304D50E485043FCF7E8FD34
:10357000EFE71B68DB0601D50B48F6E70748F4E7E1
:1035800080205B6800021B045B0F01339840E0E77A
:103590000448DEE70448DCE7001002400024F400A1
:1035A0007C91000800127A0000093D00F0B505008A
:1035B00087B0002802D1012007B0F0BD0C23BE4C1B
:1035C000E668E2681E4080235B021A4001920268AE
:1035D000D20741D42B689B0700D587E02B68DB0618
:1035E00028D5002E00D0D9E023689B0502D5EB69D1
:1035F000002BE0D06268B1496B6A0A401A436260EE
:1036000061682A6A0902090A12060A436260802276
:103610005B0B013312029A401300E16800200A0696
:10362000A749120F8A5CD340A64A1360FEF70EFF2B
:103630000028C1D12B681B0700D5E6E02B685B078B
:1036400000D508E12B689B0600D58DE1AB6A002B05
:1036500000D0BCE10020AFE7082E04D00C2E09D129
:10366000019A002A06D023689B03B3D56B68002B10
:10367000B0D1A0E76A689A4211D12268134323604F
:10368000FEF728FF07008022236892021342A1D18F
:10369000FEF720FFC01B6428F5D903208CE7A0218A
:1036A000C9028A4205D180222168D2020A432260DF
:1036B000E3E7216884480140216021680B400593BD
:1036C000059B824923680B402360002AD8D1FEF76E
:1036D00001FF0700802223689202134200D179E79C
:1036E000FEF7F8FEC01B6428F4D9D6E7EA68042E7A
:1036F00004D00C2E25D1019B002B22D123685B071F
:1037000002D5002A00D156E761682B6970481B0278
:1037100001400B430921636023688B4313432360FB
:10372000FFF708FFE368664A1B061B0FD35CD8400F
:10373000644B18600020FEF789FE002800D14DE799
:103740003AE72368002A18D009218B4313432360EA
:10375000FEF7C0FE070004222368134207D0626808
:103760002B695B491B020A401343636036E7FEF78F
:10377000B1FEC01B0228EED98FE7012293432360DC
:10378000FEF7A8FE070004222368134200D125E7B4
:10379000FEF7A0FEC01B0228F5D97EE7EB69002BDF
:1037A00020D0802322685B0013432360FEF792FE43
:1037B000070080222368920013420DD063683F4ABD
:1037C00013406A6A1343636062682B6A12021B0625
:1037D000120A134363602DE7FEF77CFEC01B02282C
:1037E000E7D95AE723683B4A13402360FEF772FE8D
:1037F0000700802223689200134200D11AE7FEF7E7
:1038000069FEC01B0228F4D947E76A690123002A30
:1038100010D0226D13432365FEF75CFE07000222E1
:10382000236D134200D009E7FEF754FEC01B0228A7
:10383000F5D932E7226D9A432265FEF74BFE070069
:103840000222236D134200D1F8E6FEF743FEC01BAF
:103850000228F5D921E780230021A26B5B050191A5
:103860001A4204D1A26B1343A36301230193802264
:10387000194F52003B68134208D08022AB685200B7
:1038800093422BD1226D134323654CE080223B6889
:10389000520013433B60FEF71DFE80235B00029045
:1038A00003933B68039A1342E7D1FEF713FE029B92
:1038B000C01A6428F5D9F0E600100240FF1FFFFF90
:1038C000649100082C000020FFFFFEFFFFFFFBFFBC
:1038D000FFE0FFFFFFFEFFFF00700040002B16D14E
:1038E000236D6C4A13402365236D6B4A1340236597
:1038F000FEF7F0FD07008022236D920013422AD0CC
:10390000FEF7E8FD654BC01B9842F4D9C5E6A0213F
:10391000C9008B420BD18023216DDB000B43236553
:10392000236D1A432265FEF7D5FD07000EE0236DD7
:10393000584A13402365236D574A1340A4E7FEF706
:10394000C9FD564BC01B984200D9A6E68022236DC4
:1039500092001342F3D0019B012B00D072E6A36BBF
:103960004F4A1340A3636DE6A96901234D4A00291C
:1039700018D0A1681943A160616B0B436363802376
:10398000116A9B010B431362FEF7A4FD070002229C
:10399000A368134200D059E6FEF79CFDC01B022825
:1039A000F5D97AE6A1689943A160136A3E490B40B4
:1039B0001362FEF78FFD07000222A368134200D1B5
:1039C00044E6FEF787FDC01B0228F5D965E60C2EFC
:1039D00043D0364A022B2ED1236880261340236021
:1039E000FEF778FD0700B604236833421DD1296B2A
:1039F000EB6AE2680B432E490A4013436A6B802549
:103A00001343E360802322685B0413432360FEF7C3
:103A100061FD0600AD0423682B4200D01AE6FEF7D4
:103A200059FD801B0228F6D937E6FEF753FDC01B6F
:103A30000228D9D931E62368802513402360FEF798
:103A400049FD0600AD0423682B4200D102E6FEF7D3
:103A500041FD801B0228F6D91FE61800012B00D17A
:103A6000AAE58022E368E96A52021A4001208A42EC
:103A700000D0A1E5F022296B92031A408A4200D0BF
:103A80009AE5C02000040340686B181A431E984151
:103A9000C0B291E5FFFEFFFFFFFBFFFF88130000B0
:103AA000FFFFFFEF00000140FFDFFFFFFFFFFFFE12
:103AB000FFFF02FFF7B5061E019101D10120FEBDF7
:103AC0000122514C0199236813408B4227D332685D
:103AD00093072FD4D30735D40123226801991A40C4
:103AE000914200D281E03268484C530700D584E00F
:103AF000130706D5E26833694549DB000A401343E2
:103B0000E360FFF717FDE368424A1B061B0FD35C17
:103B1000D840414B18600020FEF798FCCFE723689F
:103B2000019993430B43236023681340019A9A42FF
:103B3000C4D1CCE7F0203549CB688343B068034358
:103B4000CB60C7E7314D72682B68022A19D19B03FD
:103B5000B4D50321EB688B431343EB60FEF7BAFC4B
:103B600073680700022B19D10C22EB681340082B55
:103B7000B2D0FEF7AFFC294BC01B9842F4D903200A
:103B80009DE7032A02D19B01E3D497E7012A02D1E2
:103B90005B07DED492E79B05DBD48FE7032B0BD1C9
:103BA0000C22EB681340934296D0FEF793FC1B4B1C
:103BB000C01B9842F4D9E2E7012B10D00C22EB682D
:103BC000134289D0FEF786FC144BC01B9842F5D9EE
:103BD000D5E7FEF77FFC114BC01B9842CFD80C22D3
:103BE000EB681340042BF4D176E722689A432260F5
:103BF00022681A4200D061E775E7E36808490B4084
:103C0000F1680B43E36073E70020024000100240BC
:103C1000FFC7FFFF649100082C00002088130000FC
:103C2000FFF8FFFF044B054ADB685B055B0FD35CC5
:103C3000034A1068D8407047001002407491000891
:103C40002C000020044B054ADB689B045B0FD35C0F
:103C5000034A1068D8407047001002407491000871
:103C60002C0000208223F7B502681B0105001A42D0
:103C700047D0802300215F4C5B05A26B00911A4264
:103C800004D1A26B1343A3630123009380275A4EF0
:103C90007F0033683B426DD06968C022080023680A
:103CA000920313401040834203D1A868024093421C
:103CB00009D0C0230A009B021A409A4203D123680C
:103CC00001209B0366D4C022236D9202134062D16F
:103CD0006968C0230A009B021A409A4207D12368F0
:103CE00046480340C020800301400B432360236DFE
:103CF0001A43009B2265012B03D1A36B404A13405A
:103D0000A3632B68DA0706D503203A49CA6C8243BD
:103D1000E8680243CA649A0706D50C203549CA6C84
:103D2000824328690243CA645A0706D53149354897
:103D3000CA6C024068690243CA641A0706D52D4955
:103D40003148CA6C0240A8690243CA645A0606D5C3
:103D500028492E48CA6C0240286A0243CA640020DF
:103D60001B0617D5234A2A49D36C0B40E9690B433C
:103D7000D3640FE033683B433360FEF7ABFB019045
:103D800033683B4288D1FEF7A5FB019BC01A64282B
:103D9000F6D90320FEBD11408B4202D02968890666
:103DA00008D4A9680A40934200D191E72B681B050B
:103DB00000D48DE78022216D206D1203024322651D
:103DC000226D144B14480B40024022652365CB053D
:103DD00000D47DE7FEF77EFB80270600BF00236D41
:103DE0003B4200D074E7FEF775FB0C4B801B9842FA
:103DF000F5D9CEE70010024000700040FFFFCFFF72
:103E0000FFFFFFEFFFF3FFFFFFCFFFFFFFFFFFFB12
:103E1000FFFFF3FFFFFFFCFFFFFFF7FF881300002A
:103E2000F7B50227451CEB7F04003800012B24D096
:103E30000123CA22EB772368E619F7775A62773AAB
:103E40005A62AD32914228D19A6821490A409A605B
:103E50009A6820490A409A60FEF73CFB01230090D3
:103E600001932368DF68019B1F4007D0FF2223686E
:103E700000205A620123F377E877FEBDFEF72AFBA4
:103E8000009BC01AFA239B009842EAD9FF22032024
:103E900023685A62F077EF77EFE79A680E490A4095
:103EA0009A609A680D490A409A60FEF713FB0197E1
:103EB00000902368DF68019B1F40D7D1FEF70AFB03
:103EC000009BC01AFA239B009842F2D9DEE7C04655
:103ED000FFFEFFFFFFEFFFFFFFFDFFFFFFDFFFFF25
:103EE00070470000036810B59A680400D2040AD530
:103EF000DB68DB0507D5FFF7F3FF21680E4BCA68C7
:103F0000D2B21343CB6023689A6892040BD5DB6866
:103F10009B0508D5200000F0BBFA2168074BCA6852
:103F2000D2B21343CB608022054B92025A61012327
:103F30000234E37710BDC0467FFEFFFF7FFDFFFF29
:103F400000040140A0210268F8B5D36804008B4347
:103F5000D360FEF7BFFAFA2706002025BF002368CA
:103F6000DB682B4201D00020F8BDFEF7B3FA801BBE
:103F7000B842F4D90320F7E7F8B5402403680500F8
:103F8000DA68224201D00020F8BD01225242DA60F4
:103F9000FEF7A0FAFA270600BF002B68DB68234271
:103FA000F1D1FEF797FA801BB842F6D90320EBE770
:103FB00070B50400012500281AD0861CF37FDBB2FF
:103FC000002B03D14219D37701F03CFD0223CA2212
:103FD000F377236820005A62773A5A62FFF7CCFFE2
:103FE0002368051E06D0FF225A620423F3770125B9
:103FF000280070BD9A681B4920690A409A6062686F
:1040000099680243A06902430A439A60E2686069C2
:104010001A61A268196912040A4380211A61DA68D8
:104020008A43DA60DA6C7D398A43DA64E269D96CF2
:1040300002430A43DA649B689B060CD42000FFF716
:1040400081FF002807D0FF22236801345A6204232D
:10405000F377E577CBE7FF2223685A620123F377F2
:10406000C6E7C046BFFF8FFF0023092803D81B0106
:104070001843C0B270470A380133C0B2F5E70000F8
:104080000223F7B5471C0C00F97F05001E0001292B
:1040900036D00121F977C118CB7700914021036810
:1040A00066789B6820780B40002A2BD1002B00D12A
:1040B000E370FFF7D9FF01903000FFF7D5FF06004E
:1040C000A078FFF7D1FF0300E07836020004184320
:1040D000019B1B04184330430190CA222B6828001F
:1040E0005A62773A5A62FFF747FF2B68061E16D0CE
:1040F000FF225A620423009AD3770023FB7701261C
:104100003000FEBD002B00D1E370000436020643F0
:10411000A0780643E078000406430196DDE71548E1
:10412000019A154902401A609A6820690A409A600B
:10413000E268996802430A4380219A60DA688A43F8
:10414000DA609B689B060CD42800FFF7FBFE002872
:1041500007D0FF222B685A620423009AD377FE7798
:10416000CDE7FF222B685A620123009AD377002300
:10417000FB77C5E77F7F7F00FFFFFBFF0223F0B5E2
:10418000471C0D00F97F85B004001E00012935D0C1
:104190000121F977C1180191CB776B78E878AE7877
:1041A000002A4ED11032134202D093430A336B706F
:1041B000FFF75AFF02906878FFF756FF0390300030
:1041C000FFF752FF029B2D781E046D03039B0543EE
:1041D00035431E02CA22236820005A62773A5A6287
:1041E000FFF7CAFE35432368061E0AD0FF225A6233
:1041F0000423019AD3770023FB770126300005B012
:10420000F0BD8021124805405D60DA688A43DA60BB
:104210009B689B060CD42000FFF794FE002807D073
:10422000FF2223685A620423019AD377FE77E4E7DA
:10423000FF2223685A620123019AD3770023FB7778
:10424000DCE700041B022D7803431E436D03C1E726
:104250003FFFFF00F7B5431C00930D00D97F0223F9
:1042600004001800012900D18DE001216018C177F8
:10427000E118CB774021236828789B686E78AF7867
:104280000B40002A5DD1002B00D1EB70FFF7ECFE54
:1042900001903000FFF7E8FE06003800FFF7E4FE6B
:1042A00007006B1CD87FFFF7DFFE6A69EB693602F7
:1042B0001343EA780006120413431F43019B1B04B7
:1042C0001F4337430743AA696B68696A1343CA22CD
:1042D000019323685A62773A5A62AD32914253D1C0
:1042E0009A683C490A409A60D9683B4AC9B20A4375
:1042F000DA60FEF7EFF8060001222368DD6815405A
:1043000032D0019ADF615A648022996852000A43D0
:104310009A608022996852010A439A6080222F4B4A
:104320009202196800201143196099680A439A6043
:10433000FF22236802345A620123E377009BD87777
:1043400021E0002B00D1EB70EB696A690004134394
:104350001F43360207433743EE786B1C360437435E
:10436000DE7F36063743AEE7FEF7B4F8FA23801B4C
:104370009B009842C0D9FF220320236802345A626E
:10438000009BE077DD77FEBD9A6815490A409A6088
:10439000D968144AC9B20A43DA60FEF79BF80600EE
:1043A00002222368DD6815400BD0019A1F629A64CF
:1043B0008022996892000A439A608022996892014B
:1043C000AAE7FEF787F8FA23801B9B009842E7D9FB
:1043D000D1E7C046FFFEFFFF7FFEFFFF0004014064
:1043E000FFFDFFFF7FFDFFFF0A23020953430F225A
:1043F00010401818C0B2704770B50C007F250168D6
:104400003F208B6A63600B695B045B0CA3600B68E5
:104410000D490B401E0A190C2E401D404023084038
:10442000194020706670A570E170002A0AD1FFF76C
:10443000DBFF20703000FFF7D7FF60702800FFF728
:10444000D3FFA070002070BD7F7F7F0070B53F2537
:104450000C0003680D495B680B40180CDE041D401E
:104460001B04F60E5B0FE0706670A5702370002AC7
:104470000AD1FFF7B9FFE0703000FFF7B5FF6070B9
:104480002800FFF7B1FFA070002070BD3FFFFF00C4
:1044900070470000F8B504000D0016001F002268E8
:1044A00093682B409D4201D0002031E0731CF7D06F
:1044B000FEF710F8C01B8642F1D8E02123685A6845
:1044C0008A435A6082226168520091420CD1802155
:1044D000A26809028A4203D08021C9008A4203D11E
:1044E00040211A688A431A608021A26A89018A429F
:1044F00006D1196807480140196019680A431A6013
:104500002300012251331A700023032050342370FA
:10451000F8BDC046FFDFFFFFF8B51300822204009C
:104520004068520090421ED180208025A26800027F
:10453000ED00824201D0AA4206D1402726683068A9
:10454000B8433060AA420ED00A0080212000FFF755
:10455000A1FF002801D10020F8BD2023626D0320B7
:1045600013436365F8E70A000121EFE71300822295
:1045700010B5040040685200904208D10A00802122
:104580002000FFF787FF002809D1002010BD22007E
:1045900051321278052AF8D10A000121F0E72023D0
:1045A000626D032013436365F0E7000070B50400FB
:1045B0000120002C37D000232500A36251352B7831
:1045C000DBB2002B05D1220050321370200001F025
:1045D00051FA0223402221682B700B68A068934394
:1045E0000B606368A2690343E068034320690343E7
:1045F00060690343E0690343206A0343A06A0343FD
:1046000080208000104003430B600423120C1A40EA
:10461000636A00201A434A60CB69034A1340CB61A6
:10462000012360652B7070BDFFF7FFFF70B50400BC
:104630000120002C10D02500022340212268513592
:104640002B70136820008B43136001F03FFA0020A9
:10465000503460602870207070BDF0B587B0019351
:104660000300503303931B7804000E00170002254B
:10467000012B79D00123039A1370FDF72BFF220041
:10468000029051321378DBB2012B67D11D00002E4E
:1046900064D0002F62D00233137000236365A363DC
:1046A000E786A387E387636423648023A268266385
:1046B000A7861B029A4205D180232268DB0111687C
:1046C0000B431360402223681968114202D1196814
:1046D0000A431A608021E06809016268884246D175
:1046E000002A01D0012F07D132880236DA60E38E2A
:1046F0002663013B9BB2E3860225E38E002B15D196
:10470000029A01992000FFF731FF002859D1A368D0
:10471000002B06D105932368DA6805929B68059300
:10472000059B656D6B1E9D41EDB217E02268936895
:104730002B4209D0236B19880233D1602363E38EA7
:10474000013B9BB2E386D8E7FDF7C4FE029BC01A8B
:10475000019B9842D1D30133CFD00325012351349B
:1047600023700023039A1370280007B0F0BD002ABD
:1047700001D0012F08D132781A73236B01332363E0
:10478000E38E013B9BB2E3860225E38E002BB7D07C
:1047900023689A682A420AD0226B12781A73236B14
:1047A00001332363E38E013B9BB2E386EDE7FDF724
:1047B00091FE029BC01A019B8342E6D80133E4D0EC
:1047C000CBE720236365A2E7F0B51F00030085B0A7
:1047D000019250331A7804000E000225012A00D1FC
:1047E0009BE001221A70FDF775FE23000090513303
:1047F0001B786168DBB2012B0BD082225200914200
:1048000000D083E0A268002A00D07FE0042B00D013
:104810007CE00125002E00D178E0019B002B75D0B3
:10482000002F73D0230051331A78042A01D00522B7
:104830001A700023019A6365A263402223646364B3
:104840002368E787E7861868A7872663A78610424C
:1048500002D1186802431A608022E0681201904277
:104860005ED1002901D0012F07D132880236DA60EB
:10487000E38E2663013B9BB2E386012502272E00CF
:10488000E38E002B15D1E38F002B12D1009A0A99E9
:104890002000FFF76BFE051E00D087E0A368002B09
:1048A00034D123680390DA6803929B680393039BD7
:1048B0002CE0226893683B420ED0E38E002B0BD095
:1048C000012D09D10025236B19880233D1602363A0
:1048D000E38E013B9BB2E386936833420CD0E38FB7
:1048E000002B09D03500D268A36B1A800233A36372
:1048F000E38F013B9BB2E387FDF7ECFD009BC01A01
:104900000A9B8342BCD80133BAD00325230001227D
:1049100051331A70002350342370280005B0F0BDC5
:10492000002901D0012F08D132781A73236B01338B
:104930002363E38E013B9BB2E386012502272E0011
:10494000E38E002B02D1E38F002B9FD023689A685F
:104950003A420FD0E28E002A0CD0012D0AD1002558
:10496000226B12781A73236B01332363E38E013BAE
:104970009BB2E38623689A6832420DD0E28F002A08
:104980000AD03500DB68A26B1370A36B0133A363FD
:10499000E38F013B9BB2E387FDF79CFD009BC01AB0
:1049A0000A9B8342CCD80133CAD0AEE7202301252D
:1049B0006365ABE7F0B51E0082231700426887B03D
:1049C000040002915B009A420FD18368002B0CD146
:1049D0000300042251331A7000963B000A00FFF7CF
:1049E000F3FE0500280007B0F0BD23005033049308
:1049F0001B780225012BF5D00123049A1370FDF7D3
:104A000069FD23005133039005931B78DBB2012B22
:104A10004FD1029A1D00002A4BD0002F49D0059A91
:104A200003331370029A0023A2638022A168636596
:104A30002363E787A386E38623646364A787120260
:104A40002368914203D11A682C490A401A60402217
:104A50001968114202D119680A431A60E3680125F6
:104A6000002B3AD1E38F002B0BD1039A31002000A9
:104A7000FFF752FD00283DD1656D6B1E9D41EDB2E3
:104A800017E023689A682A420AD01B7BA26B137036
:104A9000A36B0133A363E38F013B9BB2E387E1E7A1
:104AA000FDF718FD039BC01A8642DBD8731CD9D0D2
:104AB00003250123059A13700023049A137091E7CC
:104AC000226893682B420CD0D268A36B1A80023301
:104AD000A363E38F013B9BB2E387E38F002BEFD10E
:104AE000C3E7FDF7F7FC039BC01A8642F5D8731C99
:104AF000F3D0DDE720236365BEE7C046FFBFFFFFBD
:104B000070B505000120002D12D0242300246B670E
:104B10002B681A6882431A6028001C605C609C60E5
:104B200001F018F82000EC676C67AC6770352C70EA
:104B300070BD0000F8B504002569A26803682A4327
:104B40006569C1692A431868794D0A4328400243C0
:104B50001A605A687748784D0240E06802435A600C
:104B6000A069AB4201D0226A10439A68734E32406A
:104B700002439A60724A934213D10322714BDB6C59
:104B80001340714AD05C80231B02994200D092E00E
:104B900008281ED8FBF7CAFA5860631D841D1D1D26
:104BA00087006A4A934205D10C22664BDB6C1340A6
:104BB000674AE7E7AB4200D0B3E0C0218020614AFA
:104BC0000901D36CC0000B40834238D003D8002BBE
:104BD0000AD001250DE08020000183420ED08B42D7
:104BE000F7D1802000020DE0FFF71CF80025A84255
:104BF00008D10023280023666366F8BD1368DB062E
:104C000020D55448032263685A438242E1D81A03EC
:104C10008242DED30027020E01025E0889197A4122
:104C2000080011001A003B00FBF700FC4A4BC218B9
:104C30004A4B9A42CDD823683D00D860D9E7FEF7A9
:104C400079FCD3E74648DDE7FEF7ECFF63684000F8
:104C50005B08C01861680BE0FEF7F4FFF6E710256B
:104C6000384B61681A684808154006D03D4BC0189B
:104C7000FBF766FA002583B204E03B4BC018FBF754
:104C80005FFA83B21900394810398142A1D80F2147
:104C900018001B0788435B0F21680343CB60A8E71C
:104CA000FEF748FCD2E76368580880235B02D0E730
:104CB00001250023E6E7082837D8FBF737FA050C6B
:104CC0000F362A3636362D00FEF7ACFF63685B08D8
:104CD000C01861680BE0FEF7B5FFF7E71025194B28
:104CE00061681A68480815400DD01A4BC018FBF7C8
:104CF00027FA002583B219001C481039814200D9D7
:104D000067E72168CAE7164BC018FBF719FA83B2A8
:104D1000F1E7FEF70FFCD9E76368580880231B0210
:104D2000D6E780231B029942C2D001250023E2E787
:104D3000F369FFEFFFCFFFFF00480040FFF4FFFFE4
:104D40000038014000100240E49000080044004098
:104D5000E890000800093D0000FDFFFFFFFC0F0088
:104D60000024F40000127A000048E801EFFF000080
:104D7000436A30B5DA0706D50168284C4A682240F4
:104D8000846A22434A609A0706D50168244C4A681F
:104D90002240C46A22434A605A0706D50168214C62
:104DA0004A682240046B22434A601A0706D501680C
:104DB0001D4C4A682240446B22434A60DA0606D5FD
:104DC00001681A4C8A682240846B22438A609A06E2
:104DD00006D50168164C8A682240C46B22438A605B
:104DE0005A0610D50168134D4A68046C2A402243C4
:104DF0004A6080225203944205D14A680E4C2240F8
:104E0000446C22434A601B0606D502680B4953686E
:104E10000B40816C0B43536030BDC046FFFFFDFF6C
:104E2000FFFFFEFFFFFFFBFFFF7FFFFFFFEFFFFF27
:104E3000FFDFFFFFFFFFEFFFFFFF9FFFFFFFF7FF1A
:104E4000F8B504000E0015001F002268D369334036
:104E50009B1B59424B41AB4201D000201BE0069BFB
:104E60000133F3D0FDF736FB069BC01B834201D311
:104E7000002BEAD1236808491A6803200A401A6007
:104E80009A68A331FF318A439A6020236367A3673E
:104E9000002370342370F8BD5FFEFFFFF0B587B0CC
:104EA0000593436F04000D0017000220202B49D109
:104EB0000138002946D0002A44D08023A2685B0133
:104EC0009A4204D12369002B01D101423AD1230037
:104ED00070331A780220012A34D0012200261A7079
:104EE0002123E6676367FDF7F5FA230050331F803F
:104EF000023303931F808023A26804905B019A42CF
:104F000004D12369B34201D12E001D002300523386
:104F10001A88059B92B20093049B002A0AD1402173
:104F20002000FFF78DFF00280BD120237034636031
:104F3000207007E0002280212000FFF781FF002879
:104F400002D0032007B0F0BD2268002D0BD13388BA
:104F50000236DB05DB0D9362039B039A1B88013B42
:104F60009BB21380D2E72B7801359362F4E70000FF
:104F700073B500260400C667FDF7ACFA2368050088
:104F80001B681B0715D423681B685B070AD58021A3
:104F90000E4B00220093C9032B002000FFF750FFA7
:104FA000002811D1202300206367A367703420708C
:104FB0000BE08021054B32000093890303002000A1
:104FC000FFF73EFF0028DED0032076BDFFFFFF0184
:104FD00010B5041E01D1012010BD436F002B04D178
:104FE00002007032137000F087FD24230121226833
:104FF0006367136820008B431360FFF79BFD012854
:10500000E9D0636A002B02D02000FFF7B1FE2368CD
:1050100007495A6820000A402A215A609A688A4340
:105020009A60012219680A431A60FFF7A1FFD3E7CB
:10503000FFB7FFFF10B5012001F05EFB01F01EFB82
:10504000002001F0E5F9022001F082FB012103209C
:1050500001F068FB064C2068616801F093FAA268D1
:10506000E368012001F0A0FA01F0F6F910BDC04696
:1050700008000020F0B587B00600FDF72BFA782570
:1050800007000024002C01D1002D02D1200007B020
:10509000F0BDFDF71FFAFA23C01B9B009842F3D91D
:1050A000FDF718FA2A001F490700684602F0AAFB1C
:1050B00001F0E8FD684601F08BFD01F0A1FD01F073
:1050C0002BFE002270601021300001F01BFA01F06D
:1050D0000DFB041E05D1013DD4E72021180001F08D
:1050E00047FA002001F036FA0F4B0028F5D11A7864
:1050F0000124352AEFD11900253A300002F060F87A
:1051000072680A4903A802F07DFB01F0BBFD03A809
:1051100001F05EFD01F074FDFA208000FDF7E0F97A
:10512000D9E7C046F59000083A03002041910008F5
:1051300030B59DB0382200210EA802F04AF81422A2
:105140000021684602F045F82422002105A802F05B
:1051500040F880231749184C0A681B01224013436A
:105160000B60FEF79FF9154A0125136D0EA8234029
:105170001365062300240E93FA331093F03B129329
:1051800011951894FEF712FA0F2321006846009338
:105190000195029403940494FEF78CFC2A23059352
:1051A000802305A85B0209940B940693FEF75AFD31
:1051B0001DB030BD00700040FFE7FFFF001002404F
:1051C0001FB502000C0001A8084902F01BFB01F00A
:1051D00059FD01A801F0FCFC01F012FD3220FDF7A1
:1051E0007FF9002C01D0FEF78BF91FBDFE9000085F
:1051F00010B5040001F07EFBFCF76AFE00220E4BA6
:10520000FBF768FDFCF730FF606001F095FBFCF7F1
:105210005FFE0022084BFBF75DFDFCF725FF2060D9
:1052200000F08CFEFCF754FE0022044BFBF752FD0D
:10523000FCF71AFFA06010BD000059400000244098
:10524000F0B5BDB023ADFDF725F9FFF771FF1422CE
:105250000021280001F0BDFF042101270226EA4BAE
:10526000EA48DA6A00240A43DA62DA6A0A400692F5
:10527000069ADA6A7C310A43DA62DA6A0A400792ED
:10528000079ADA6A3A43DA62DA6A3A400892089A86
:10529000DA6A3243DA62DB6A002233400993099BFF
:1052A000FDF7EAFD00224021D948FDF7E5FDA020E9
:1052B00003232900C0056B602397AC60FDF7A2FCB7
:1052C0002396D44E2900D2486E60AF60FDF79AFC59
:1052D00080232900CD4823936F60AC60EC60FDF71C
:1052E00091FC8023A0205B002900C00523936E6001
:1052F000AF60FDF787FC20232900C54823936C602D
:10530000AF60FDF77FFC40232900C14823936F6005
:10531000AC60EC60FDF776FC220021000520FDF773
:105320001DFC0520FDF74AFC220021000720FDF7A7
:1053300015FC0720FDF742FCB74EB84B3000336038
:10534000B74BB4607360F76034617461B461F46149
:105350003462FDF7BFFE21003000FEF759F821004E
:105360003000FEF77BF81422210019A801F031FF6C
:10537000282221002800119401F02BFFA94EAA4BEE
:10538000300033607F23B3608033F3607460346136
:105390007461B461F461FEF70BFE542204AB9B18F8
:1053A0001C70D21904AB9B181C70D21904AB9B184B
:1053B00019A93A0030001C701C941D94FEF760FE81
:1053C000342204AB9B181F70D21904AB9B181F70BA
:1053D000D21904AB9B181F70D21904AB9B1811A9EA
:1053E0003A0030001C70FEF7C9FE7D2304AA9B180A
:1053F000DF7780233A0029005B0030006B622C705D
:105400006C70AC706C60EC602C616C61AC61EC61D8
:10541000FEF720FF8548864B8460036082235B0093
:105420004360FC338361FA3BFF3BC362C4600461A9
:105430004461C461046244628462FFF7B7F87D4846
:105440007D4B84600360E1235B0243600C23C460F6
:10545000436104618461C46104624462FFF7B8FD82
:1054600008222100280001F0B4FE744E744B300075
:1054700033600C2333647433736490239B03736031
:10548000F319DC77B31CDC77C223FF33736233007C
:105490002C331C700423F7637361B464B460B46389
:1054A0003761F460B4623463B4617463F461FDF72E
:1054B000E5F8802329005B0130006B602397FDF73E
:1054C00097FA01F01FFC5F4801F082FBFF2001F01A
:1054D000E7FBFF2001F0EAFB01F092FBFA20C0009D
:1054E000FCF7FEFF00F0B0FBA04203D1390038000A
:1054F000FFF766FE01F0CAF9002803D1012102304E
:10550000FFF75EFE01F0B0FA002803D1012103305D
:10551000FFF756FE40233E4A80213C4800F04AFFF8
:1055200001F04AF9002803D101210530FFF748FEB8
:1055300001F0DCFA444801F031FCFFF77BFD434CFD
:105540002000FFF797FD00280CD0606801F026FCD2
:105550008021E068090601F05DFC6268E3689B1A3F
:105560003B4A136000F002FF002700F00BFF00F041
:1055700097FF01F087FB002F70D101F0BBF9060007
:1055800001F0DAF90A210500FAF764FE0A2100B2F7
:10559000FAF746FF0CB2E317E418642128005C40D8
:1055A000FAF758FE0A2105B23000FAF753FE0A2135
:1055B00000B2FAF735FF09B2CB17C918594001916B
:1055C00030006421FAF746FE00B2009023002A0062
:1055D000204919A802F016F9422001F061FB802051
:1055E00001F064FB19A801F0F3FA01F009FB01F0E6
:1055F00049FC194B1A6880235B009A4200D0C1E035
:105600007B1C03271F40B4E7001002400008005035
:1056100000040050000021105C03002000540040F2
:105620005B3D3000C403002000280040EC03002054
:10563000003001404404002000440040C404002025
:1056400000240140079100080066EE5F180000206A
:10565000E80300201091000864020020012F15D1FA
:1056600000F06CFC0A210500FAF7F0FD28008CB26E
:105670000A21FAF765FD230082B28A4919A802F0CF
:10568000C1F8102001F00CFB4020A9E7022F22D125
:1056900001F066FA01F080FA050001F089FAFCF7E2
:1056A00017FC814A814BFBF749FE0022804BFBF738
:1056B00045FEFCF7D9FB0A21040028B2FAF7CAFD1F
:1056C000230002B27B4919A802F09CF8402001F0A7
:1056D000E7FA202084E7032F84D1774C00212000B3
:1056E000FDF7ECF92000FDF7F5F8FA21200089001C
:1056F000FDF71CF92000FDF777F9FCF72BFC0022E1
:105700006E4BFBF7E7FA6E4A6E4BFBF717FE6E4ADD
:105710006E4BFCF793F86E4A6E4BFBF7DBFA6E4A62
:105720006E4BFBF7D7FA00226D4BFBF707FE6D4A75
:105730006D4B02900391FBF701FE00226B4BFBF7D0
:10574000FDFD00226A4B04000D00FBF7F7FDFCF79E
:105750008BFB0A21FAF764FE20000E002900FCF7FB
:1057600083FB040002980399FCF77EFB3300009052
:105770002200604919A802F045F8402001F090FA93
:1057800010202DE70DAD10220021280001F021FD91
:105790001123594C2B702000FFF72AFD6368AB6082
:1057A00023686B60A3680024EB6000F089FEFFF7BC
:1057B00041FCFCF78FFE0A2305900293002C02D1D6
:1057C000029B002B12D100F0D1FD00F0DBFD00F0B8
:1057D00067FE002C00D0CCE601F09EFA8021474BFA
:1057E00009061B68C01801F015FBC2E6FCF772FE43
:1057F000059BC01AFA239B009842E1D9FCF76AFE88
:10580000029A3F4905900AA801F0FCFF01F03AFA1C
:105810000AA801F0DDF901F0F3F9002210212800B7
:1058200000F070FE00F062FF041E06D1029B013BF7
:105830000293C3E7202100F09BFE002000F08AFEC7
:10584000030011A8002BF5D103780124352BEDD1ED
:105850002C4C230046C846C302681A60606801F0F9
:105860009DFA8021E068090601F0D4FAE3686468D3
:105870001E001A1B214B1A6001F04EFA2200330061
:105880002149009023A801F0BDFF23A8FAF73CFCB2
:10589000FA2382B29B0023A91C48FFF7FFFA0124D8
:1058A000C4E7C046219100083F355EBA490CD23F9B
:1058B0000080304028910008C404002000FEAF4062
:1058C0006666666666660A40273108AC1C5AB43FB5
:1058D0008DFACE467D6747400AD7A3703D0AA73FA1
:1058E00000408F402D431CEBE2361A3F00C082403F
:1058F0000000244031910008A8030020E8030020A4
:105900003C91000818000020449100084404002045
:10591000014B18607047C046640200200122054B0D
:10592000596B0A435A638022996B52050A439A6362
:105930007047C0460010024010B5040086B0142223
:10594000002101A801F045FC0D4B22689A4215D1B7
:1059500080220C4B9200596BA0200A435A6301220B
:10596000D96AC0051143D962DB6A01A913400093CB
:10597000009B032301920293FDF744F906B010BD8A
:105980000024014000100240074B026810B59A4203
:1059900009D1A020054A0649536BC0050B4053634B
:1059A0000121FDF7EDF910BD002401400010024077
:1059B000FFFDFFFF10B5040086B01422002101A8EE
:1059C00001F007FC104B22689A421AD102210F4CB9
:1059D0000F48E26A0A43E262E36A0B400093009BCD
:1059E000C0239B000193122302930F3B049301A950
:1059F00001330593FDF706F98023A26B9B03134344
:105A0000A36306B010BDC046005400400010024021
:105A100000040050074B026810B59A4209D1064AAB
:105A20000649936B06480B40C02193638900FDF73C
:105A3000A7F910BD0054004000100240FFFFDFFF37
:105A400000040050094B026810B59A420DD1802322
:105A5000074ADB02116D02200B431365002211007F
:105A6000FDF77CF80220FDF7A9F810BD00280040E2
:105A70000010024010B5040086B01422002101A8D5
:105A800001F0A7FB0F4B22689A4218D180220E4BDF
:105A90005201596BA0200A4301215A63DA6AC005FA
:105AA0000A43DA62DB6A0B400093009BE023019318
:105AB000DE3B02935B1801A90493FDF7A3F806B03F
:105AC00010BDC0460030014000100240074B026884
:105AD00010B59A4209D1A020054A0649536BC0056A
