:020000040800F2
:100000000050002049800008A16C0008A36C000883
:1000100000000000000000000000000000000000E0
:10002000000000000000000000000000A56C0008B7
:100030000000000000000000A76C0008A96C000888
:100040009980000899800008B16C00089980000828
:1000500099800008C16C000899800008CB6C0008EA
:10006000998000089980000899800008998000080C
:1000700099800008998000089980000899800008FC
:10008000998000089980000899800008000000000D
:1000900099800008998000089980000899800008DC
:1000A00099800008998000089980000899800008CC
:1000B00099800008998000089980000899800008BC
:1000C00010B5064C2378002B07D1054B002B02D02E
:1000D000044800E000BF0123237010BD8802002007
:1000E0000000000028A20008044B10B5002B03D02C
:1000F0000349044800E000BF10BDC04600000000F6
:100100008C02002028A200080023C25C0133002AD0
:10011000FBD1581E704702780B78002A03D00130BB
:1001200001319A42F7D0D01A7047000002B47146EC
:1001300049084900095C49008E4402BC7047C0462A
:1001400003B47146490840004900095E49008E44E5
:1001500003BC7047002243088B4274D303098B42CF
:100160005FD3030A8B4244D3030B8B4228D3030C87
:100170008B420DD3FF22090212BA030C8B4202D329
:100180001212090265D0030B8B4219D300E0090A51
:10019000C30B8B4201D3CB03C01A5241830B8B425A
:1001A00001D38B03C01A5241430B8B4201D34B0343
:1001B000C01A5241030B8B4201D30B03C01A5241A8
:1001C000C30A8B4201D3CB02C01A5241830A8B422D
:1001D00001D38B02C01A5241430A8B4201D34B0216
:1001E000C01A5241030A8B4201D30B02C01A52417A
:1001F000CDD2C3098B4201D3CB01C01A524183092E
:100200008B4201D38B01C01A524143098B4201D367
:100210004B01C01A524103098B4201D30B01C01A92
:100220005241C3088B4201D3CB00C01A524183080C
:100230008B4201D38B00C01A524143088B4201D339
:100240004B00C01A5241411A00D201465241104699
:100250007047FFE701B5002000F0F0F802BDC0468E
:100260000029F7D076E7704703460B437FD400227E
:1002700043088B4274D303098B425FD3030A8B423A
:1002800044D3030B8B4228D3030C8B420DD3FF22A4
:10029000090212BA030C8B4202D31212090265D072
:1002A000030B8B4219D300E0090AC30B8B4201D325
:1002B000CB03C01A5241830B8B4201D38B03C01A6C
:1002C0005241430B8B4201D34B03C01A5241030BE3
:1002D0008B4201D30B03C01A5241C30A8B4201D394
:1002E000CB02C01A5241830A8B4201D38B02C01A3F
:1002F0005241430A8B4201D34B02C01A5241030AB6
:100300008B4201D30B02C01A5241CDD2C3098B429A
:1003100001D3CB01C01A524183098B4201D38B0117
:10032000C01A524143098B4201D34B01C01A5241BA
:1003300003098B4201D30B01C01A5241C3088B42FF
:1003400001D3CB00C01A524183088B4201D38B00EA
:10035000C01A524143088B4201D34B00C01A52418C
:10036000411A00D201465241104670475DE0CA0F63
:1003700000D04942031000D34042534000229C4623
:1003800003098B422DD3030A8B4212D3FC2289012D
:1003900012BA030A8B420CD3890192118B4208D303
:1003A000890192118B4204D389013AD0921100E065
:1003B0008909C3098B4201D3CB01C01A5241830979
:1003C0008B4201D38B01C01A524143098B4201D3A6
:1003D0004B01C01A524103098B4201D30B01C01AD1
:1003E0005241C3088B4201D3CB00C01A524183084B
:1003F0008B4201D38B00C01A5241D9D243088B42A1
:1004000001D34B00C01A5241411A00D20146634643
:1004100052415B10104601D34042002B00D54942A7
:10042000704763465B1000D3404201B5002000F0E6
:1004300005F802BD0029F8D016E770477047C0469E
:100440008446101C62468C46191C634600E0C04678
:100450001FB501F0DFFC002801D40021C8421FBDF8
:1004600010B501F039FC4042013010BD10B501F06B
:10047000D1FC002801DB002010BD012010BDC046CA
:1004800010B501F0C7FC002801DD002010BD0120DF
:1004900010BDC04610B501F059FC002801DC002059
:1004A00010BD012010BDC04610B501F04FFC002862
:1004B00001DA002010BD012010BDC046002B11D173
:1004C000002A0FD1002900D1002802D00021C94301
:1004D000081C07B4024802A14018029003BDC046A0
:1004E0005DFFFFFF03B4684601B5029800F03CF8D9
:1004F000019B9E4602B00CBC7047C0469E2110B5C1
:10050000C905041C02F038FC002803D1201C00F0AF
:1005100039FD10BD9E21201CC90500F097FB00F09D
:1005200031FD80231B069C466044F2E770B5002233
:100530000C4B04000D00FFF7B7FF002804D120008A
:10054000290002F05FFA70BD064B0022200029004E
:1005500001F042FF02F056FA80231B069C466044DD
:10056000F1E7C0460000E041F0B557464E4645462B
:10057000DE46E0B5040083B00D00924699468B42FA
:100580002FD82CD04946504602F01EFC2900060008
:10059000200002F019FC331A9846203B9B4600D5F8
:1005A00074E053465A4693401F00534642469340D8
:1005B0001E00AF4229D826D05B46A41BBD41002BAC
:1005C00000DA79E0002200230092019301235A46C9
:1005D00093400193012342469340009319E08242E5
:1005E000D0D900220023009201930C9B002B01D054
:1005F0001C605D600098019903B03CBC9046994630
:10060000A246AB46F0BDA342D6D9002200230092F9
:1006100001934346002BE8D0FB0772081A43464675
:100620007B080EE0AB4201D1A2420CD8A41A9D4136
:10063000012024196D410021013E24184D41002E56
:1006400006D0AB42EED9013E24196D41002EF8D1FF
:100650005B460098019900196941002B22DB2B00B1
:100660005A46D3402A004446E2401C005B4615002F
:10067000002B2CDB26009E40330026004746BE4060
:100680003200801A994100900191AEE74246202342
:100690009B1A5246DA40414613004A468A401700E8
:1006A0001F4382E7424620239B1A2A0046469A406F
:1006B0002300F3401343D5E74246202300219B1A31
:1006C0000022009101920122DA40019282E7424623
:1006D000202326009B1ADE402F00B4469740664632
:1006E0003B003343C9E7C046F0B5C6464E02470259
:1006F000760A7B0A4400C50FF7004800984600B50B
:10070000240E2A00DB00000EC90FBC468D4267D0C4
:10071000221A002A00DCA5E000283AD1002F00D1DF
:1007200093E0511E002900D0BCE00124DB1B5A01DC
:1007300046D59B019E09300002F028FB0538864013
:10074000844200DD9DE0041B320020200134E240A1
:10075000041BA64033005E1EB341002413435A0716
:1007600004D00F221A40042A00D004335A0129D59C
:100770000134FF2C00D181E02A009B015B0AE4B226
:100780005B02E405580AD2072043104304BC90469C
:10079000F0BDFF2CE3D080213800C9040843844613
:1007A0001B2A00DD82E020206146D140821A60468B
:1007B00090400200501E82410A439B1A5A01B8D44D
:1007C0005A07CED1DE082A00FF2C3AD1002E00D1E4
:1007D000AEE08023DB0333435B025B0AFF24CFE7F9
:1007E000211A002952DD002831D0FF2CB7D08020FB
:1007F0003E00C0040643B4461B2900DDAAE02026C3
:100800006046C840711A66468E4031004E1EB141A6
:1008100001435B185901D3D50134FF2C00D187E087
:10082000012278491A405B080B40134397E7002CDC
:1008300000D0A7E0002B00D0B6E03B1E62D100261E
:10084000002273025B0AE4B29AE7140087E7002FE4
:100850004DD0481E002857D1634401245A01AFD51A
:100860000224DDE7002A24D1621CD2B2012ADEDD97
:10087000DE1B720135D5FE1A0D005CE72A0000234D
:100880007EE73300604A241A134068E7002963D1E9
:10089000611CC8B201284EDDFF2949D063445B08C2
:1008A0000C005CE7FF2A41D00A0079E701229B1A7D
:1008B00084E7002C1DD0FF2822D08024E40452427B
:1008C00023431B2A00DD8AE01C002025D440AA1AFD
:1008D00093405A1E9341234362460400D31A0D00ED
:1008E00025E7002E00D026E700220024A9E70C000F
:1008F00035E7002B4DD0D243002AEDD0FF28E0D1C0
:100900006346FF240D002AE7FF290FD0010073E79B
:10091000002B61D0FF24002F00D120E78022414628
:10092000D203114202D0164200D13B00FF2416E749
:10093000FF24002324E7002CEAD1002B58D0002FFD
:1009400000D10CE763445A0100D439E72E4A0C0069
:10095000134004E701215CE7002C1ED1002B40D09E
:10096000C94300290BD0FF2836D01B2947DC1C00C7
:100970002026CC40711A8B40591E8B41234363447F
:10098000040047E7002B18D13B1E2DD00D00FF249B
:10099000E5E63B0004000D00E1E6FF281CD08024C2
:1009A000E40449422343E0E7002F00D1D7E6DE1BF1
:1009B00072011FD5FB1A0D00D1E6FF24002F00D1D4
:1009C000CDE680224046D2031042AFD01642ADD1D0
:1009D0003B000D00FF24C2E66346FF24BFE601236F
:1009E0007AE73B000400BAE680260022F603F0E630
:1009F0003B00B4E6331E00D0E2E6002221E70123EB
:100A0000BDE7C046FFFFFF7DFFFFFFFBF8B5574680
:100A10004E464546DE46E0B54702460088467F0A18
:100A2000360EC40F002E47D0FF2E24D0FB008027A7
:100A3000FF041F43002399469A467F3E43465D02CA
:100A40005800DB0F6D0A000E984643D0FF283BD0BC
:100A5000EB0080250022ED041D437F383618731CFF
:100A600041469B464B46614013430F2B64D8754863
:100A70009B00C3589F46002F42D108239946063B4E
:100A8000FF269A46DAE74146022A28D0032A00D1F7
:100A9000CEE0012A00D0ACE0114000200022CCB210
:100AA0004002D205400AE407104320433CBC904674
:100AB0009946A246AB46F8BD002F15D104239946AE
:100AC000033B00269A46B9E7FF200222002DC5D03D
:100AD0000322C3E7002D19D100200122BEE7012423
:100AE000FF220C400020DBE7380002F04FF97626A9
:100AF000431F9F4000237642361A99469A469DE747
:100B00000C239946093BFF269A4697E7280002F0F6
:100B10003DF9431F9D4076235B42181A00229DE752
:100B200080200024C003FF22BAE73D005246ABE715
:100B30003D0021005246A7E73B0C9C462A04120CBC
:100B40002B0C1400604665463F043F0C7C43424337
:100B50005D437B43270C9B18FF18BA4203D98023BF
:100B60005B029C46654424043A04240C1219930148
:100B70005C1EA3413F0C920E7D191A43AD01154333
:100B80002B0104D501235E466A081D40154332003F
:100B90007F32002A25DD6B0704D00F232B40042B66
:100BA00000D004352B0103D53200274B80321D4085
:100BB000FE2A94DC0124A801400AD2B20C406FE75F
:100BC0008020C003074207D0054205D128434002D8
:100BD000400A4446FF2263E738434002400AFF22AE
:100BE0005EE70124A31A1B2B05DD0C400022002028
:100BF00056E75E46CBE72A002020DA40C31A9D4024
:100C00002B005D1EAB4113435A0704D00F221A403C
:100C1000042A00D004335A0104D5012401220C40D7
:100C200000203DE701249B01580A0C40002237E7D1
:100C300080200124C00328434002400A0C40FF22C8
:100C40002EE7C0464CA20008FFFFFFF7F0B54F4665
:100C5000D64646464400C0B5C20F47024802400A85
:100C6000844666467B0A4800C90F9A46240E150042
:100C7000DB00000E8946F600FF2800D18FE001213D
:100C80004F464F403900914266D0221A002A00DCBC
:100C90009DE000283DD1002E00D18BE0511E00299F
:100CA00000D0B5E001249B1B5A0144D59B019F094C
:100CB000380002F06BF805388740844200DD96E08A
:100CC000041B3A0020200134E240041BA7403B00F3
:100CD0005F1EBB41002413435A0704D00F221A4061
:100CE000042A00D004335A0127D50134FF2C00D147
:100CF00079E001229B015B0AE4B22A405B02E40531
:100D0000580AD207204310431CBC90469946A2467D
:100D1000F0BDFF2CE0D08021C9040E431B2A7BDCF0
:100D200031002020D140821A9640721E96410E4317
:100D30009B1B5A01BAD45A07D0D10122DF082A409E
:100D4000FF2C33D1002F00D1A8E08023DB033B43ED
:100D50005B025B0AFF24D1E7211A00294CDD002841
:100D60002AD0FF2CB8D08020C00406431B2900DD08
:100D7000AFE030002027C840791A8E40711E8E41A6
:100D800006439B195901D6D50134FF2C00D185E0CB
:100D900001227A491A405B080B4013439CE7002E5E
:100DA00000D070E76BE73B1EC5D100227B025B0AD7
:100DB000E4B2A3E714008FE7002E4DD0481E0028B0
:100DC00057D19B1901245A01B5D50224E0E7002A26
:100DD00025D1621CD2B2012A72DD9F1B7A0135D562
:100DE000F71A0D0064E7012200232A4086E73B0042
:100DF000634A241A13406FE700296CD1611CC8B202
:100E000001284EDDFF2949D09B195B080C0063E7E0
:100E1000FF2A41D00A0081E701269B1B89E7002CAD
:100E20001CD0FF2821D08024E404524223431B2AF3
:100E300000DD96E01C002025D440AA1A93405A1EDB
:100E400093412343F31A04000D002DE7002F00D037
:100E50002EE700220024A9E70C003DE7002B58D024
:100E6000D243002AEED0FF28E1D13300FF240D0049
:100E700032E7FF2910D0010078E7002B6ED0FF2465
:100E8000002E00D128E780225146D203114203D020
:100E90006146114200D13300FF241DE7FF240023E7
:100EA0002CE7002CE9D1002B63D0002E00D113E7F2
:100EB0009B195A0100D43EE7314A0C0013400BE75E
:100EC000002C1ED1002B2FD1002E4FD033000D004F
:100ED00002E7012655E7002C1FD1002B43D0C94360
:100EE00000290BD0FF2839D01B2944DC1C00202707
:100EF000CC40791A8B40591E8B4123439B19040027
:100F000040E7002B1AD1002E24D180270022FF03B6
:100F10001BE7330004000D00DEE6FF281ED080240E
:100F2000E40449422343DFE7002E00D1D4E69F1BAF
:100F30007A0100D437E7F31A0D00CDE6FF24002E26
:100F400000D1C9E680225046D2031042A4D06046A8
:100F50001042A1D133000D00FF24BDE63300FF2471
:100F6000BAE601236EE733000400B5E6002700224D
:100F70001CE73300B0E60123C0E7C046FFFFFF7D5A
:100F8000FFFFFFFB41024300C20F490A1B0E002076
:100F90007E2B0DDD9D2B0CDC802000040143952B66
:100FA0000ADC9620C31AD9404842002A00D1080022
:100FB0007047034BD018FBE7963B9940F4E7C046D7
:100FC000FFFFFF7F10B5041E27D001F0DFFE9E2338
:100FD0001B1A962B0ADC9622D21A94406402640AE9
:100FE000DBB26402DB05600A184310BD992B17DCE5
:100FF0009922D21A002A27DD94402200134C144073
:10100000510704D00F210A40042A00D004346201A1
:1010100012D4A401640ADBB2E3E700230024E0E772
:10102000B9222100D21A91400A00511E8A4105219D
:10103000091ACC401443DBE7044B1C409F23A40156
:101040001B1A640ADBB2CCE72200D7E7FFFFFFFBE5
:10105000F8B54546DE4657464E460C03E0B54E0011
:10106000C90F88460D00610A440F0C43C7001903DD
:101070005800DB0F9B464B0A510F0B43760D400D7A
:101080001900D200D84500D1AEE0351A002D00DCA1
:10109000F6E000280FD1134300D1DBE06B1E002BDC
:1010A00000D037E1BA1A9742BF41641A7F42E41B6D
:1010B0000126170024E0C64B9E424DD080231B041E
:1010C0001943382D00DD07E11F2D00DD38E1202018
:1010D000431B9A460B0050468340994613004846EE
:1010E000EB401843030050468240501E8241E940C5
:1010F0001A43BA1A611A9742A441170064420C1BA2
:10110000230262D56402650A002D00D1DFE02800C9
:1011100001F03CFE0300083B1F2B00DDD2E0202243
:101120003C00D21A9D40D4409F4025439E4200DDA2
:10113000C4E09E1B731C1F2B00DDF1E02022380051
:101140002900D21AD840914097402C000143781EC4
:101150008741DC4000260F437B0709D00F233B402B
:10116000042B05D03B1DBB42BF417F42E4191F0049
:1011700023022CD5964B01369E4200D19AE045467B
:10118000944BFF081C406007760564020743240B5C
:10119000760D00212403230B0C0D8F4A24051C43DC
:1011A0001440330523435B00ED075B082B433800F5
:1011B00019003CBC90469946A246AB46F8BD644631
:1011C000044300D111E2040067467B07C6D14546BF
:1011D0006007FF080743E4087D4B9E4230D024039C
:1011E0007605240B760DD4E7331A9A46002B78DD6A
:1011F000002831D076488642AED0802000040143DA
:101200005346382B00DCE9E00A43511E8A41002195
:10121000D219BA42BF4109197C4217000C192302A6
:10122000D3D56B4B01369E4200D13AE10120694B88
:101230001C407B0807401F43E007074364088BE717
:1012400023003B4300D1CBE180221203144324034B
:10125000240B9EE72E007FE70800104300D1B4E086
:10126000581E002800D0DEE0BA18BA429B4164182C
:101270005B42E418170001262302A6D50226D5E713
:10128000002D6ED1701C4005400D012800DCF9E0F6
:10129000B81A844687428041E51A40422D1A280236
:1012A00000D489E0D71BBA4292411C1B5242A51AB6
:1012B000D84629E74546002400276AE7454CF61A38
:1012C0002C4049E73D002838854000272EE73800AC
:1012D00001F05CFD20301DE70A43511E8A410021C8
:1012E00007E7002B00D0F3E0701C43055B0D012BDA
:1012F00000DCADE0364B984200D1D1E0BA18BA42DA
:10130000BF4164187F42E419E70752081743640895
:10131000060021E72E48854200D193E01D00D0E66B
:1013200029001F3EF140202B00D18DE04022D31A2E
:101330009D402F437D1EAF4100240F43002644E70C
:101340002B000800203BD8400300202D00D17DE079
:101350004020451BA9400A43511E8A4100211A43DF
:10136000C7E6002E50D01A4EB04257D080266B42AE
:101370009946360434434B46382B00DDD6E01F2B0C
:1013800000DD35E12026F51A2600AE40B2463E00CB
:10139000DE40AC46350056462E436546AF407D1EC6
:1013A000AF41DC403743D71BBA4292410C1B52423B
:1013B000A41A0600D846A3E6644667462C4300D02C
:1013C000A2E600250026002706E71E00C4E6C04668
:1013D000FF070000FFFF7FFFFFFF0F801F2B63DC75
:1013E0002020C31A080098409C46834653461000AC
:1013F000D84003005846184363469A40531E9A410A
:1014000053460243D94003E726003E4306D0EB4350
:101410009946002BC7D0944EB042ACD10C001700B7
:101420000600D84698E6904B9A450BD08246E7E6F0
:10143000002800D09EE01800104300D1E9E01C0015
:101440001700D846884E87E6002572E7002182E71C
:1014500023003B43002E00D0ABE0002B00D1E7E09F
:101460000B00134300D177E6BA18BA42BF416418A3
:101470007F42E419230200D4F2E07C4B17001C40A9
:10148000060069E620003843002ED1D100285BD148
:101490001C00144300D1A8E01C001700D8465BE6EE
:1014A00006000024002797E650460B002038C34072
:1014B00099465346202B00D195E0402350461B1AF5
:1014C00099400A43511E8A414B4600211A439FE628
:1014D000002E30D126003E4367D0DB439A46002BD6
:1014E0001CD0614EB04260D05346382B00DD96E0F0
:1014F0001F2B00DD9FE02026F31A26009E409C460D
:10150000B34653463E00DE4033005E461E4363460C
:101510009F407B1E9F415346DC403743BF18974294
:10152000924164185242A418060078E627437C1EB4
:10153000A741002437E74C4EB04236D080265B42AC
:1015400036049A463443CFE71800104300D103E62F
:10155000B81A84466745AD41E01A6D42401B05024A
:1015600000D42CE6D71BBA4292411C1B5242A41A4B
:10157000D846F1E51800104300D163E7F808670783
:1015800007438020E4080003044208D0DD08054238
:1015900005D1D208590711430F002C00D8467B0F04
:1015A000E4001C43FF00304ED6E50C001700060097
:1015B000D2E5002B38D00B00134300D142E7F808E6
:1015C000670707438020E40800030442E7D0CB0804
:1015D0000342E4D1D208490711430F001C00DEE7A3
:1015E00000270024D5E500216BE700250027F3E55F
:1015F0004E462500203EF5404B462E00202B2DD098
:101600004025ED1AAC4027437C1EA74100243743F8
:10161000C9E6802400252403134E0027DCE5274378
:101620007C1EA741002479E70C0017000E4E93E5BD
:101630000C00170090E556462300203EF3409946E3
:101640005346202B0ED0402356469B1B9C402743DD
:101650007C1EA7414B4600241F435FE70024D2E7CE
:101660001700B2E50024F2E7FF070000FFFF7FFF4D
:10167000F0B557464546DE464E46E0B54C000E03F3
:1016800087B0834692461D008046360B640DCF0F0F
:10169000002C4FD06F4B9C4235D08023420F1B044F
:1016A000F600134333439946C30098466A4B00261D
:1016B0009C460023644403932B031B0B9B466B0047
:1016C000ED0F50465B0D01955ED0624A934253D0B8
:1016D0005A46D1008022400F120402430A43934627
:1016E0005246D1005C4A9446002263443800684068
:1016F00084460290E41A16430F2E00D9B4E0574BEB
:10170000B6009B599F460300334399466CD1002392
:101710009846023308260393CEE7CB464146039A08
:101720000197022A65D1019B4A4C9C460023002266
:1017300098466BE00300334399464ED0002E00D10B
:10174000BCE1300001F022FB03000B3B1C2B00DD51
:10175000ACE11D22D31A5A460100DA4008398E4006
:101760001300334399465B468B40984600233C4C1C
:101770000026241A03939FE751465A46114329D164
:10178000002293460232B1E7594601431ED05B4620
:10179000002B00D19EE1584601F0F8FA03000B3B04
:1017A0001C2B00DD8FE102005946083A91408B4620
:1017B0001D21CB1A5146D9400B0059460B435146C7
:1017C0009B469140264B00221B1A8FE700230122E3
:1017D0009B468BE75146032288E700239846013356
:1017E00004260024039367E70323B14603930C26E2
:1017F00062E7032A00D15CE2019B012A00D0E4E108
:1018000013409C4600230024002298460021120326
:10181000130B0A0D12051A432305124C40462240B1
:10182000134362465B00D2075B081343190007B0FD
:101830003CBC90469946A246AB46F0BD00238022B0
:101840009C4612039846034CE0E70023014C00221B
:101850009846DBE7FF07000001FCFFFF8CA20008B1
:101860000DFCFFFFFFFF0F80D94500D939E100D102
:1018700034E1002346464D469A46013C5B460A0E3B
:101880001B021A430B02170C039313041B0C3900A1
:10189000280090460193FEF75DFC0200019B834601
:1018A0005A43280039009146FEF7DAFC350C09044A
:1018B0000D43A9450DD95B464544013BA84500D9D8
:1018C0003AE1A94500D837E102235B429C464544F2
:1018D000E3444B46EB1A390018000493FEF73AFC38
:1018E000019B05004343390004989946FEF7B8FC74
:1018F000330409041B0C0B43994509D943446A1E60
:10190000984500D91AE1994500D817E1023D4344B2
:101910004A469B1A5A4612042A4303999346100CCE
:101920000A0C914609045A46090C4E460D00120451
:10193000120C4543059151437243704352190E0CEA
:10194000B218954203D980256D02AC466044150C4F
:1019500009041204090C28185218834200D2CEE060
:1019600000D1C8E01D1A53469E1AB2459241524218
:10197000AB1A9A46984500D117E139001800FEF7D6
:10198000E9FB019B05004343390050460493FEF7F1
:1019900067FC04980B04310C1943884209D941446F
:1019A0006B1E884500D907E1884200D804E1023D5A
:1019B0004144049BCB1A180039000493FEF7CAFB7C
:1019C000019B82464343390004980193FEF748FC8B
:1019D00001980B043104090C194388420DD9534670
:1019E0004144013B884500D9E8E0884200D8E5E061
:1019F00002235B429C464144E244019B2D04CE1AE3
:101A000051462943059D4F462A000B04080C1B0C28
:101A10005A4345437B4378435B19170CFB189D429F
:101A200003D980256D02AC4660441D0C12041B04D2
:101A3000120C28189B18864200D293E000D18EE049
:101A400001231943A04BE318002B00DC99E04A075F
:101A500000D09EE05A46D20106D55A469B4B1A400A
:101A600080239346DB00E318994A934268DD012303
:101A7000029A984C1A400023944698460022C5E6E4
:101A800080224B46120313420AD05B46134206D112
:101A90001A431203120BAC4688468E4CB6E64B46F0
:101AA0001A431203120BBC468A4CAFE603005A4697
:101AB000283B9A4000239146984657E6584601F045
:101AC00065F9203040E603005246283B9A40002149
:101AD000934677E601F05AF920305FE6884500D258
:101AE000C7E64B46DE075D0843465B081E43434698
:101AF000DB079A46C2E60025924500D333E7039EF2
:101B00005946B446E244B245AD416D424544EB18F6
:101B10000139984507D2984200D97FE000D1BCE056
:101B20001D1A8B461FE79845FAD1039D5545F2D9FA
:101B300043468B461D1A16E79B46CAE61500E7E6A4
:101B40005A46C90852070A435B0590465C0D5A463F
:101B50000123029952021940120B8C4656E6002BC3
:101B600000D16FE746444A1EB04529D9110086428C
:101B700000D065E7039A934200D061E762E7012154
:101B800049420120C21A382A21DD029B03409C46AB
:101B900038E60F220A40042A00D15BE70A00111D33
:101BA000914292415242934454E7474BE318002B31
:101BB000E5DD01225242F2E71D00FAE69A461CE7F3
:101BC000B04239D86ED011003AE702933AE71F2AA3
:101BD0003CDC20239B1A0C005846994098404B1E31
:101BE00099415B46D440D340204308431A00430741
:101BF00009D00F230340042B05D00100081D8842A3
:101C00009B415B42D21813023AD50123029A012468
:101C10001A400023944698460022F7E502214942E3
:101C20008C46039DE344AC46E244AA45AD416D4277
:101C30004544ED182D1A96E68A1E03994D008D42F3
:101C4000894149424144761803958FE71F2040425D
:101C5000C31A5846D8400300202A28D040205D46A9
:101C6000821A954029434A1E9141194307230022B5
:101C70000B4009D00F2300220B400800042BBDD1DC
:101C8000010053075202120BC90819430123884669
:101C90000299002419408C46B8E55245BED88B46BF
:101CA000002560E6039D9D42C6D3110062E7002532
:101CB000D8E780225B4612031A43019B1203120BE2
:101CC0009C468846034CA1E5FF030000FFFFFFFE92
:101CD000FE070000FF070000F0B54F464646D64617
:101CE0005C00C0B51F03DB0F9A46174B0E034D0077
:101CF00084468046360B6D0DC90F91463F0B640D2F
:101D000001209D4208D09C4201D0A5420BD01CBCB2
:101D100090469946A246F0BD63463343F7D1AC42A4
:101D2000F5D13A43F3D10120BE42F0D1C845EED1FE
:101D3000514507D0002DEAD163461E433000461EB0
:101D4000B041E4E70020E2E7FF070000F0B54546B8
:101D5000DE4657464E46E0B51F033D0B2C4F0E03A3
:101D60004C00AB465D008446360B640DC90F9046AF
:101D70006D0DDB0FBC422AD0254FBD422DD0002C6B
:101D80000FD130430700814678427841C0B2002D20
:101D900017D15F463A4314D14B460020002B0AD09E
:101DA00006E0002D02D15846024301D0994218D0D6
:101DB0004842012108433CBC90469946A246AB46A6
:101DC000F0BD0028F2D00120013B1843F3E73700B3
:101DD0000743D1D002204042EDE75F461743CED003
:101DE000F8E7AC42E4DC03DA481E01210843E2E7ED
:101DF0005E45DDD806D000205E45DCD20123481EBA
:101E00001843D8E7C445D3D80020C445F6D3D2E759
:101E1000FF070000F0B54E464546DE4657465C00DB
:101E2000E0B51F03DB0F99462A4B0E034D00C90F87
:101E30008446360B6D0D8B4690463F0B640D9D42DC
:101E400020D0244B9C4222D0002D12D1304343425B
:101E50004341DBB2002C1FD0002B0CD04B4601209D
:101E6000013B034318003CBC90469946A246AB4652
:101E7000F0BD002C16D0CB4517D05B46594201234C
:101E80000B43EFE7310002230143EBD1D9E73900DF
:101E900002231143E6D1D7E73A43DDD100230028DE
:101EA000E0D0EAE73A43E6D1E7E7A542E5DC05DB27
:101EB000BE42E2D807D00023BE42D3D25946012306
:101EC00001390B43CEE7C445D7D80023C445F5D329
:101ED000C8E7C046FF070000F0B557464546DE4656
:101EE0004E46E0B50C0398464E00230B87B0070022
:101EF00092469B46760DCD0F002E6BD06D4B9E42C9
:101F000035D080245B46420F2404DB0014431C437D
:101F1000C3009946684BA3469C46002300276644AD
:101F2000029343461C035A00DB0F5046240B520D0C
:101F3000984600D176E05F4B9A426DD08023410FE6
:101F40001B040B435C49E4008C461C43C300002087
:101F500062444146B6186940721C01919446074399
:101F60000F2F00D9B0E0554ABF00D25997465B46C3
:101F70000343994600D087E000239B46023308279D
:101F80000293CEE742460192022867D0032800D18F
:101F90000EE2012800D062E10023002400229946CD
:101FA00001990140CDB2002112030B0D120B1B054C
:101FB0001343434A240513401C436400ED0764089F
:101FC0002C434846210007B03CBC90469946A246A7
:101FD000AB46F0BD034399464FD05B46002B00D182
:101FE00089E1584600F0D2FE03000B3B1C2B00DDBC
:101FF0007AE11D22D31A3A0001005C46DA40083922
:102000008C4013008F4023439B46B94600232D4E3E
:102010000027361A029384E7534623432AD100242B
:10202000022096E75346234320D0002C00D157E1ED
:10203000200000F0ABFE03000B3B1C2B00DD49E150
:102040001D21CB1A51460200D9405346083A94400C
:1020500093400C431B4A121A00207AE70125019B8A
:10206000144C1D400023002299469CE700240022C6
:1020700001206EE7534603206BE700239B460133A4
:102080000427002602934CE7032381460C27029382
:1020900047E780220023002512039946054C82E77A
:1020A0005C464B4602986FE75C464B4601950298AA
:1020B0006AE7C046FF07000001FCFFFFCCA2000852
:1020C000FFFF0F800DFCFFFF4A464946170C1A0C14
:1020D0001B041B0C08041900000C41431500884622
:1020E00019007D437943039589462900150045432E
:1020F0004D44029545462D0CAA46029D5544A945DE
:1021000006D98A46802149028946CA44514603912C
:10211000290C0491414609042D04090C8846290024
:10212000250C24044144240C059121004143884698
:10213000210079438A466843414650448146080C51
:1021400048446F43824503D98021490289464F4460
:10215000010C894639004944029141460F04049913
:102160003F0C88460004C0198044414604915946FA
:102170000F0C0904090C884659438A46390051431B
:10218000894641464A435146090C8B467B43D21847
:102190005A44934203D980235B029B46D94451465B
:1021A0000904090C8A46414661437C43130C12041E
:1021B0004B445244A1468A463C0041466C434D4341
:1021C00051464D440F0C7D19A94503D98021490280
:1021D00088464444049F0399B84641448B4683454E
:1021E000804141428846514608042F04000C3F18A4
:1021F0005846029910188946904292414F44BA4677
:10220000524299469346C244D144CB448F42BF4187
:10221000C245894199459B41934592417F4249423C
:102220002D0C52420F435B4213437F19FF185B464C
:102230003C19DB0D059A64021C43430213435D1EE7
:10224000AB415A46C00D034352021343E20156D537
:1022500001205A0803401343E207134364085A4815
:10226000604400284DDD5A0709D00F221A40042A85
:1022700005D01A1D9A429B415B42E4181300E2010B
:1022800004D58020514AC00014406044504A904216
:1022900000DDE3E60125DB0862071A436402019BC7
:1022A0009146220B4405640D1D407CE68022594670
:1022B0001203114208D0144206D122431203120B1A
:1022C00045469946434C6EE65B461A431203120B91
:1022D000404C68E603005446283B9C400023B9E686
:1022E00000F054FD2030A6E60300283B9F40002369
:1022F000BB4699468AE600F049FD203074E6B446B4
:10230000ADE701252A1A382A06DD019B00241D406D
:1023100000230022994646E61F2A21DC20252000C2
:10232000AD1A1E00AB40A840D6405D1EAB41304305
:102330001843D440430709D00F230340042B05D092
:102340000300181D98429B415B42E418230221D5EB
:102350000125019B01241D4000230022994622E60D
:102360001F2521006D42281AC1400800202A1DD0D7
:102370005F35AA1A944023435C1EA34107250343FB
:102380001D400022002D09D00F2200241A40180001
:10239000042AD6D1030065076402220BDB082B4315
:1023A00001259946019B00241D40FCE50024E2E73D
:1023B000802201251203224301991203120B0D40C2
:1023C0009946044CEFE5C046FF030000FFFFFFFE07
:1023D000FE070000FF070000F0B54646D6464F4610
:1023E0000C03C0B5CD0F4E00610A440F0C43C10071
:1023F0005800400D84468A460F001903500F490AC1
:102400000143C648760DA846DB0FD200844500D1B3
:10241000D8E001204340AB4200D1A6E06046351A27
:10242000002D00DC05E1002810D10B00134300D182
:10243000D7E06B1E002B00D04BE153469F1ABA45E4
:102440008041641A4042241A01261EE0B34B9E428A
:1024500048D080231B041943382D00DD19E11F2DBE
:1024600000DD4CE120230F005B1B10009A409F40D1
:10247000E840531E9A41E940074317435346DF1B88
:10248000611ABA45A44164420C1B230200D4C5E082
:102490006402650A002D00D1F6E0280000F076FC09
:1024A0000300083B1F2B00DDE9E020223C00D21A8C
:1024B0009D40D4409F4025439E4200DDDBE09E1BB3
:1024C000731C1F2B00DD0AE120223800D21A2900DC
:1024D00097402C009140D8407A1E9741DC4000265E
:1024E00001430F437B0709D00F233B40042B05D04A
:1024F0003B1DBB42BF417F42E4191F00230225D58B
:10250000864B01369E4200D1AFE0854B01251C4031
:1025100043466207FF08640276051743240B760DD5
:102520001D4000212403230B0C0D7E4A24051C436F
:102530001440330523435B00ED075B082B43380051
:1025400019001CBC90469946A246F0BD01254346A1
:102550006207FF081743E4081D40704B9E4236D0C7
:1025600024037605240B760DDBE76346F31A002B74
:1025700000DC94E06046002835D068488642B1D03F
:1025800080273F043943382B00DCFDE00A43170065
:1025900000217A1E9741574457458041091944420A
:1025A0000C1923023AD55D4B01369E4200D14BE116
:1025B00001225B4B1C407B0817401F43E207174377
:1025C00064088FE70800104300D024E721E72300C8
:1025D0003B4300D1B9E18022120314432403240BAE
:1025E0009FE72E007EE70800104300D1CAE0581E86
:1025F0008446002800D0E7E05244524580416418E8
:102600004042241817000126230207D50226CFE7EF
:1026100064462C4300D1B3E12C0067467B0700D011
:1026200062E76307FF081F4301254346E4081D4096
:1026300093E7002D78D1751C6D056D0D012D00DC23
:10264000F2E05046801A8245BF41651A7F42ED1B79
:102650008446280200D48CE05046171ABA429241B0
:102660000C1B5542651B984614E701254346002480
:102670001D40002755E72A4CF61A2C4032E73D0052
:1026800028388540002717E7380000F07FFB20300E
:1026900006E70A43170000217A1E9741EEE6002B59
:1026A00000D0E5E0731C9C465B055B0D012B00DC54
:1026B0009FE01A4B9C4500D1C5E0524452458041F1
:1026C000641840422418E707520817436408664616
:1026D00008E71248854200D185E01D00BCE62900CC
:1026E0001F3EF140202B00D17FE04022D31A9D40B5
:1026F0002F437D1EAF4100240F4300268EE72B00A1
:102700000F00203BDF40202D71D040235D1BA940EE
:102710000A43511E8A4100211743AFE6FF0700001C
:10272000FFFF7FFFFFFF0F80002E3ED0B34EB4456A
:1027300045D0802636046D423443382D00DDA8E0B4
:102740001F2D00DD1FE1202627005046761BB740D5
:10275000E84007435046B040461EB041EC40384385
:10276000171ABA4292410C1B5242A41A6646984666
:102770008BE6644667462C4300D08BE60025002696
:102780000027EAE61E00ADE61F2B60DC2027F81AC2
:102790000F00844687401000D840074360468240BF
:1027A000501E8241D9401743F5E6260050460643A5
:1027B00005D0ED43002DD3D0904EB445BDD10C00D3
:1027C0001700664698468DE68C4883420BD06346D8
:1027D000D9E6002D00D096E00800104300D1E2E0D9
:1027E0000C0017009846854E7CE6002580E7002106
:1027F0008EE7230050460343002E00D0A8E0002BB4
:1028000000D1DEE00B00134300D16BE65244524589
:1028100080416418404224181700230200D4FDE6CA
:10282000774B66461C405DE6250050460543002E6A
:10283000CFD1002D4FD10C00144300D1A0E00C00EB
:10284000170098464EE666460024002785E61F00DE
:102850000800203FF8400700202B00D18EE04020E8
:10286000C31A99400A43511E8A410021174392E638
:10287000002E14D126005046064362D0DB43002BC5
:102880005CD187189742924164185242A418664658
:1028900087E650462043441EA041002460E7574E7F
:1028A000B4454ED0802636045B423443382B00DDDD
:1028B0007FE01F2B00DD8BE0202627005046F61A14
:1028C000B740D84007435046B040461EB04107438A
:1028D000DC40BF18D6E70D00154300D102E6504694
:1028E000801A8245BF41651A7F42ED1B844628024B
:1028F00000D48DE65046171ABA4292410C1B524240
:10290000A41A9846EEE50D00154300D16BE750463A
:102910006707C00807438020E4080003044207D08B
:10292000CD08054204D12C009846D70849070F432B
:102930007B0FE4001C43FF00304ED3E52F4EB4451F
:10294000B4D10C0017006646CCE500270024E8E56A
:10295000002B39D00B00134300D144E7C0086707B0
:1029600007438020E40800030442E1D0CB0803427F
:10297000DED1D70849070F431C00D9E7002171E7D2
:1029800000250027E9E52E002700203EF740202DF6
:102990002FD04026751BAC4050462043441EA0411A
:1029A00000243843DCE6802400252403134E00274E
:1029B000D3E5504620430700781E87410024BF1806
:1029C00060E70C0017008DE50C0017000B4E89E541
:1029D0001E002700203EF740202B0CD04026F31A83
:1029E0009C4050462043441EA04107430024BF188A
:1029F00048E70024D0E70024F3E7C046FF070000C3
:102A0000FFFF7FFF30B5134D0A034B00120B5B0D28
:102A1000C90F0024AB4210DD0F4CA3420FDC802411
:102A20000E4D64032243ED1A1F2D0BDD0C48C31A13
:102A3000DA405442002900D11400200030BD094B77
:102A4000CC18FAE7084CE840A44663449A40024395
:102A5000EFE7C046FE0300001D0400003304000041
:102A600013040000FFFFFF7FEDFBFFFF70B50028A0
:102A700030D0C317C4185C40C50F200000F086F9A1
:102A8000174B184A1B1AD21A1F2A18DD164AD21AD7
:102A90009440002224035B05240B5B0D00211000F1
:102AA00024030A0D240B12052243104C1B0522405F
:102AB00013435B00ED075B082B43190070BD210039
:102AC00091400A000B21081AC4405B052403240B23
:102AD0005B0DE3E70025002300240022DEE7C0466B
:102AE0001E0400003304000013040000FFFF0F80E9
:102AF00010B5041E28D000F049F9154B154A1B1AD1
:102B0000D21A1F2A15DD144AD21A94400022240337
:102B10005B05240B5B0D0021100024030A0D240B20
:102B2000120522430D4C1B05224013435B0059083C
:102B300010BD210091400A000B21081AC4405B051A
:102B40002403240B5B0DE6E7002300240022E2E7C8
:102B50001E0400003304000013040000FFFF0F8078
:102B60004100090E4B1C70B5DBB24602750AC40F5A
:102B7000012B14DDE0239B006D07360BCB180021E1
:102B80000A0D280012051C4D32435B052A405B08E4
:102B900013435B00E4075B082343190070BD002961
:102BA00014D1002D1ED0280000F0F0F80A281CDCFB
:102BB0000B232A001B1ADA40030015339D400F4BEC
:102BC00012031B1A5B05160B5B0DD8E7002D06D010
:102BD000320B802636036D071643094BCFE7084BAF
:102BE0000026CCE700230026C9E703002A000B3BA0
:102BF0009A400025E3E7C046FFFF0F8089030000ED
:102C0000FF070000F0B54C00640D0B03621C450F7C
:102C10005B0A52052B43C90FC500520D012A28DD5E
:102C20003A4AA618FE2E1BDC002E3EDD8001020073
:102C3000501E82416D0F2A43DB0013435A0704D014
:102C40000F221A40042A00D004338022D2041A40F2
:102C50005AD00136FF2E03D09B015B0AF4B201E08B
:102C6000FF2400235802E405400AC9072043084313
:102C7000F0BD002C07D01D43F2D08020DB00800483
:102C80000343FF26DAE72B4303D00523DB08FF2CA1
:102C900003D05B025B0AE4B2E4E7002B32D0802071
:102CA000C00303435B025B0ADCE73200173214DB2C
:102CB00080221E2712041343BF1B1F2F0FDC144A50
:102CC000944664442A00A5402E00A340751EAE41E0
:102CD000FA40334313430026B0E70024D5E702222D
:102CE0005242961B1A00F240202F09D00948844610
:102CF0006444A3402B435D1EAB41002613439DE774
:102D00000023F7E70023ADE73400BFE780FCFFFFB7
:102D100082FCFFFFA2FCFFFF8446081C6146FFE720
:102D20001FB500F0C3F8002801D40021C8421FBD20
:102D300010B500F055F84042013010BD10B500F05C
:102D4000B5F8002801DB002010BD012010BDC046F1
:102D500010B500F0ABF8002801DD002010BD012007
:102D600010BDC04610B500F061F8002801DC00205D
:102D700010BD012010BDC04610B500F057F8002866
:102D800001DA002010BD012010BDC0461C21012326
:102D90001B04984201D3000C10391B0A984201D33E
:102DA000000A08391B09984201D30009043902A21C
:102DB000105C40187047C046040302020101010183
:102DC000000000000000000010B5002903D1FFF74B
:102DD000DDFF203002E0081CFFF7D8FF10BDC04621
:102DE00070B5420045024E024C00C30F6D0A120E30
:102DF000760A240EC90F0120FF2A06D0FF2C03D02B
:102E0000A24201D1B54206D070BD002DFCD1FF2CED
:102E1000FAD1002EF8D18B4206D00120002AF3D13E
:102E20002800451EA841EFE70020EDE7F0B542007D
:102E300045024C02C30F48006D0A120E640A000ED0
:102E4000C90FFF2A1ED0FF2821D0002A0AD16E42C6
:102E50006E41F6B200280FD1002C0DD10020002DBC
:102E600009D005E0002801D1002C01D08B4211D0FF
:102E7000012158420843F0BD002EF7D0012001394E
:102E80000843F8E7002DDED002204042F3E7002C93
:102E9000DBD0F9E78242EBDC04DBA542E8D8002076
:102EA000A542E8D20121581E0843E4E7F0B54200EC
:102EB0004D024C004602760A120EC30F6D0A240E14
:102EC000C90FFF2A16D0FF2C18D0002A0AD1704251
:102ED0007041C0B2002C15D0002805D00120013966
:102EE0000843F0BD002C13D0994214D001205B425E
:102EF0001843F6E70220002EF3D1E4E70220002D6C
:102F0000EFD1E2E7002DE7D10020002EE9D0EDE778
:102F1000002DE9D1EAE7A24206DCDFDBAE4203D8AE
:102F20000020AE42DAD3DCE7012049420843D8E76B
:102F300070B50500FA200D4B80001978FDF70AF9ED
:102F40000B4B01001868FDF705F900F0D1FB0400F8
:102F50000120002C09D1032D07D8023822002900B6
:102F600000F08CFB2000034B1D6070BD00000020B2
:102F70005C000020040000204023084A10B51168BE
:102F800000200B431360FFF7D3FF041E03D103F0AF
:102F900043FD200010BD0124FBE7C0460020024095
:102FA000034A044B11681B785B1813607047C046D6
:102FB0005803002000000020014B18687047C046ED
:102FC0005803002070B50400FFF7F6FF0500631CEE
:102FD00002D0044B1B78E418FFF7EEFF401B84423D
:102FE000FAD870BD000000200221024A13688B430A
:102FF0001360704710E000E00223024A11680B439F
:103000001360704710E000E0084B13B50400084956
:103010001868FDF79FF844430194019B002B00D1F1
:1030200013BD019B013B0193F7E7C0465C00002004
:1030300040420F000321036870B5040098680840FF
:10304000012801D0002070BD1A680242FAD0052282
:103050009D681540012D19D10222986802439A609B
:103060001960FFF7A9FF060023689B682B42E9D08F
:10307000FFF7A2FF801B0A28F6D91023626D0120FA
:1030800013436365A36D1D43A565DCE71023626DE3
:1030900013436365A36D0343A365D4E7032103686A
:1030A00070B59A6804000A40012A0DD119681142CE
:1030B0000AD0002070BD10230120626D13436365A8
:1030C000A36D0343A365F5E799680F4A1142F2D156
:1030D00001259A6828002A439A60FFF795FFFFF7B9
:1030E0006BFF060023681B682B42E2D1FFF764FFE9
:1030F000801B0A28F6D91023626D012013436365F3
:10310000A36D1D43A565D5E7170000800422036861
:1031100070B599680400114201D1002070BD996812
:10312000114206D09A68920703D4102299680A4384
:103130009A60FFF741FF0425060023689B682B4235
:10314000EBD0FFF739FF801B0A28F6D910230120A6
:10315000626D13436365A36D0343A365DEE700005F
:1031600070B504000120002C19D0636D002B06D12E
:1031700022005032A3652000137003F05BFC636DE6
:10318000DB0604D4042223689868104008D010237A
:10319000626D01201343636500235034237070BDBA
:1031A000626D5549114002220A4362650322996803
:1031B0001140524A012902D11D680D4219D18026C1
:1031C0006568F60569004908B14203D08021090607
:1031D0008D4276D1196989008908196119690D43F1
:1031E0001D611825D968A943D960D968A568294304
:1031F000D9601168424D29401160616B156849061C
:1032000029431160802299685205114202D19968C0
:103210000A439A60DA683B490A402169DA60DD684E
:10322000E268022900D10420266B611C32432A4344
:10323000A569C97FAD032A43E569ED032A434D0320
:103240002A4325002C352D786D002A430243C220E5
:10325000DA60626AFF30824204D0A56AD8682A43E5
:103260000243DA60A21CD27F012A06D1002934D1A0
:103270008022D96852020A43DA60E16B1A69012997
:1032800033D12148656C02401A61226C18692A43C7
:10329000A56C2A4302431A611A6911431961072177
:1032A0005A6900208A435A615A69A16B0A435A61DC
:1032B0000322A065636D93431A00012313436365E2
:1032C0006DE71969114E890089081961116831404B
:1032D000116011680D43156083E72021606D014383
:1032E0006165A16D0A43A265C7E701210A42D6D0F4
:1032F0001A698A431A61D2E7FDFEFFFF08270140E1
:10330000FFFFFFFD1902FEFF03FCFFFFFFFFC3FFEE
:1033100070B504000125002811D00223426D13432B
:103320004365FFF7F3FE051E37D12000FFF782FE4D
:103330000500012805D10125002350342370280001
:1033400070BD01236365236815495A6820000A404F
:103350005A60144A14491A609A680A409A60DA68F6
:1033600012490A40DA601A6911490A4007211A61B4
:103370005A698A435A611A6A0E490A407F211A62C1
:10338000B4331A688A431A601A688A431A6003F0D1
:103390007BFB0023A3656365CEE70128CBD0D2E792
:1033A00060F7FFFF9F080000FFFFFFEF00023E8372
:1033B00002FCFF3F00F000F0036870B59B6804005A
:1033C00002205B071AD4250050352B78012B15D02D
:1033D00001232B70E369012B11D1636D0B4A00208F
:1033E0001A4080235B0013431C2263652368A06599
:1033F00028701A609968183A0A439A6070BD2000D4
:10340000FFF74CFE0028F9D1E7E7C046FEF0FFFFCA
:1034100070B506005036337804000220012B12D01C
:10342000012520003570FFF771FE002809D120002A
:10343000FFF700FE002804D1636D034A13401D43CB
:1034400065650023337070BDFEFEFFFFF8B545696A
:1034500004000E00082D0DD003680120DB680C2548
:10346000034207D02023626D50341343636000236E
:103470002370F8BDFFF7A0FD070023681A682A42F1
:1034800024D08022616D92000A436265C022D9680F
:103490001201114213D1621CD27F002A0FD11A6887
:1034A00012070CD59A68520723D40C215A688A4314
:1034B0005A60626D1349114001220A43626500207F
:1034C000A2698242D5D10C221A60D2E7721CD5D0F3
:1034D000002E08D10423626D50341343636000232F
:1034E00003202370C5E7FFF767FDC01B8642C4D2E7
:1034F000F0E72022616D0A4362650122A16D0A4353
:10350000A265DCE7FEFEFFFF0368186C7047000051
:1035100070B504005034237806000D000220012B02
:103520000BD032680138916820704B0706D52022F5
:10353000716D0A4372650022227070BD802022499D
:103540006E682B68C0028E4223D0966A5903490BDD
:1035500031439162034208D080231C4A1B04116846
:103560000A200B431360FFF74FFD2A68930305D52C
:1035700080231649DB03086803430B60D30305D59A
:103580008023124A5B0411680B43136000202070F3
:10359000D3E7916A5D036D0BA9439162034204D0A6
:1035A0000A490B480A6802400A609A0304D5074991
:1035B00008480A6802400A60DB03E7D5034A064967
:1035C00013680B40E1E7C0460110000008270140E6
:1035D000FFFF7FFFFFFFBFFFFFFFFFFEF8B5050006
:1035E00050352B7804000220012B3FD00123032209
:1035F0002B70236898681040012802D11A68024293
:1036000035D1626D1C49114002220A4303216265D3
:10361000DE68DA688A43DA608022996812060A4313
:103620009A60FFF7C9FC070023689A68002A0EDB3E
:103630000322D96816400E43DE60636D0020934379
:103640001A0001231343636500232B700EE0FFF77C
:10365000B3FCC01B0A28E7D91222636D01209343F3
:103660001A0010231343636500232B70F8BD202339
:10367000626D13436365E7E7FDFEFFFF70B58901E7
:10368000002814DA0F23C0B20340083B114A9B08FC
:103690009B009B18032210409040FC321500114003
:1036A00085408140DC69AC432143D96170BD03256D
:1036B00083082840A840FC352E00074A9B009B1831
:1036C000C02286402940814092009C58B443214347
:1036D0009950EBE700ED00E000E100E01F23184007
:1036E0001E3B8340014A13607047C04600E100E082
:1036F000094A431E012093420DD8C021074A0848B9
:103700005360036A09061B021B0A0B430362002075
:103710000723906013607047FFFFFF0010E000E098
:1037200000ED00E0F0B5584A0B688218541EA24123
:1037300087B004930023053203910592049ADA407E
:1037400001D107B0F0BD012637009F40049A3A40EE
:10375000029200D195E0039A526801921022019DD5
:1037600095436A1EB24213D8032459008C408C46FC
:1037700082680399A243CC6861468C4022438260F0
:10378000019A4468120932409A40BC432243426085
:1037900003225F00BA400399D2438C68C668BC40DC
:1037A00016403443C460022D0ED10F2105351D4053
:1037B000AD00A940DC08A4000419266A8E430399D1
:1037C0000969A9400E432662032604682240019C31
:1037D0003440BC4022430260019AD20051D51D0002
:1037E0000F2701213540AD00AF40284C8C46626B5D
:1037F0000A436263264A9C08A400A418A268BA433C
:10380000A0271100FF050022B84210D0214F6246C8
:10381000B8420CD0204F9218B84208D01F4F320047
:10382000B84204D01E4E6244B04200D0059AAA406D
:103830000A430299A2600D001A4ACC431668019906
:103840003543C90301D43500254015605668029DF3
:1038500001993543890301D43500254055609668A8
:10386000029D01993543C90201D435002540956078
:10387000D568029E01992E43890201D425402E006D
:10388000D66001335AE7C04600E4FFAF00100240A3
:10389000000001400004005000080050000C0050DF
:1038A0000010005000040140384AF0B58218541E40
:1038B000A241002387B0053205920A00DA4001D107
:1038C00007B0F0BD01273A009A4001920A400292E7
:1038D00059D02F4A9C08A400A418A2681D00160005
:1038E00003221540AD000C32AA40039232400492EC
:1038F000A022D20594460022604511D0254A944664
:103900003A0060450CD0244F9218B84208D0234F9B
:103910000132B84204D0224E0132B04200D0059AA2
:10392000AA40049D954212D1029E1E4AF643156894
:10393000354015605568354055609568354095604F
:10394000D5682E40D660A268039DAA43A2600322D8
:103950005D00AA4007250F271D40AD00AF40D543AD
:10396000046814430460DC08A4000419266A019A60
:10397000BE432662C4682C40C460446894434460DB
:1039800082682A408260013397E7C04600E4FFAFB7
:10399000000001400004005000080050000C0050DE
:1039A000001000500004014000690840411E884199
:1039B000C0B27047002A01D0816170478162FCE784
:1039C000044B10B55A69104202D0586103F016F842
:1039D00010BDC0460004014003689A69920701D5F2
:1039E00000229A6201229969114202D199690A431F
:1039F0009A61704770B5049E89053343890D194358
:103A000080230468DB00700D1840044B65681204C5
:103A10001843854311432943616070BDFF63FF0371
:103A2000F8B504000E0017001D00226893693340AA
:103A30009B1B59424B41BB4201D0002017E06B1C3D
:103A4000F4D0FFF7B9FA069BC01A854201D3002DC6
:103A5000EBD12022636C01201343636423004133C4
:103A60001A70220000234232403413702370F8BDD4
:103A7000F8B503680400986910230E001700184079
:103A80002025002818D1F8BD721C16D0FFF794FA33
:103A9000C01B864201D3002E0ED12022636C13433B
:103AA0006364230041331A70220000234232403401
:103AB000137001202370E6E723689A692A42E3D055
:103AC00010222000DA61DD61FFF786FF22680649D7
:103AD00053680B4053600423626C134363642300F8
:103AE00041331D70E0E7C04600E800FEF8B5040071
:103AF0000D001600022723689B693B4201D000207D
:103B0000F8BD320029002000FFF7B2FF002815D1D0
:103B10006B1CF0D0FFF750FA801B854201D3002DBB
:103B2000E9D12022636C13436364230041331A708C
:103B30002200002342324034137023700120DFE75B
:103B4000F8B504000D001600202723689B693B424E
:103B500001D00020F8BD320029002000FFF788FFC7
:103B6000002813D1FFF728FA801B854201D3002DCE
:103B7000EBD12022636C13436364230041331A703A
:103B80002200002342324034137023700120E1E709
:103B9000F8B504000D001700042623689B69334222
:103BA00011D13A0029002000FFF762FF00281AD146
:103BB000202123689A690A4217D09A69324204D0B8
:103BC000228D002A01D00020F8BD2021D9615A6839
:103BD0000E4802405A602200002341326364117093
:103BE0004034537023700120EEE7FFF7E5F9C01B66
:103BF000854201D3002DD0D12022636C134363642E
:103C0000230041331A7040340023EBE700E800FE44
:103C100070B504000120002C3FD0250041352B78E1
:103C2000DBB2002B05D1220040321370200002F0DD
:103C300041FF242301212B702368E0681A68A668DD
:103C40008A431A6061681A4A0A401A619968194AD7
:103C500011409960012821D18021090231439960E6
:103C60005868154901435960D96800200A40DA6054
:103C7000616922690A43A16909020A43DA60216A7B
:103C8000E2690A431A60012219680A431A60202374
:103C900060642B7020634234207070BD842109025F
:103CA000314399600228DBD1802109015960D7E7AF
:103CB000FFFFFFF0FF7FFFFF0080000270B50400F0
:103CC0000120002C13D025002423226841352B70BD
:103CD000136883431360200002F01EFF00202300BE
:103CE000606442332870206340341870207070BDC7
:103CF000F0B5050087B003910492059341352B7808
:103D000004000220202B14D1230040331A78012A0A
:103D10000FD001261E70FFF74FF980210700009099
:103D20001923320009022000FFF77AFE002802D092
:103D3000012007B0F0BD21232B702500113B423537
:103D40002B70049B606463626B469B8A606363852F
:103D5000628D304BFF2A21D9FF22228500938023D8
:103D60005B0403992000FFF745FEFF26638D3A00B0
:103D70000C992000002B19D1FFF7E2FE0028D7D1C3
:103D800020212368244ED9615A6832405A602300AA
:103D900040344133197028702070CAE7628D92B2A6
:103DA000228500938023D2B29B04DAE7FFF79EFEC0
:103DB0000028BDD1636A2268197801339162636279
:103DC000638D228D013B9BB26385013A638D92B274
:103DD0002285002BCAD0002AC8D100970C9B8021D5
:103DE0002000FFF71DFE0028A2D1638DFF2B09D90B
:103DF0008023FF2226855B04009003992000FFF7B3
:103E0000F9FDB3E78023628D9B0492B22285D2B282
:103E10000090F2E70020008000E800FEF0B5050009
:103E200087B003910492059341352B78040002205A
:103E3000202B14D1230040331A78012A0FD00126F9
:103E40001E70FFF7B9F88021070000901923320097
:103E500009022000FFF7E4FD002802D0012007B08E
:103E6000F0BD22232B702500123B42352B70049BA2
:103E7000606463626B469B8A60636385628D314BCD
:103E8000FF2A21D9FF222285009380235B04039916
:103E90002000FFF7AFFDFF26638D3A000C9920004C
:103EA000002B19D1FFF74CFE0028D7D12021236821
:103EB000254ED9615A6832405A602300403441335C
:103EC000197028702070CAE7628D92B22285009323
:103ED0008023D2B29B04DAE7FFF75AFE0028BDD157
:103EE0002368626A5B6A1370636A228D01336362BE
:103EF000638D013A013B9BB26385638D92B222854B
:103F0000002BC9D0002AC7D100970C9B802120002C
:103F1000FFF786FD0028A1D1638DFF2B09D98023EF
:103F2000FF2226855B04009003992000FFF762FDC5
:103F3000B2E78023628D9B0492B22285D2B20090B8
:103F4000F2E7C0460024008000E800FEF0B504005F
:103F5000413422780300D2B20220202A18D11D0059
:103F600040352E78012E13D01B68223020701E6839
:103F7000233886431E601E68064F3E401E601E6842
:103F800031431960196808431860002022702870B6
:103F9000F0BDC046FFEFFFFFF0B5050041352A78C0
:103FA0000300D2B20220202A17D11C004034267808
:103FB000012E12D01B68223028701E6823388643D9
:103FC0001E601E68054F09023E40314319601968A2
:103FD0000843186000202A702070F0BDFFF0FFFF3A
:103FE0008023034A5B0011680B4313607047C0468F
:103FF000007000401021024A13688B431360704721
:104000000070004010B503240A4A1368A343184304
:1040100010600422084B186902431A61012905D176
:1040200030BF04211A698A431A6110BD40BF20BF06
:1040300020BFF6E70070004000ED00E00223054AD3
:1040400011680B4313600423034A11690B43136186
:1040500030BF70470070004000ED00E08023034A4D
:104060009B0011680B4313607047C046007000400E
:104070000C22164B10B5D9680A40082A24D00C2A05
:1040800006D0042A18D11B68DB061DD4104810BDC9
:104090008A021048120F825C0902D868890F013128
:1040A000C00304D50C485043FCF754F8EFE71B68F5
:1040B000DB06F7D40648F6E780205B6800021B04A5
:1040C0005B0F01339840E2E70348E0E7001002404D
:1040D0000024F400FAA3000800093D00F0B5050033
:1040E00087B0002802D1012007B0F0BD0C23C24CDC
:1040F000E668E2681E4080235B021A400192026873
:10410000D20741D42B689B0700D587E02B68DB06DC
:1041100028D5002E00D0E1E023689B0502D5EB698D
:10412000002BE0D06268B5496B6A0A401A436260AE
:1041300061682A6A0902090A12060A43626080223B
:104140005B0B013312029A401300E16800200A065B
:10415000AB49120F8A5CD340AA4A1360FEF7E8FE0F
:104160000028C1D12B681B0700D5EEE02B685B0748
:1041700000D510E12B689B0600D595E1AB6A002BBA
:1041800000D0C4E10020AFE7082E04D00C2E09D1E6
:10419000019A002A06D023689B03B3D56B68002BD5
:1041A000B0D1A0E76A689A4211D122681343236014
:1041B000FEF702FF07008022236892021342A1D17A
:1041C000FEF7FAFEC01B6428F5D903208CE7A02176
:1041D000C9028A4205D180222168D2020A432260A4
:1041E000E3E7216888480140216021680B4005937E
:1041F000059B864923680B402360002AD8D1FEF72F
:10420000DBFE0700802223689202134200D179E787
:10421000FEF7D2FEC01B6428F4D9D6E72022EB6853
:10422000134203D02168934311432160042E04D02C
:104230000C2E25D1019A002A22D12268520702D5DC
:10424000002B00D14FE761682A69714812020140D2
:104250000A430921626022688A4313432360FFF7FF
:1042600007FFE368664A1B061B0FD35CD840654B0B
:1042700018600020FEF75CFE002800D146E733E717
:10428000002B19D0092122688A4313432360FEF7CB
:1042900093FE070004222368134207D062682B694B
:1042A0005B491B020A40134363602FE7FEF784FE5D
:1042B000C01B0228EED988E70122236893432360BC
:1042C000FEF77AFE070004222368134200D11DE79F
:1042D000FEF772FEC01B0228F5D976E7EB69002BCA
:1042E00020D0802322685B0013432360FEF764FE26
:1042F000070080222368920013420DD063683F4A72
:1043000013406A6A1343636062682B6A12021B06D9
:10431000120A1343636025E7FEF74EFEC01B022816
:10432000E7D952E723683B4A13402360FEF744FE77
:104330000700802223689200134200D112E7FEF7A3
:104340003BFEC01B0228F4D93FE76A690123002A1B
:1043500010D0226D13432365FEF72EFE07000222C4
:10436000236D134200D001E7FEF726FEC01B022892
:10437000F5D92AE7226D9A432265FEF71DFE070054
:104380000222236D134200D1F0E6FEF715FEC01B9A
:104390000228F5D919E780230021A26B5B05019162
:1043A0001A4204D1A26B1343A36301230193802219
:1043B000194F52003B68134208D08022AB6852006C
:1043C00093422BD1226D134323654CE080223B683E
:1043D000520013433B60FEF7EFFD80235B00029029
:1043E00003933B68039A1342E7D1FEF7E5FD029B76
:1043F000C01A6428F5D9E8E600100240FF1FFFFF4D
:10440000E2A300085C000020FFFFFEFFFFFFFBFFB0
:10441000FFE0FFFFFFFEFFFF00700040002B16D102
:10442000236D6C4A13402365236D6B4A134023654B
:10443000FEF7C2FD07008022236D920013422AD0AE
:10444000FEF7BAFD654BC01B9842F4D9BDE6A0212A
:10445000C9008B420BD18023216DDB000B43236508
:10446000236D1A432265FEF7A7FD07000EE0236DBA
:10447000584A13402365236D574A1340A4E7FEF7BB
:104480009BFD564BC01B984200D99EE68022236DAF
:1044900092001342F3D0019B012B00D06AE6A36B7C
:1044A0004F4A1340A36365E6A96901234D4A0029D9
:1044B00018D0A1681943A160616B0B43636380232B
:1044C000116A9B010B431362FEF776FD070002227F
:1044D000A368134200D051E6FEF76EFDC01B022810
:1044E000F5D972E6A1689943A160136A3E490B4071
:1044F0001362FEF761FD07000222A368134200D198
:104500003CE6FEF759FDC01B0228F5D95DE60C2EEE
:1045100043D0364A022B2ED12368802613402360D5
:10452000FEF74AFD0700B604236833421DD1296B0C
:10453000EB6AE2680B432E490A4013436A6B8025FD
:104540001343E360802322685B0413432360FEF778
:1045500033FD0600AD0423682B4200D012E6FEF7BF
:104560002BFD801B0228F6D92FE6FEF725FDC01B88
:104570000228D9D929E62368802513402360FEF755
:104580001BFD0600AD0423682B4200D1FAE5FEF7BF
:1045900013FD801B0228F6D917E61800012B00D165
:1045A000A2E58022E368E96A52021A4001208A42A9
:1045B00000D099E5F022296B92031A408A4200D07C
:1045C00092E5C02000040340686B181A431E98410E
:1045D000C0B289E5FFFEFFFFFFFBFFFF881300006D
:1045E000FFFFFFEF00000140FFDFFFFFFFFFFFFEC7
:1045F000FFFF02FFF7B5061E019101D10120FEBDAC
:104600000122514C0199236813408B4227D3326811
:1046100093072FD4D30735D40123226801991A4078
:10462000914200D281E03268484C530700D584E0C3
:10463000130706D5E26833694549DB000A40134396
:10464000E360FFF715FDE368424A1B061B0FD35CCE
:10465000D840414B18600020FEF76AFCCFE7236882
:10466000019993430B43236023681340019A9A42B4
:10467000C4D1CCE7F0203549CB688343B06803430D
:10468000CB60C7E7314D72682B68022A19D19B03B2
:10469000B4D50321EB688B431343EB60FEF78CFC2E
:1046A00073680700022B19D10C22EB681340082B0A
:1046B000B2D0FEF781FC294BC01B9842F4D90320ED
:1046C0009DE7032A02D19B01E3D497E7012A02D197
:1046D0005B07DED492E79B05DBD48FE7032B0BD17E
:1046E0000C22EB681340934296D0FEF765FC1B4BFF
:1046F000C01B9842F4D9E2E7012B10D00C22EB68E2
:10470000134289D0FEF758FC144BC01B9842F5D9D0
:10471000D5E7FEF751FC114BC01B9842CFD80C22B5
:10472000EB681340042BF4D176E722689A432260A9
:1047300022681A4200D061E775E7E36808490B4038
:10474000F1680B43E36073E7002002400010024071
:10475000FFC7FFFFE2A300085C00002088130000F1
:10476000FFF8FFFF044B054ADB685B055B0FD35C7A
:10477000034A1068D840704700100240F2A30008B6
:104780005C000020044B054ADB689B045B0FD35C94
:10479000034A1068D840704700100240F2A3000896
:1047A0005C0000208223F7B502681B0105001A4255
:1047B00048D080230021654C5B05A26B00911A4212
:1047C00004D1A26B1343A363012300938027604E9F
:1047D0007F0033683B4277D06968C02208002368B5
:1047E000920313401040834203D1A86802409342D1
:1047F00009D0C0230A009B021A409A4203D12368C1
:1048000001209B0371D4C022236D9202134000D07B
:104810006CE06968C0230A009B021A409A4207D1E3
:1048200023684C480340C020800301400B432360B1
:10483000236D1A43009B2265012B03D1A36B464ACB
:104840001340A3632B68DA0706D503203F49CA6CDF
:104850008243E8680243CA649A0706D50C203B49A4
:10486000CA6C824328690243CA645A0706D537498D
:104870003A48CA6C024068690243CA641A0706D5FE
:1048800032493748CA6C0240A8690243CA64DA0553
:1048900006D52E493348CA6C0240E8690243CA640F
:1048A0005A0606D529493048CA6C0240686A024354
:1048B000CA6400201B0618D5244A2C49D36C0B402F
:1048C000296A0B43D36410E033683B433360FEF73F
:1048D00073FB019033683B4200D07DE7FEF76CFB31
:1048E000019BC01A6428F5D90320FEBD11408B42FC
:1048F00002D02968890608D4A9680A40934200D1E9
:1049000087E72B681B0500D483E78022216D206D8B
:10491000120302432265226D124B15480B400240E0
:1049200022652365CB0500D473E7FEF745FB80279E
:104930000600BF00236D3B4200D06AE7FEF73CFB58
:104940000C4B801B9842F5D9CEE7C04600100240C0
:1049500000700040FFFFCFFFFFFFFFEFFFF3FFFFFF
:10496000FFCFFFFFFFFFFCFFFFFFFFFBFFFFF3FF9A
:10497000FFFFF7FF88130000F7B50227451CEB7F08
:1049800004003800012B24D00123CA22EB772368CE
:10499000E619F7775A62773A5A62AD32914228D1D6
:1049A0009A6821490A409A609A6820490A409A60A8
:1049B000FEF702FB0123009001932368DF68019B4F
:1049C0001F4007D0FF22236800205A620123F3779B
:1049D000E877FEBDFEF7F0FA009BC01AFA239B00B1
:1049E0009842EAD9FF22032023685A62F077EF77D2
:1049F000EFE79A680E490A409A609A680D490A40A2
:104A00009A60FEF7D9FA019700902368DF68019B4E
:104A10001F40D7D1FEF7D0FA009BC01AFA239B00A3
:104A20009842F2D9DEE7C046FFFEFFFFFFEFFFFF2F
:104A3000FFFDFFFFFFDFFFFF036810B59A6804006A
:104A4000D2040AD5DB68DB0507D501F0DFFF21685A
:104A50000E4BCA68D2B21343CB6023689A689204A3
:104A60000BD5DB689B0508D5200000F0BBFA216858
:104A7000074BCA68D2B21343CB608022054B920227
:104A80005A6101230234E37710BDC0467FFEFFFF69
:104A90007FFDFFFF00040140A0210268F8B5D36844
:104AA00004008B43D360FEF787FAFA27060020251F
:104AB000BF002368DB682B4201D00020F8BDFEF761
:104AC0007BFA801BB842F4D90320F7E7F8B54024FD
:104AD00003680500DA68224201D00020F8BD0122F7
:104AE0005242DA60FEF768FAFA270600BF002B6828
:104AF000DB682342F1D1FEF75FFA801BB842F6D99A
:104B00000320EBE770B50400012500281AD0861CAD
:104B1000F37FDBB2002B03D14219D37702F014F8F4
:104B20000223CA22F377236820005A62773A5A6236
:104B3000FFF7CCFF2368051E06D0FF225A6204232C
:104B4000F3770125280070BD9A681B4920690A4047
:104B50009A60626899680243A06902430A439A60B6
:104B6000E26860691A61A268196912040A43802127
:104B70001A61DA688A43DA60DA6C7D398A43DA646A
:104B8000E269D96C02430A43DA649B689B060CD441
:104B90002000FFF781FF002807D0FF22236801349F
:104BA0005A620423F377E577CBE7FF2223685A6242
:104BB0000123F377C6E7C046BFFF8FFF0023092814
:104BC00003D81B011843C0B270470A380133C0B282
:104BD000F5E700000223F7B5471C0C00F97F05003C
:104BE0001E00012936D00121F977C118CB77009139
:104BF0004021036866789B6820780B40002A2BD1FF
:104C0000002B00D1E370FFF7D9FF01903000FFF7D0
:104C1000D5FF0600A078FFF7D1FF0300E078360249
:104C200000041843019B1B04184330430190CA221F
:104C30002B6828005A62773A5A62FFF747FF2B68C1
:104C4000061E16D0FF225A620423009AD37700234F
:104C5000FB7701263000FEBD002B00D1E37000047D
:104C600036020643A0780643E07800040643019626
:104C7000DDE71548019A154902401A609A682069D3
:104C80000A409A60E268996802430A4380219A6068
:104C9000DA688A43DA609B689B060CD42800FFF729
:104CA000FBFE002807D0FF222B685A620423009ADB
:104CB000D377FE77CDE7FF222B685A620123009A53
:104CC000D3770023FB77C5E77F7F7F00FFFFFBFFE4
:104CD0000223F0B5471C0D00F97F85B004001E00CB
:104CE000012935D00121F977C1180191CB776B7873
:104CF000E878AE78002A4ED11032134202D09343A6
:104D00000A336B70FFF75AFF02906878FFF756FF7F
:104D100003903000FFF752FF029B2D781E046D03B5
:104D2000039B054335431E02CA22236820005A62B2
:104D3000773A5A62FFF7CAFE35432368061E0AD047
:104D4000FF225A620423019AD3770023FB770126BE
:104D5000300005B0F0BD8021124805405D60DA6882
:104D60008A43DA609B689B060CD42000FFF794FE10
:104D7000002807D0FF2223685A620423019AD377C0
:104D8000FE77E4E7FF2223685A620123019AD37772
:104D90000023FB77DCE700041B022D7803431E434E
:104DA0006D03C1E73FFFFF00F7B5431C00930D0003
:104DB000D97F022304001800012900D18DE00121D0
:104DC0006018C177E118CB774021236828789B6869
:104DD0006E78AF780B40002A5DD1002B00D1EB70CC
:104DE000FFF7ECFE01903000FFF7E8FE0600380008
:104DF000FFF7E4FE07006B1CD87FFFF7DFFE6A6950
:104E0000EB6936021343EA780006120413431F438A
:104E1000019B1B041F4337430743AA696B68696AF8
:104E20001343CA22019323685A62773A5A62AD3219
:104E3000914253D19A683C490A409A60D9683B4AEA
:104E4000C9B20A43DA60FEF7B7F806000122236808
:104E5000DD68154032D0019ADF615A64802299687A
:104E600052000A439A608022996852010A439A606C
:104E700080222F4B92021968002011431960996813
:104E80000A439A60FF22236802345A620123E377BF
:104E9000009BD87721E0002B00D1EB70EB696A69A9
:104EA000000413431F43360207433743EE786B1C5D
:104EB00036043743DE7F36063743AEE7FEF77CF82D
:104EC000FA23801B9B009842C0D9FF22032023684D
:104ED00002345A62009BE077DD77FEBD9A6815497F
:104EE0000A409A60D968144AC9B20A43DA60FEF7E8
:104EF00063F8060002222368DD6815400BD0019A92
:104F00001F629A648022996892000A439A60802204
:104F100099689201AAE7FEF74FF8FA23801B9B00DD
:104F20009842E7D9D1E7C046FFFEFFFF7FFEFFFFB3
:104F300000040140FFFDFFFF7FFDFFFF0A23020980
:104F400053430F2210401818C0B2704770B50C00C0
:104F50007F2501683F208B6A63600B695B045B0CF3
:104F6000A3600B680D490B401E0A190C2E401D4012
:104F700040230840194020706670A570E170002A37
:104F80000AD1FFF7DBFF20703000FFF7D7FF60701A
:104F90002800FFF7D3FFA070002070BD7F7F7F0047
:104FA00070B53F250C0003680D495B680B40180C79
:104FB000DE041D401B04F60E5B0FE0706670A570EA
:104FC0002370002A0AD1FFF7B9FFE0703000FFF725
:104FD000B5FF60702800FFF7B1FFA070002070BD22
:104FE0003FFFFF0070470000F8B504000D001600F9
:104FF0001F00226893682B409D4201D0002031E0C1
:10500000731CF7D0FDF7D8FFC01B8642F1D8E02112
:1050100023685A688A435A6082226168520091422A
:105020000CD18021A26809028A4203D08021C900E4
:105030008A4203D140211A688A431A608021A26AF9
:1050400089018A4206D11968074801401960196828
:105050000A431A602300012251331A7000230320EF
:1050600050342370F8BDC046FFDFFFFFF8B51300D2
:10507000822204004068520090421ED18020802588
:10508000A2680002ED00824201D0AA4206D1402768
:1050900026683068B8433060AA420ED00A008021EA
:1050A0002000FFF7A1FF002801D10020F8BD202338
:1050B000626D032013436365F8E70A000121EFE7FF
:1050C0001300822210B5040040685200904208D1BB
:1050D0000A0080212000FFF787FF002809D1002067
:1050E00010BD220051321278052AF8D10A000121A0
:1050F000F0E72023626D032013436365F0E70000AF
:1051000070B504000120002C37D000232500A362D5
:1051100051352B78DBB2002B05D1220050321370B1
:10512000200001F029FD0223402221682B700B682A
:10513000A06893430B606368A2690343E06803437C
:105140002069034360690343E0690343206A034322
:10515000A06A034380208000104003430B600423B7
:10516000120C1A40636A00201A434A60CB69034A52
:105170001340CB61012360652B7070BDFFF7FFFF0B
:1051800070B504000120002C10D02500022340211E
:10519000226851352B70136820008B43136001F097
:1051A00017FD0020503460602870207070BDF0B58D
:1051B00087B001930300503303931B7804000E0063
:1051C00017000225012B79D00123039A1370FDF7F4
:1051D000F3FE2200029051321378DBB2012B67D12B
:1051E0001D00002E64D0002F62D002331370002304
:1051F0006365A363E786A387E387636423648023EF
:10520000A2682663A7861B029A4205D180232268E2
:10521000DB0111680B4313604022236819681142B7
:1052200002D119680A431A608021E06809016268A6
:10523000884246D1002A01D0012F07D13288023698
:10524000DA60E38E2663013B9BB2E3860225E38EA0
:10525000002B15D1029A01992000FFF731FF002899
:1052600059D1A368002B06D105932368DA6805920B
:105270009B680593059B656D6B1E9D41EDB217E024
:10528000226893682B4209D0236B19880233D160BE
:105290002363E38E013B9BB2E386D8E7FDF78CFEE8
:1052A000029BC01A019B9842D1D30133CFD0032572
:1052B0000123513423700023039A1370280007B090
:1052C000F0BD002A01D0012F08D132781A73236B68
:1052D00001332363E38E013B9BB2E3860225E38E19
:1052E000002BB7D023689A682A420AD0226B127822
:1052F0001A73236B01332363E38E013B9BB2E38676
:10530000EDE7FDF759FE029BC01A019B8342E6D8E8
:105310000133E4D0CBE720236365A2E7F0B51F009B
:10532000030085B0019250331A7804000E00022564
:10533000012A00D19BE001221A70FDF73DFE2300F7
:10534000009051331B786168DBB2012B0BD08222B5
:105350005200914200D083E0A268002A00D07FE092
:10536000042B00D07CE00125002E00D178E0019BC9
:10537000002B75D0002F73D0230051331A78042AE4
:1053800001D005221A700023019A6365A2634022AE
:10539000236463642368E787E7861868A787266322
:1053A000A786104202D1186802431A608022E06882
:1053B000120190425ED1002901D0012F07D132881D
:1053C0000236DA60E38E2663013B9BB2E386012559
:1053D00002272E00E38E002B15D1E38F002B12D174
:1053E000009A0A992000FFF76BFE051E00D087E0A7
:1053F000A368002B34D123680390DA6803929B687A
:105400000393039B2CE0226893683B420ED0E38E0B
:10541000002B0BD0012D09D10025236B19880233F5
:10542000D1602363E38E013B9BB2E38693683342F2
:105430000CD0E38F002B09D03500D268A36B1A8003
:105440000233A363E38F013B9BB2E387FDF7B4FD17
:10545000009BC01A0A9B8342BCD80133BAD00325F3
:105460002300012251331A70002350342370280086
:1054700005B0F0BD002901D0012F08D132781A7390
:10548000236B01332363E38E013B9BB2E38601254B
:1054900002272E00E38E002B02D1E38F002B9FD03A
:1054A00023689A683A420FD0E28E002A0CD0012D70
:1054B0000AD10025226B12781A73236B0133236300
:1054C000E38E013B9BB2E38623689A6832420DD09B
:1054D000E28F002A0AD03500DB68A26B1370A36B41
:1054E0000133A363E38F013B9BB2E387FDF764FDC8
:1054F000009BC01A0A9B8342CCD80133CAD0AEE7C6
:10550000202301256365ABE7F0B51E008223170059
:10551000426887B0040002915B009A420FD1836811
:10552000002B0CD10300042251331A7000963B006B
:105530000A00FFF7F3FE0500280007B0F0BD2300C6
:10554000503304931B780225012BF5D00123049AD4
:105550001370FDF731FD23005133039005931B7841
:10556000DBB2012B4FD1029A1D00002A4BD0002F35
:1055700049D0059A03331370029A0023A263802254
:10558000A16863652363E787A386E3862364636476
:10559000A78712022368914203D11A682C490A4056
:1055A0001A6040221968114202D119680A431A6030
:1055B000E3680125002B3AD1E38F002B0BD1039A2E
:1055C00031002000FFF752FD00283DD1656D6B1EB4
:1055D0009D41EDB217E023689A682A420AD01B7BEE
:1055E000A26B1370A36B0133A363E38F013B9BB2E8
:1055F000E387E1E7FDF7E0FC039BC01A8642DBD8B6
:10560000731CD9D003250123059A13700023049A33
:10561000137091E7226893682B420CD0D268A36B79
:105620001A800233A363E38F013B9BB2E387E38FCE
:10563000002BEFD1C3E7FDF7BFFC039BC01A8642E6
:10564000F5D8731CF3D0DDE720236365BEE7C046C1
:10565000FFBFFFFF80220368D205904208D0154AA1
:10566000904205D0144A904202D0144A904214D17C
:10567000702293434A6813438022D205904208D097
:105680000C4A904205D00C4A904202D00B4A9042FC
:1056900003D10B4A1340CA681343802293430A691B
:1056A000134303608B68C3620B6883620123436109
:1056B0007047C0460004004000080140001401404B
:1056C000FFFCFFFF70B504000120002C14D0250062
:1056D00039352B78DBB2002B05D12200383213701C
:1056E000200001F08BFA022320682B70211DFFF7A8
:1056F000B1FF012300202B7070BD0100022339315E
:105700000B70036807209A680240062A03D0012222
:10571000186802431A60012300200B7070470000D4
:105720000100022339310B700368064A186A1042DF
:1057300003D101201A6882431A60012300200B70F4
:105740007047C0461111000070B50400383422784B
:1057500003000220012A13D01D007026393528705D
:10576000186842688368B2430E68496832438026ED
:10577000B3430B4342608360012300202B702070F1
:1057800070BD70B505000120002D12D02423002427
:105790006B672B681A6882431A6028001C605C6083
:1057A0009C6001F067FA2000EC676C67AC677035AD
:1057B0002C7070BDF8B504002569A26803682A43FF
:1057C0006569C1692A431868814D0A43284002432C
:1057D0001A605A687F48804D0240E06802435A6070
:1057E000A069AB4201D0226A10439A687B4E3240D6
:1057F00002439A607A4A934213D10322794BDB6CBD
:105800001340794AD05C80231B02994200D1D1E039
:10581000082826D8FAF78AFCC0969925B4252525AC
:10582000B700724A934205D10C226E4BDB6C1340D9
:105830006F4AE7E76F4A934200D1A9E06E4A93426C
:1058400000D1A5E0AB4200D0ADE0C0218020654A88
:105850000901D36CC0000B40834238D003D8002B21
:105860000AD001250DE08020000183420ED08B423A
:10587000F7D1802000020DE0FEF774FF0025A8425A
:1058800008D10023280023666366F8BD1368DB0691
:1058900020D55A48032263685A438242E1D81A034A
:1058A0008242DED30027020E01025E0889197A4186
:1058B000080011001A003B00FAF700FE504BC21816
:1058C000504B9A42CDD823683D00D860D9E7FEF707
:1058D000CFFBD3E74C48DDE7FEF744FF63684000A9
:1058E0005B08C01861680BE0FEF74CFFF6E7102577
:1058F0003C4B61681A684808154006D0434BC018F5
:10590000FAF728FC002583B204E0414BC018FAF7EF
:1059100021FC83B219003F4810398142A1D80F21E0
:1059200018001B0788435B0F21680343CB60A8E77F
:10593000FEF79EFBD2E76368580880235B02D0E73E
:105940000023E7E7FEF71EFF28E01025254B6168DE
:105950001A684808154006D0284BC018FAF7FAFB19
:10596000002583B204E0284BC018FAF7F3FB83B29A
:10597000190028481039814200D972E72168D5E71B
:10598000FEF776FB0AE06368580880231B0207E0F5
:1059900080231B0299429FD0FEF7E4FE63685B08F8
:1059A000C0186168DAE7802301251B029942C7D03D
:1059B0000023DDE7082800D953E7FAF7C1FB8DFF84
:1059C00095FF98FF52FFB9FF52FF52FF52FFBCFFF5
:1059D000F369FFEFFFCFFFFF00480040FFF4FFFF38
:1059E00000380140001002400CA3000800440040B1
:1059F00010A30008004C00400050004000093D008A
:105A000000FDFFFFFFFC0F000024F40000127A00ED
:105A10000048E801EFFF0000436A30B5DA0706D519
:105A20000168284C4A682240846A22434A609A07E7
:105A300006D50168244C4A682240C46A22434A6061
:105A40005A0706D50168214C4A682240046B22435C
:105A50004A601A0706D501681D4C4A682240446B0B
:105A600022434A60DA0606D501681A4C8A68224049
:105A7000846B22438A609A0606D50168164C8A68B0
:105A80002240C46B22438A605A0610D50168134D28
:105A90004A68046C2A4022434A608022520394429E
:105AA00005D14A680E4C2240446C22434A601B06D2
:105AB00006D502680B4953680B40816C0B43536059
:105AC00030BDC046FFFFFDFFFFFFFEFFFFFFFBFFF6
:105AD000FF7FFFFFFFEFFFFFFFDFFFFFFFFFEFFF96
