:020000040800F2
:100000000020002065530008E5470008E747000886
:1000100000000000000000000000000000000000E0
:10002000000000000000000000000000E947000898
:100030000000000000000000EB470008ED4700084A
:10004000B5530008B5530008F5470008B55300083C
:10005000B5530008B5530008B5530008054800081B
:10006000B5530008B5530008B5530008B553000850
:10007000B5530008B553000800000000B553000850
:1000800000000000B5530008000000000000000060
:10009000B553000800000000B5530008B553000830
:1000A000B5530008B5530008B5530008B553000810
:1000B000B5530008B5530008B5530008B553000800
:1000C00010B5064C2378002B07D1054B002B02D02E
:1000D000044800E000BF0123237010BD2802002067
:1000E00000000000D8720008044B10B5002B03D0AC
:1000F0000349044800E000BF10BDC04600000000F6
:100100002C020020D87200080023C25C0133002AB0
:10011000FBD1581E704702780B78002A03D00130BB
:1001200001319A42F7D0D01A7047000002B47146EC
:1001300049084900095C49008E4402BC7047C0462A
:10014000002243088B4274D303098B425FD3030A16
:100150008B4244D3030B8B4228D3030C8B420DD329
:10016000FF22090212BA030C8B4202D312120902B7
:1001700065D0030B8B4219D300E0090AC30B8B42F5
:1001800001D3CB03C01A5241830B8B4201D38B03A3
:10019000C01A5241430B8B4201D34B03C01A524148
:1001A000030B8B4201D30B03C01A5241C30A8B428B
:1001B00001D3CB02C01A5241830A8B4201D38B0276
:1001C000C01A5241430A8B4201D34B02C01A52411A
:1001D000030A8B4201D30B02C01A5241CDD2C3098C
:1001E0008B4201D3CB01C01A524183098B4201D308
:1001F0008B01C01A524143098B4201D34B01C01AF3
:10020000524103098B4201D30B01C01A5241C3086A
:100210008B4201D3CB00C01A524183088B4201D3D9
:100220008B00C01A524143088B4201D34B00C01AC5
:100230005241411A00D20146524110467047FFE731
:1002400001B5002000F0F0F802BDC0460029F7D04B
:1002500076E7704703460B437FD4002243088B4266
:1002600074D303098B425FD3030A8B4244D3030B3D
:100270008B4228D3030C8B420DD3FF22090212BA02
:10028000030C8B4202D31212090265D0030B8B427E
:1002900019D300E0090AC30B8B4201D3CB03C01A68
:1002A0005241830B8B4201D38B03C01A5241430B43
:1002B0008B4201D34B03C01A5241030B8B4201D333
:1002C0000B03C01A5241C30A8B4201D3CB02C01A9E
:1002D0005241830A8B4201D38B02C01A5241430A16
:1002E0008B4201D34B02C01A5241030A8B4201D305
:1002F0000B02C01A5241CDD2C3098B4201D3CB01AC
:10030000C01A524183098B4201D38B01C01A52415A
:1003100043098B4201D34B01C01A524103098B425E
:1003200001D30B01C01A5241C3088B4201D3CB0049
:10033000C01A524183088B4201D38B00C01A52412C
:1003400043088B4201D34B00C01A5241411A00D2DC
:1003500001465241104670475DE0CA0F00D0494245
:10036000031000D34042534000229C4603098B42B5
:100370002DD3030A8B4212D3FC22890112BA030A3D
:100380008B420CD3890192118B4208D389019211BF
:100390008B4204D389013AD0921100E08909C30944
:1003A0008B4201D3CB01C01A524183098B4201D346
:1003B0008B01C01A524143098B4201D34B01C01A31
:1003C000524103098B4201D30B01C01A5241C308A9
:1003D0008B4201D3CB00C01A524183088B4201D318
:1003E0008B00C01A5241D9D243088B4201D34B0033
:1003F000C01A5241411A00D20146634652415B1075
:10040000104601D34042002B00D549427047634655
:100410005B1000D3404201B5002000F005F802BD9A
:100420000029F8D016E770477047C046002B11D15D
:10043000002A0FD1002900D1002802D00021C94391
:10044000081C07B4024802A14018029003BDC04630
:10045000D9FFFFFF03B4684601B5029800F024F805
:10046000019B9E4602B00CBC7047C04670B500228E
:100470000C4B04000D0001F02BFE002804D12000DD
:10048000290001F0F1FC70BD064B0022200029007C
:1004900001F0D4F901F0E8FC80231B069C4660447F
:1004A000F1E7C0460000E041F0B557464E464546EC
:1004B000DE46E0B5040083B00D00924699468B42BB
:1004C0002FD82CD04946504601F02AFE29000600BC
:1004D000200001F025FE331A9846203B9B4600D5AC
:1004E00074E053465A4693401F0053464246934099
:1004F0001E00AF4229D826D05B46A41BBD41002B6D
:1005000000DA79E0002200230092019301235A4689
:1005100093400193012342469340009319E08242A5
:10052000D0D900220023009201930C9B002B01D014
:100530001C605D600098019903B03CBC90469946F0
:10054000A246AB46F0BDA342D6D9002200230092BA
:1005500001934346002BE8D0FB0772081A43464636
:100560007B080EE0AB4201D1A2420CD8A41A9D41F7
:10057000012024196D410021013E24184D41002E17
:1005800006D0AB42EED9013E24196D41002EF8D1C0
:100590005B460098019900196941002B22DB2B0072
:1005A0005A46D3402A004446E2401C005B461500F0
:1005B000002B2CDB26009E40330026004746BE4021
:1005C0003200801A994100900191AEE74246202303
:1005D0009B1A5246DA40414613004A468A401700A9
:1005E0001F4382E7424620239B1A2A0046469A4030
:1005F0002300F3401343D5E74246202300219B1AF2
:100600000022009101920122DA40019282E74246E3
:10061000202326009B1ADE402F00B44697406646F2
:100620003B003343C9E7C04610B5041E27D001F094
:1006300059FD9E231B1A962B0ADC9622D21A94404F
:100640006402640ADBB26402DB05600A184310BD71
:10065000992B17DC9922D21A002A27DD9440220018
:10066000134C1440510704D00F210A40042A00D033
:100670000434620112D4A401640ADBB2E3E700236C
:100680000024E0E7B9222100D21A91400A00511E4D
:100690008A410521091ACC401443DBE7044B1C4076
:1006A0009F23A4011B1A640ADBB2CCE72200D7E720
:1006B000FFFFFFFBF8B54546DE4657464E460C03A6
:1006C000E0B54E00C90F88460D00610A440F0C4387
:1006D000C70019035800DB0F9B464B0A510F0B4311
:1006E000760D400D1900D200D84500D1AEE0351A84
:1006F000002D00DCF6E000280FD1134300D1DBE031
:100700006B1E002B00D037E1BA1A9742BF41641A22
:100710007F42E41B0126170024E0C64B9E424DD0C9
:1007200080231B041943382D00DD07E11F2D00DD58
:1007300038E12020431B9A460B00504683409946DF
:1007400013004846EB401843030050468240501EB9
:100750008241E9401A43BA1A611A9742A44117002C
:1007600064420C1B230262D56402650A002D00D18D
:10077000DFE0280001F0B6FC0300083B1F2B00DD82
:10078000D2E020223C00D21A9D40D4409F40254315
:100790009E4200DDC4E09E1B731C1F2B00DDF1E0B8
:1007A000202238002900D21AD840914097402C00CE
:1007B0000143781E8741DC4000260F437B0709D0A8
:1007C0000F233B40042B05D03B1DBB42BF417F4262
:1007D000E4191F0023022CD5964B01369E4200D10E
:1007E0009AE04546944BFF081C406007760564027A
:1007F0000743240B760D00212403230B0C0D8F4A95
:1008000024051C431440330523435B00ED075B08BC
:100810002B43380019003CBC90469946A246AB4693
:10082000F8BD6446044300D111E2040067467B072B
:10083000C6D145466007FF080743E4087D4B9E424A
:1008400030D024037605240B760DD4E7331A9A466C
:10085000002B78DD002831D076488642AED080204B
:10086000000401435346382B00DCE9E00A43511EE3
:100870008A410021D219BA42BF4109197C421700AE
:100880000C192302D3D56B4B01369E4200D13AE1BD
:100890000120694B1C407B0807401F43E0070743CA
:1008A00064088BE723003B4300D1CBE18022120395
:1008B00014432403240B9EE72E007FE70800104317
:1008C00000D1B4E0581E002800D0DEE0BA18BA42C9
:1008D0009B4164185B42E418170001262302A6D549
:1008E0000226D5E7002D6ED1701C4005400D012871
:1008F00000DCF9E0B81A844687428041E51A40429C
:100900002D1A280200D489E0D71BBA4292411C1B41
:100910005242A51AD84629E74546002400276AE72F
:10092000454CF61A2C4049E73D0028388540002701
:100930002EE7380001F0D6FB20301DE70A43511E98
:100940008A41002107E7002B00D0F3E0701C43052B
:100950005B0D012B00DCADE0364B984200D1D1E0BD
:10096000BA18BA42BF4164187F42E419E707520837
:1009700017436408060021E72E48854200D193E022
:100980001D00D0E629001F3EF140202B00D18DE054
:100990004022D31A9D402F437D1EAF4100240F43B8
:1009A000002644E72B000800203BD8400300202D00
:1009B00000D17DE04020451BA9400A43511E8A41D9
:1009C00000211A43C7E6002E50D01A4EB04257D02D
:1009D00080266B429946360434434B46382B00DD63
:1009E000D6E01F2B00DD35E12026F51A2600AE40AB
:1009F000B2463E00DE40AC46350056462E436546C4
:100A0000AF407D1EAF41DC403743D71BBA42924115
:100A10000C1B5242A41A0600D846A3E66446674659
:100A20002C4300D0A2E600250026002706E71E0082
:100A3000C4E6C046FF070000FFFF7FFFFFFF0F80F7
:100A40001F2B63DC2020C31A080098409C46834675
:100A500053461000D84003005846184363469A4056
:100A6000531E9A4153460243D94003E726003E43B2
:100A700006D0EB439946002BC7D0944EB042ACD180
:100A80000C0017000600D84698E6904B9A450BD00C
:100A90008246E7E6002800D09EE01800104300D10F
:100AA000E9E01C001700D846884E87E6002572E76B
:100AB000002182E723003B43002E00D0ABE0002B57
:100AC00000D1E7E00B00134300D177E6BA18BA4231
:100AD000BF4164187F42E419230200D4F2E07C4B4A
:100AE00017001C40060069E620003843002ED1D1D3
:100AF00000285BD11C00144300D1A8E01C001700A3
:100B0000D8465BE606000024002797E650460B0017
:100B10002038C34099465346202B00D195E040230E
:100B200050461B1A99400A43511E8A414B460021E8
:100B30001A439FE6002E30D126003E4367D0DB43A8
:100B40009A46002B1CD0614EB04260D05346382BE1
:100B500000DD96E01F2B00DD9FE02026F31A260023
:100B60009E409C46B34653463E00DE4033005E4600
:100B70001E4363469F407B1E9F415346DC403743E4
:100B8000BF189742924164185242A418060078E6B2
:100B900027437C1EA741002437E74C4EB04236D095
:100BA00080265B4236049A463443CFE71800104350
:100BB00000D103E6B81A84466745AD41E01A6D429C
:100BC000401B050200D42CE6D71BBA4292411C1BE5
:100BD0005242A41AD846F1E51800104300D163E749
:100BE000F808670707438020E4080003044208D0A0
:100BF000DD08054205D1D208590711430F002C002A
:100C0000D8467B0FE4001C43FF00304ED6E50C00B5
:100C100017000600D2E5002B38D00B00134300D19B
:100C200042E7F808670707438020E408000304420E
:100C3000E7D0CB080342E4D1D208490711430F00A3
:100C40001C00DEE700270024D5E500216BE7002526
:100C50000027F3E54E462500203EF5404B462E008A
:100C6000202B2DD04025ED1AAC4027437C1EA741F8
:100C700000243743C9E6802400252403134E0027AF
:100C8000DCE527437C1EA741002479E70C00170010
:100C90000E4E93E50C00170090E556462300203ECB
:100CA000F34099465346202B0ED0402356469B1BBB
:100CB0009C4027437C1EA7414B4600241F435FE70F
:100CC0000024D2E71700B2E50024F2E7FF07000096
:100CD000FFFF7FFFF0B557464546DE464E46E0B57E
:100CE0004C000E0387B0834692461D008046360BAB
:100CF000640DCF0F002C4FD06F4B9C4235D080231A
:100D0000420F1B04F600134333439946C300984631
:100D10006A4B00269C460023644403932B031B0B61
:100D20009B466B00ED0F50465B0D01955ED0624A0D
:100D3000934253D05A46D1008022400F12040243FE
:100D40000A4393465246D1005C4A944600226344CB
:100D50003800684084460290E41A16430F2E00D9EA
:100D6000B4E0574BB6009B599F4603003343994666
:100D70006CD100239846023308260393CEE7CB4676
:100D80004146039A0197022A65D1019B4A4C9C4631
:100D90000023002298466BE00300334399464ED06F
:100DA000002E00D1BCE1300001F09CF903000B3BA8
:100DB0001C2B00DDACE11D22D31A5A460100DA409B
:100DC00008398E401300334399465B468B40984662
:100DD00000233C4C0026241A03939FE751465A46B1
:100DE000114329D1002293460232B1E7594601430B
:100DF0001ED05B46002B00D19EE1584601F072F9EF
:100E000003000B3B1C2B00DD8FE102005946083A22
:100E100091408B461D21CB1A5146D9400B005946B3
:100E20000B4351469B469140264B00221B1A8FE7ED
:100E3000002301229B468BE75146032288E70023CB
:100E40009846013304260024039367E70323B14641
:100E500003930C2662E7032A00D15CE2019B012A7E
:100E600000D0E4E113409C46002300240022984671
:100E700000211203130B0A0D12051A432305124C0D
:100E800040462240134362465B00D2075B0813438F
:100E9000190007B03CBC90469946A246AB46F0BD4F
:100EA000002380229C4612039846034CE0E700236F
:100EB000014C00229846DBE7FF07000001FCFFFF22
:100EC000FC7200080DFCFFFFFFFF0F80D94500D921
:100ED00039E100D134E1002346464D469A46013CB3
:100EE0005B460A0E1B021A430B02170C03931304F2
:100EF0001B0C3900280090460193FFF721F90200EE
:100F0000019B83465A43280039009146FFF79EF91A
:100F1000350C09040D43A9450DD95B464544013BF9
:100F2000A84500D93AE1A94500D837E102235B4240
:100F30009C464544E3444B46EB1A390018000493A1
:100F4000FFF7FEF8019B05004343390004989946DA
:100F5000FFF77CF9330409041B0C0B43994509D9AD
:100F600043446A1E984500D91AE1994500D817E113
:100F7000023D43444A469B1A5A4612042A430399A7
:100F80009346100C0A0C914609045A46090C4E4629
:100F90000D001204120C45430591514372437043F6
:100FA00052190E0CB218954203D980256D02AC4639
:100FB0006044150C09041204090C281852188342C5
:100FC00000D2CEE000D1C8E01D1A53469E1AB245A9
:100FD00092415242AB1A9A46984500D117E1390026
:100FE0001800FFF7ADF8019B050043433900504658
:100FF0000493FFF72BF904980B04310C1943884232
:1010000009D941446B1E884500D907E1884200D8C0
:1010100004E1023D4144049BCB1A180039000493BB
:10102000FFF78EF8019B82464343390004980193F1
:10103000FFF70CF901980B043104090C194388429D
:101040000DD953464144013B884500D9E8E0884228
:1010500000D8E5E002235B429C464144E244019B08
:101060002D04CE1A51462943059D4F462A000B04F4
:10107000080C1B0C5A4345437B4378435B19170C00
:10108000FB189D4203D980256D02AC4660441D0CBF
:1010900012041B04120C28189B18864200D293E0FD
:1010A00000D18EE001231943A04BE318002B00DC94
:1010B00099E04A0700D09EE05A46D20106D55A462A
:1010C0009B4B1A4080239346DB00E318994A9342D6
:1010D00068DD0123029A984C1A40002394469846F2
:1010E0000022C5E680224B46120313420AD05B461B
:1010F000134206D11A431203120BAC4688468E4C9B
:10110000B6E64B461A431203120BBC468A4CAFE6B6
:1011100003005A46283B9A4000239146984657E6DA
:10112000584600F0DFFF203040E603005246283BDF
:101130009A400021934677E600F0D4FF20305FE626
:10114000884500D2C7E64B46DE075D0843465B088C
:101150001E434346DB079A46C2E60025924500D36C
:1011600033E7039E5946B446E244B245AD416D4271
:101170004544EB180139984507D2984200D97FE0E1
:1011800000D1BCE01D1A8B461FE79845FAD1039D9C
:101190005545F2D943468B461D1A16E79B46CAE6CB
:1011A0001500E7E65A46C90852070A435B05904610
:1011B0005C0D5A460123029952021940120B8C46CB
:1011C00056E6002B00D16FE746444A1EB04529D9A8
:1011D0001100864200D065E7039A934200D061E790
:1011E00062E7012149420120C21A382A21DD029B0F
:1011F00003409C4638E60F220A40042A00D15BE7F0
:101200000A00111D914292415242934454E7474BC8
:10121000E318002BE5DD01225242F2E71D00FAE659
:101220009A461CE7B04239D86ED011003AE70293D3
:101230003AE71F2A3CDC20239B1A0C0058469940B1
:1012400098404B1E99415B46D440D340204308430D
:101250001A00430709D00F230340042B05D00100D7
:10126000081D88429B415B42D21813023AD50123E4
:10127000029A01241A400023944698460022F7E57A
:10128000022149428C46039DE344AC46E244AA4510
:10129000AD416D424544ED182D1A96E68A1E03991C
:1012A0004D008D42894149424144761803958FE7AC
:1012B0001F204042C31A5846D8400300202A28D095
:1012C00040205D46821A954029434A1E91411943A8
:1012D000072300220B4009D00F2300220B400800F7
:1012E000042BBDD1010053075202120BC908194348
:1012F000012388460299002419408C46B8E55245DE
:10130000BED88B46002560E6039D9D42C6D31100E2
:1013100062E70025D8E780225B4612031A43019B4F
:101320001203120B9C468846034CA1E5FF03000004
:10133000FFFFFFFEFE070000FF070000F0B5574665
:101340004546DE464E46E0B50C0398464E00230B5C
:1013500087B0070092469B46760DCD0F002E6BD0CE
:101360006D4B9E4235D080245B46420F2404DB0047
:1013700014431C43C3009946684BA3469C46002374
:1013800000276644029343461C035A00DB0F504675
:10139000240B520D984600D176E05F4B9A426DD0F7
:1013A0008023410F1B040B435C49E4008C461C4323
:1013B000C300002062444146B6186940721C019186
:1013C000944607430F2F00D9B0E0554ABF00D259C9
:1013D00097465B460343994600D087E000239B462F
:1013E000023308270293CEE742460192022867D0D3
:1013F000032800D10EE2012800D062E1002300247E
:101400000022994601990140CDB2002112030B0D33
:10141000120B1B051343434A240513401C4364006D
:10142000ED0764082C434846210007B03CBC9046B9
:101430009946A246AB46F0BD034399464FD05B4662
:10144000002B00D189E1584600F04CFE03000B3B15
:101450001C2B00DD7AE11D22D31A3A0001005C4604
:10146000DA4008398C4013008F4023439B46B9462D
:1014700000232D4E0027361A029384E75346234358
:101480002AD10024022096E75346234320D0002C83
:1014900000D157E1200000F025FE03000B3B1C2B80
:1014A00000DD49E11D21CB1A51460200D9405346C7
:1014B000083A944093400C431B4A121A00207AE7E2
:1014C0000125019B144C1D400023002299469CE7F6
:1014D0000024002201206EE7534603206BE700231F
:1014E0009B4601330427002602934CE703238146E1
:1014F0000C27029347E78022002300251203994618
:10150000054C82E75C464B4602986FE75C464B46CB
:10151000019502986AE7C046FF07000001FCFFFF43
:101520003C730008FFFF0F800DFCFFFF4A46494651
:10153000170C1A0C1B041B0C08041900000C414367
:101540001500884619007D43794303958946290093
:10155000150045434D44029545462D0CAA46029D73
:101560005544A94506D98A46802149028946CA447C
:1015700051460391290C0491414609042D04090C9C
:1015800088462900250C24044144240C059121009F
:1015900041438846210079438A4668434146504486
:1015A0008146080C48446F43824503D98021490293
:1015B00089464F44010C894639004944029141460D
:1015C0000F0404993F0C88460004C019804441462A
:1015D000049159460F0C0904090C884659438A4660
:1015E00039005143894641464A435146090C8B46CE
:1015F0007B43D2185A44934203D980235B029B4613
:10160000D94451460904090C8A46414661437C434A
:10161000130C12044B445244A1468A463C004146F6
:101620006C434D4351464D440F0C7D19A94503D9D8
:101630008021490288464444049F0399B8464144A6
:101640008B468345804141428846514608042F0419
:10165000000C3F1858460299101889469042924152
:101660004F44BA46524299469346C244D144CB4471
:101670008F42BF41C245894199459B419345924163
:101680007F4249422D0C52420F435B4213437F1964
:10169000FF185B463C19DB0D059A64021C434302AC
:1016A00013435D1EAB415A46C00D03435202134320
:1016B000E20156D501205A0803401343E2071343C1
:1016C00064085A48604400284DDD5A0709D00F22AB
:1016D0001A40042A05D01A1D9A429B415B42E41825
:1016E0001300E20104D58020514AC0001440604438
:1016F000504A904200DDE3E60125DB0862071A4309
:101700006402019B9146220B4405640D1D407CE65A
:10171000802259461203114208D0144206D12243B6
:101720001203120B45469946434C6EE65B461A433C
:101730001203120B404C68E603005446283B9C40C1
:101740000023B9E600F0CEFC2030A6E60300283BDB
:101750009F400023BB4699468AE600F0C3FC203038
:1017600074E6B446ADE701252A1A382A06DD019B46
:1017700000241D4000230022994646E61F2A21DC52
:1017800020252000AD1A1E00AB40A840D6405D1EAB
:10179000AB4130431843D440430709D00F230340E3
:1017A000042B05D00300181D98429B415B42E418AE
:1017B000230221D50125019B01241D400023002285
:1017C000994622E61F2521006D42281AC1400800D3
:1017D000202A1DD05F35AA1A944023435C1EA341E2
:1017E000072503431D400022002D09D00F220024AD
:1017F0001A401800042AD6D1030065076402220BA0
:10180000DB082B4301259946019B00241D40FCE584
:101810000024E2E7802201251203224301991203EA
:10182000120B0D409946044CEFE5C046FF03000043
:10183000FFFFFFFEFE070000FF070000F0B5464671
:10184000D6464F460C03C0B5CD0F4E00610A440F7B
:101850000C43C1005800400D84468A460F0019030E
:10186000500F490A0143C648760DA846DB0FD20047
:10187000844500D1D8E001204340AB4200D1A6E02E
:101880006046351A002D00DC05E1002810D10B0060
:10189000134300D1D7E06B1E002B00D04BE1534621
:1018A0009F1ABA458041641A4042241A01261EE05C
:1018B000B34B9E4248D080231B041943382D00DDD2
:1018C00019E11F2D00DD4CE120230F005B1B1000F0
:1018D0009A409F40E840531E9A41E940074317430E
:1018E0005346DF1B611ABA45A44164420C1B230214
:1018F00000D4C5E06402650A002D00D1F6E028009E
:1019000000F0F0FB0300083B1F2B00DDE9E0202284
:101910003C00D21A9D40D4409F4025439E4200DDAA
:10192000DBE09E1B731C1F2B00DD0AE12022380028
:10193000D21A290097402C009140D8407A1E974136
:10194000DC40002601430F437B0709D00F233B40B7
:10195000042B05D03B1DBB42BF417F42E4191F0051
:10196000230225D5864B01369E4200D1AFE0854B40
:1019700001251C4043466207FF08640276051743B1
:10198000240B760D1D4000212403230B0C0D7E4AF1
:1019900024051C431440330523435B00ED075B081B
:1019A0002B43380019001CBC90469946A246F0BD56
:1019B000012543466207FF081743E4081D40704BAA
:1019C0009E4236D024037605240B760DDBE7634672
:1019D000F31A002B00DC94E06046002835D06848FC
:1019E0008642B1D080273F043943382B00DCFDE02C
:1019F0000A43170000217A1E9741574457458041FA
:101A0000091944420C1923023AD55D4B01369E4216
:101A100000D14BE101225B4B1C407B0817401F4368
:101A2000E207174364088FE70800104300D024E75B
:101A300021E723003B4300D1B9E180221203144384
:101A40002403240B9FE72E007EE70800104300D1FB
:101A5000CAE0581E8446002800D0E7E052445245B0
:101A6000804164184042241817000126230207D53C
:101A70000226CFE764462C4300D1B3E12C00674631
:101A80007B0700D062E76307FF081F430125434639
:101A9000E4081D4093E7002D78D1751C6D056D0D90
:101AA000012D00DCF2E05046801A8245BF41651AE4
:101AB0007F42ED1B8446280200D48CE05046171A62
:101AC000BA4292410C1B5542651B984614E701250A
:101AD000434600241D40002755E72A4CF61A2C40A7
:101AE00032E73D0028388540002717E7380000F02E
:101AF000F9FA203006E70A43170000217A1E9741C1
:101B0000EEE6002B00D0E5E0731C9C465B055B0D08
:101B1000012B00DC9FE01A4B9C4500D1C5E05244EC
:101B200052458041641840422418E7075208174381
:101B30006408664608E71248854200D185E01D002A
:101B4000BCE629001F3EF140202B00D17FE040225F
:101B5000D31A9D402F437D1EAF4100240F43002622
:101B60008EE72B000F00203BDF40202D71D040235B
:101B70005D1BA9400A43511E8A4100211743AFE66D
:101B8000FF070000FFFF7FFFFFFF0F80002E3ED00A
:101B9000B34EB44545D0802636046D423443382DCB
:101BA00000DDA8E01F2D00DD1FE1202627005046A4
:101BB000761BB740E84007435046B040461EB04150
:101BC000EC403843171ABA4292410C1B5242A41AF5
:101BD000664698468BE6644667462C4300D08BE603
:101BE000002500260027EAE61E00ADE61F2B60DC7C
:101BF0002027F81A0F00844687401000D84007437A
:101C000060468240501E8241D9401743F5E62600C7
:101C10005046064305D0ED43002DD3D0904EB44539
:101C2000BDD10C001700664698468DE68C4883426D
:101C30000BD06346D9E6002D00D096E00800104393
:101C400000D1E2E00C0017009846854E7CE60025A6
:101C500080E700218EE7230050460343002E00D08A
:101C6000A8E0002B00D1DEE00B00134300D16BE6AF
:101C70005244524580416418404224181700230200
:101C800000D4FDE6774B66461C405DE625005046D5
:101C90000543002ECFD1002D4FD10C00144300D1AD
:101CA000A0E00C00170098464EE666460024002788
:101CB00085E61F000800203FF8400700202B00D1D8
:101CC0008EE04020C31A99400A43511E8A410021E8
:101CD000174392E6002E14D126005046064362D0E8
:101CE000DB43002B5CD18718974292416418524223
:101CF000A418664687E650462043441EA0410024AF
:101D000060E7574EB4454ED0802636045B423443DC
:101D1000382B00DD7FE01F2B00DD8BE02026270025
:101D20005046F61AB740D84007435046B040461ECA
:101D3000B0410743DC40BF18D6E70D00154300D182
:101D400002E65046801A8245BF41651A7F42ED1B6C
:101D50008446280200D48DE65046171ABA429241B2
:101D60000C1B5242A41A9846EEE50D00154300D113
:101D70006BE750466707C00807438020E40800036C
:101D8000044207D0CD08054204D12C009846D7085C
:101D900049070F437B0FE4001C43FF00304ED3E59F
:101DA0002F4EB445B4D10C0017006646CCE5002791
:101DB0000024E8E5002B39D00B00134300D144E7A1
:101DC000C008670707438020E40800030442E1D00D
:101DD000CB080342DED1D70849070F431C00D9E7DF
:101DE000002171E700250027E9E52E002700203EAD
:101DF000F740202D2FD04026751BAC405046204385
:101E0000441EA04100243843DCE68024002524033E
:101E1000134E0027D3E5504620430700781E874124
:101E20000024BF1860E70C0017008DE50C001700B8
:101E30000B4E89E51E002700203EF740202B0CD0DA
:101E40004026F31A9C4050462043441EA0410743BD
:101E50000024BF1848E70024D0E70024F3E7C04679
:101E6000FF070000FFFF7FFF30B5134D0A034B0053
:101E7000120B5B0DC90F0024AB4210DD0F4CA342C7
:101E80000FDC80240E4D64032243ED1A1F2D0BDD61
:101E90000C48C31ADA405442002900D11400200033
:101EA00030BD094BCC18FAE7084CE840A44663441F
:101EB0009A400243EFE7C046FE0300001D04000005
:101EC0003304000013040000FFFFFF7FEDFBFFFF62
:101ED00070B5002830D0C317C4185C40C50F20006F
:101EE00000F000F9174B184A1B1AD21A1F2A18DDE6
:101EF000164AD21A9440002224035B05240B5B0D82
:101F00000021100024030A0D240B12052243104C5B
:101F10001B05224013435B00ED075B082B431900B0
:101F200070BD210091400A000B21081AC4405B05D6
:101F30002403240B5B0DE3E700250023002400228B
:101F4000DEE7C0461E040000330400001304000056
:101F5000FFFF0F8010B5041E28D000F0C3F8154B0A
:101F6000154A1B1AD21A1F2A15DD144AD21A944098
:101F7000002224035B05240B5B0D002110002403C9
:101F80000A0D240B120522430D4C1B05224013435E
:101F90005B00590810BD210091400A000B21081A6E
:101FA000C4405B052403240B5B0DE6E700230024FB
:101FB0000022E2E71E0400003304000013040000C6
:101FC000FFFF0F804100090E4B1C70B5DBB24602CB
:101FD000750AC40F012B14DDE0239B006D07360B3F
:101FE000CB1800210A0D280012051C4D32435B0559
:101FF0002A405B0813435B00E4075B082343190096
:1020000070BD002914D1002D1ED0280000F06AF800
:102010000A281CDC0B232A001B1ADA4003001533A4
:102020009D400F4B12031B1A5B05160B5B0DD8E787
:10203000002D06D0320B802636036D071643094B60
:10204000CFE7084B0026CCE700230026C9E70300B2
:102050002A000B3B9A400025E3E7C046FFFF0F80B4
:1020600089030000FF0700008446101C62468C466E
:10207000191C634600E0C0461FB500F0FBF80028BD
:1020800001D40021C8421FBD10B500F055F84042F0
:10209000013010BD10B500F0EDF8002801DB002084
:1020A00010BD012010BDC04610B500F0E3F80028B7
:1020B00001DD002010BD012010BDC04610B500F0AC
:1020C00075F8002801DC002010BD012010BDC046BD
:1020D00010B500F06BF8002801DA002010BD0120D7
:1020E00010BDC0461C2101231B04984201D3000CE3
:1020F00010391B0A984201D3000A08391B0998427B
:1021000001D30009043902A2105C40187047C04690
:1021100004030202010101010000000000000000B0
:1021200010B5002903D1FFF7DDFF203002E0081CC5
:10213000FFF7D8FF10BDC046F0B54F464646D6461D
:102140005C00C0B51F03DB0F9A46174B0E034D0012
:1021500084468046360B6D0DC90F91463F0B640DCA
:1021600001209D4208D09C4201D0A5420BD01CBC4E
:1021700090469946A246F0BD63463343F7D1AC4240
:10218000F5D13A43F3D10120BE42F0D1C845EED19A
:10219000514507D0002DEAD163461E433000461E4C
:1021A000B041E4E70020E2E7FF070000F0B5454654
:1021B000DE4657464E46E0B51F033D0B2C4F0E033F
:1021C0004C00AB465D008446360B640DC90F90464B
:1021D0006D0DDB0FBC422AD0254FBD422DD0002C07
:1021E0000FD130430700814678427841C0B2002DBC
:1021F00017D15F463A4314D14B460020002B0AD03A
:1022000006E0002D02D15846024301D0994218D071
:102210004842012108433CBC90469946A246AB4641
:10222000F0BD0028F2D00120013B1843F3E737004E
:102230000743D1D002204042EDE75F461743CED09E
:10224000F8E7AC42E4DC03DA481E01210843E2E788
:102250005E45DDD806D000205E45DCD20123481E55
:102260001843D8E7C445D3D80020C445F6D3D2E7F5
:10227000FF070000F0B54E464546DE4657465C0077
:10228000E0B51F03DB0F99462A4B0E034D00C90F23
:102290008446360B6D0D8B4690463F0B640D9D4278
:1022A00020D0244B9C4222D0002D12D130434342F7
:1022B0004341DBB2002C1FD0002B0CD04B46012039
:1022C000013B034318003CBC90469946A246AB46EE
:1022D000F0BD002C16D0CB4517D05B4659420123E8
:1022E0000B43EFE7310002230143EBD1D9E739007B
:1022F00002231143E6D1D7E73A43DDD1002300287A
:10230000E0D0EAE73A43E6D1E7E7A542E5DC05DBC2
:10231000BE42E2D807D00023BE42D3D259460123A1
:1023200001390B43CEE7C445D7D80023C445F5D3C4
:10233000C8E7C046FF07000070B50500FA200D4B46
:1023400080001978FDF7FCFE0B4B01001868FDF7C3
:10235000F7FE00F097F804000120002C09D1032DAE
:1023600007D802382200290000F052F82000034B61
:102370001D6070BD000000200C0000200400002043
:102380004023084A10B5116800200B431360FFF783
:10239000D3FF041E03D102F031F9200010BD012447
:1023A000FBE7C04600200240034A044B11681B783B
:1023B0005B1813607047C046F40200200000002044
:1023C000014B18687047C046F402002070B5040045
:1023D000FFF7F6FF0500631C02D0044B1B78E418DE
:1023E000FFF7EEFF401B8442FAD870BD00000020CA
:1023F0000221024A13688B431360704710E000E02B
:102400000223024A11680B431360704710E000E09A
:1024100070B58901002814DA0F23C0B20340083BCD
:10242000114A9B089B009B18032210409040FC32ED
:102430001500114085408140DC69AC432143D961DE
:1024400070BD032583082840A840FC352E00074AAC
:102450009B009B18C02286402940814092009C58D6
:10246000B44321439950EBE700ED00E000E100E0C8
:102470001F2318401E3B8340014A13607047C0462B
:1024800000E100E0094A431E012093420DD8C0211B
:10249000074A08485360036A09061B021B0A0B43DC
:1024A000036200200723906013607047FFFFFF0066
:1024B00010E000E000ED00E0F0B5574A0B6882182C
:1024C000541EA24187B00493002305320391059264
:1024D000049ADA4001D107B0F0BD012637009F40D1
:1024E000049A3A40029200D193E0039A5268019212
:1024F0001022019D95436A1EB24213D8032459004D
:102500008C408C4682680399A243CC6861468C401B
:1025100022438260019A4468120932409A40BC43C7
:102520002243426003225F00BA400399D2438C6881
:10253000C668BC4016403443C460022D0ED10F2142
:1025400005351D40AD00A940DC08A4000419266A29
:102550008E4303990969A9400E4326620326046845
:102560002240019C3440BC4022430260019AD200C8
:102570004FD50127294C1D00626B35403A436263F9
:10258000274A9C08A400A418A268AD0094460F2214
:102590006146AA409143A022D2059446002260459C
:1025A0000DD0204A94463A00604508D01E4F92183C
:1025B000B84204D01D4F3200B84200D0059AAA405C
:1025C0000A430299A2600D00194ACC43166801998A
:1025D0003543C90301D43500254015605668029D76
:1025E00001993543890301D435002540556096682B
:1025F000029D01993543C90201D4350025409560FB
:10260000D568029E01992E43890201D425402E00EF
:10261000D66001335CE7C04600E4FFAF0010024023
:10262000000001400004005000080050000C005061
:1026300000040140344AF0B58218541EA241002320
:1026400085B0053203920A00DA4001D105B0F0BD31
:1026500001229A40160000920E4053D02B4C9A084B
:10266000920012199468032527000F241D40AD0025
:10267000AC4001943C400294A024E405A44600240C
:1026800060450DD0224CA4460124604508D0214F5E
:102690002419B84204D0204F0134B84200D0039C22
:1026A000AC40029DA54211D1F6431C4C2568354033
:1026B0002560656835406560A5683540A560E568BA
:1026C0002E40E6609468019DAC43946003225D0057
:1026D000AA4007250F271D40AD00AF40D543046831
:1026E00014430460DC08A4000419266A009ABE435F
:1026F0002662C4682C40C460446894434460826885
:102700002A40826001339EE700E4FFAF00000140F1
:102710000004005000080050000C0050000401406C
:1027200000690840411E8841C0B2704770470000F0
:10273000044B10B55A69104202D05861FFF7F6FFFA
:1027400010BDC0460004014003689A69920701D594
:1027500000229A6201229969114202D199690A43C1
:102760009A61704770B5049E89053343890D1943FA
:1027700080230468DB00700D1840044B6568120468
:102780001843854311432943616070BDFF63FF0314
:10279000F8B504000E0017001D002268936933404D
:1027A0009B1B59424B41BB4201D0002017E06B1CE0
:1027B000F4D0FFF705FE069BC01A854201D3002D19
:1027C000EBD12022636C0120134363642300413367
:1027D0001A70220000234232403413702370F8BD77
:1027E000F8B503680400986910230E00170018401C
:1027F0002025002818D1F8BD721C16D0FFF7E0FD87
:10280000C01B864201D3002E0ED12022636C1343DD
:102810006364230041331A702200002342324034A3
:10282000137001202370E6E723689A692A42E3D0F7
:1028300010222000DA61DD61FFF786FF2268064979
:1028400053680B4053600423626C1343636423009A
:1028500041331D70E0E7C04600E800FEF8B5040013
:102860000D001600022723689B693B4201D000201F
:10287000F8BD320029002000FFF7B2FF002815D173
:102880006B1CF0D0FFF79CFD801B854201D3002D0F
:10289000E9D12022636C13436364230041331A702F
:1028A0002200002342324034137023700120DFE7FE
:1028B000F8B504000D001600202723689B693B42F1
:1028C00001D00020F8BD320029002000FFF788FF6A
:1028D000002813D1FFF774FD801B854201D3002D22
:1028E000EBD12022636C13436364230041331A70DD
:1028F0002200002342324034137023700120E1E7AC
:10290000F8B504000D001700042623689B693342C4
:1029100011D13A0029002000FFF762FF00281AD1E8
:10292000202123689A690A4217D09A69324204D05A
:10293000228D002A01D00020F8BD2021D9615A68DB
:102940000E4802405A602200002341326364117035
:102950004034537023700120EEE7FFF731FDC01BB8
:10296000854201D3002DD0D12022636C13436364D0
:10297000230041331A7040340023EBE700E800FEE7
:1029800070B504000120002C3FD0250041352B7884
:10299000DBB2002B05D1220040321370200001F081
:1029A0003BFE242301212B702368E0681A68A66887
:1029B0008A431A6061681A4A0A401A619968194A7A
:1029C00011409960012821D1802109023143996089
:1029D0005868154901435960D96800200A40DA60F7
:1029E000616922690A43A16909020A43DA60216A1E
:1029F000E2690A431A60012219680A431A60202317
:102A000060642B7020634234207070BD8421090201
:102A1000314399600228DBD1802109015960D7E751
:102A2000FFFFFFF0FF7FFFFF0080000270B5040092
:102A30000120002C13D025002423226841352B705F
:102A4000136883431360200001F016FE002023006A
:102A5000606442332870206340341870207070BD69
:102A6000F0B5050087B003910492059341352B78AA
:102A700004000220202B14D1230040331A78012AAD
:102A80000FD001261E70FFF79BFC802107000090ED
:102A90001923320009022000FFF77AFE002802D035
:102AA000012007B0F0BD21232B702500113B4235DA
:102AB0002B70049B606463626B469B8A60636385D2
:102AC000628D304BFF2A21D9FF222285009380237B
:102AD0005B0403992000FFF745FEFF26638D3A0053
:102AE0000C992000002B19D1FFF7E2FE0028D7D166
:102AF00020212368244ED9615A6832405A6023004D
:102B000040344133197028702070CAE7628D92B248
:102B1000228500938023D2B29B04DAE7FFF79EFE62
:102B20000028BDD1636A226819780133916263621B
:102B3000638D228D013B9BB26385013A638D92B216
:102B40002285002BCAD0002AC8D100970C9B802177
:102B50002000FFF71DFE0028A2D1638DFF2B09D9AD
:102B60008023FF2226855B04009003992000FFF755
:102B7000F9FDB3E78023628D9B0492B22285D2B225
:102B80000090F2E70020008000E800FEF0B50500AC
:102B900087B003910492059341352B7804000220FD
:102BA000202B14D1230040331A78012A0FD001269C
:102BB0001E70FFF705FC80210700009019233200EA
:102BC00009022000FFF7E4FD002802D0012007B031
:102BD000F0BD22232B702500123B42352B70049B45
:102BE000606463626B469B8A60636385628D314B70
:102BF000FF2A21D9FF222285009380235B040399B9
:102C00002000FFF7AFFDFF26638D3A000C992000EE
:102C1000002B19D1FFF74CFE0028D7D120212368C3
:102C2000254ED9615A6832405A60230040344133FE
:102C3000197028702070CAE7628D92B222850093C5
:102C40008023D2B29B04DAE7FFF75AFE0028BDD1F9
:102C50002368626A5B6A1370636A228D0133636260
:102C6000638D013A013B9BB26385638D92B22285ED
:102C7000002BC9D0002AC7D100970C9B80212000CF
:102C8000FFF786FD0028A1D1638DFF2B09D9802392
:102C9000FF2226855B04009003992000FFF762FD68
:102CA000B2E78023628D9B0492B22285D2B200905B
:102CB000F2E7C0460024008000E800FEF0B5040002
:102CC000413422780300D2B20220202A18D11D00FC
:102CD00040352E78012E13D01B68223020701E68DC
:102CE000233886431E601E68064F3E401E601E68E5
:102CF0003143196019680843186000202270287059
:102D0000F0BDC046FFEFFFFFF0B5050041352A7862
:102D10000300D2B20220202A17D11C0040342678AA
:102D2000012E12D01B68223028701E68233886437B
:102D30001E601E68054F09023E4031431960196844
:102D40000843186000202A702070F0BDFFF0FFFFDC
:102D50008023034A5B0011680B4313607047C04631
:102D6000007000401021024A13688B4313607047C3
:102D70000070004010B503240A4A1368A3431843A7
:102D800010600422084B186902431A61012905D119
:102D900030BF04211A698A431A6110BD40BF20BFA9
:102DA00020BFF6E70070004000ED00E08023034AFA
:102DB0009B0011680B4313607047C04600700040D1
:102DC0000C22184B10B5D9680A40082A26D00C2AC4
:102DD00006D0042A1AD11B68DB0621D4124810BD84
:102DE0008A021248120F825C0902D868890F0131E9
:102DF000C00304D50E485043FDF7A2F9EFE71B6866
:102E0000DB0601D50B48F6E70748F4E780205B684E
:102E100000021B045B0F01339840E0E70448DEE743
:102E20000448DCE7001002400024F400CF730008DF
:102E300000127A0000093D00F0B5050087B00028B7
:102E400002D1012007B0F0BD0C23BE4CE668E26859
:102E50001E4080235B021A4001920268D20741D4CF
:102E60002B689B0700D587E02B68DB0628D5002E52
:102E700000D0D9E023689B0502D5EB69002BE0D098
:102E80006268B1496B6A0A401A43626061682A6AE3
:102E90000902090A12060A43626080225B0B0133B1
:102EA00012029A401300E16800200A06A749120F97
:102EB0008A5CD340A64A1360FFF73EFA0028C1D1CE
:102EC0002B681B0700D5E6E02B685B0700D508E1FF
:102ED0002B689B0600D58DE1AB6A002B00D0BCE1CE
:102EE0000020AFE7082E04D00C2E09D1019A002A49
:102EF00006D023689B03B3D56B68002BB0D1A0E745
:102F00006A689A4211D1226813432360FFF758FA86
:102F100007008022236892021342A1D1FFF750FAE2
:102F2000C01B6428F5D903208CE7A021C9028A427E
:102F300005D180222168D2020A432260E3E721689A
:102F400084480140216021680B400593059B82491C
:102F500023680B402360002AD8D1FFF731FA07001D
:102F6000802223689202134200D179E7FFF728FA02
:102F7000C01B6428F4D9D6E7EA68042E04D00C2ECE
:102F800025D1019B002B22D123685B0702D5002AA3
:102F900000D156E761682B6970481B0201400B4362
:102FA0000921636023688B4313432360FFF708FF05
:102FB000E368664A1B061B0FD35CD840644B18605D
:102FC0000020FFF7B9F9002800D14DE73AE7236860
:102FD000002A18D009218B4313432360FFF7F0F92F
:102FE000070004222368134207D062682B695B49FB
:102FF0001B020A401343636036E7FFF7E1F9C01B89
:103000000228EED98FE7012293432360FFF7D8F916
:10301000070004222368134200D125E7FFF7D0F907
:10302000C01B0228F5D97EE7EB69002B20D0802356
:1030300022685B0013432360FFF7C2F90700802278
:103040002368920013420DD063683F4A13406A6AB6
:103050001343636062682B6A12021B06120A134351
:1030600063602DE7FFF7ACF9C01B0228E7D95AE7E8
:1030700023683B4A13402360FFF7A2F90700802230
:1030800023689200134200D11AE7FFF799F9C01B99
:103090000228F4D947E76A690123002A10D0226D7B
:1030A00013432365FFF78CF907000222236D1342B7
:1030B00000D009E7FFF784F9C01B0228F5D932E7F1
:1030C000226D9A432265FFF77BF907000222236DE8
:1030D000134200D1F8E6FFF773F9C01B0228F5D9B7
:1030E00021E780230021A26B5B0501911A4204D1E4
:1030F000A26B1343A363012301938022194F520053
:103100003B68134208D08022AB68520093422BD117
:10311000226D134323654CE080223B685200134329
:103120003B60FFF74DF980235B00029003933B68FF
:10313000039A1342E7D1FFF743F9029BC01A6428B0
:10314000F5D9F0E600100240FF1FFFFFB77300083B
:103150000C000020FFFFFEFFFFFFFBFFFFE0FFFF73
:10316000FFFEFFFF00700040002B16D1236D6C4A5C
:1031700013402365236D6B4A13402365FFF720F945
:1031800007008022236D920013422AD0FFF718F91E
:10319000654BC01B9842F4D9C5E6A021C9008B42FB
:1031A0000BD18023216DDB000B432365236D1A4374
:1031B0002265FFF705F907000EE0236D584A13401A
:1031C0002365236D574A1340A4E7FFF7F9F8564BE0
:1031D000C01B984200D9A6E68022236D92001342BC
:1031E000F3D0019B012B00D072E6A36B4F4A134032
:1031F000A3636DE6A96901234D4A002918D0A1688F
:103200001943A160616B0B4363638023116A9B01C7
:103210000B431362FFF7D4F807000222A36813429E
:1032200000D059E6FFF7CCF8C01B0228F5D97AE6A2
:10323000A1689943A160136A3E490B401362FFF7EE
:10324000BFF807000222A368134200D144E6FFF74B
:10325000B7F8C01B0228F5D965E60C2E43D0364AD4
:10326000022B2ED12368802613402360FFF7A8F895
:103270000700B604236833421DD1296BEB6AE2686C
:103280000B432E490A4013436A6B80251343E360C6
:10329000802322685B0413432360FFF791F8060044
:1032A000AD0423682B4200D01AE6FFF789F8801B93
:1032B0000228F6D937E6FFF783F8C01B0228D9D9D0
:1032C00031E62368802513402360FFF779F8060074
:1032D000AD0423682B4200D102E6FFF771F8801B92
:1032E0000228F6D91FE61800012B00D1AAE580229A
:1032F000E368E96A52021A4001208A4200D0A1E53F
:10330000F022296B92031A408A4200D09AE5C0202D
:1033100000040340686B181A431E9841C0B291E53F
:10332000FFFEFFFFFFFBFFFF88130000FFFFFFEF23
:1033300000000140FFDFFFFFFFFFFFFEFFFF02FF76
:10334000F7B5061E019101D10120FEBD0122514CAD
:103350000199236813408B4227D3326893072FD4F7
:10336000D30735D40123226801991A40914200D233
:1033700081E03268484C530700D584E0130706D536
:10338000E26833694549DB000A401343E360FFF715
:1033900017FDE368424A1B061B0FD35CD840414B24
:1033A00018600020FEF7C8FFCFE723680199934318
:1033B0000B43236023681340019A9A42C4D1CCE79F
:1033C000F0203549CB688343B0680343CB60C7E73F
:1033D000314D72682B68022A19D19B03B4D50321A1
:1033E000EB688B431343EB60FEF7EAFF736807005B
:1033F000022B19D10C22EB681340082BB2D0FEF738
:10340000DFFF294BC01B9842F4D903209DE7032A14
:1034100002D19B01E3D497E7012A02D15B07DED4F6
:1034200092E79B05DBD48FE7032B0BD10C22EB68D3
:103430001340934296D0FEF7C3FF1B4BC01B98422C
:10344000F4D9E2E7012B10D00C22EB68134289D0AB
:10345000FEF7B6FF144BC01B9842F5D9D5E7FEF72F
:10346000AFFF114BC01B9842CFD80C22EB68134022
:10347000042BF4D176E722689A43226022681A422C
:1034800000D061E775E7E36808490B40F1680B433A
:10349000E36073E70020024000100240FFC7FFFF17
:1034A000B77300080C00002088130000FFF8FFFF2E
:1034B000044B054ADB685B055B0FD35C034A10686D
:1034C000D840704700100240C77300080C0000206D
:1034D000044B054ADB689B045B0FD35C034A10680E
:1034E000D840704700100240C77300080C0000204D
:1034F0008223F7B502681B0105001A4247D08023DA
:1035000000215F4C5B05A26B00911A4204D1A26BB3
:103510001343A3630123009380275A4E7F0033682F
:103520003B426DD06968C0220800236892031340B3
:103530001040834203D1A8680240934209D0C023BF
:103540000A009B021A409A4203D1236801209B0380
:1035500066D4C022236D9202134062D16968C023F1
:103560000A009B021A409A4207D12368464803404A
:10357000C020800301400B432360236D1A43009B4E
:103580002265012B03D1A36B404A1340A3632B6830
:10359000DA0706D503203A49CA6C8243E868024339
:1035A000CA649A0706D50C203549CA6C824328693B
:1035B0000243CA645A0706D531493548CA6C0240ED
:1035C00068690243CA641A0706D52D493148CA6C96
:1035D0000240A8690243CA645A0606D528492E4803
:1035E000CA6C0240286A0243CA6400201B0617D531
:1035F000234A2A49D36C0B40E9690B43D3640FE09B
:1036000033683B433360FEF7DBFE019033683B4297
:1036100088D1FEF7D5FE019BC01A6428F6D9032095
:10362000FEBD11408B4202D02968890608D4A968E2
:103630000A40934200D191E72B681B0500D48DE727
:103640008022216D206D120302432265226D144BEE
:1036500014480B40024022652365CB0500D47DE76A
:10366000FEF7AEFE80270600BF00236D3B4200D070
:1036700074E7FEF7A5FE0C4B801B9842F5D9CEE708
:103680000010024000700040FFFFCFFFFFFFFFEF80
:10369000FFF3FFFFFFCFFFFFFFFFFFFBFFFFF3FF86
:1036A000FFFFFCFFFFFFF7FF88130000F7B50227BD
:1036B000451CEB7F04003800012B24D00123CA22D3
:1036C000EB772368E619F7775A62773A5A62AD3298
:1036D000914228D19A6821490A409A609A68204903
:1036E0000A409A60FEF76CFE012300900193236864
:1036F000DF68019B1F4007D0FF22236800205A6229
:103700000123F377E877FEBDFEF75AFE009BC01A4F
:10371000FA239B009842EAD9FF22032023685A62C9
:10372000F077EF77EFE79A680E490A409A609A6857
:103730000D490A409A60FEF743FE01970090236806
:10374000DF68019B1F40D7D1FEF73AFE009BC01AED
:10375000FA239B009842F2D9DEE7C046FFFEFFFF46
:10376000FFEFFFFFFFFDFFFFFFDFFFFF70470000E0
:10377000036810B59A680400D2040AD5DB68DB053B
:1037800007D5FFF7F3FF21680E4BCA68D2B2134387
:10379000CB6023689A6892040BD5DB689B0508D53B
:1037A000200000F0BBFA2168074BCA68D2B213436D
:1037B000CB608022054B92025A6101230234E377E9
:1037C00010BDC0467FFEFFFF7FFDFFFF00040140EC
:1037D000A0210268F8B5D36804008B43D360FEF7DC
:1037E000EFFDFA2706002025BF002368DB682B4287
:1037F00001D00020F8BDFEF7E3FD801BB842F4D9EC
:103800000320F7E7F8B5402403680500DA68224290
:1038100001D00020F8BD01225242DA60FEF7D0FD4F
:10382000FA270600BF002B68DB682342F1D1FEF7C0
:10383000C7FD801BB842F6D90320EBE770B5040042
:10384000012500281AD0861CF37FDBB2002B03D1A0
:103850004219D37700F028FF0223CA22F3772368A6
:1038600020005A62773A5A62FFF7CCFF2368051EA0
:1038700006D0FF225A620423F3770125280070BD89
:103880009A681B4920690A409A60626899680243F5
:10389000A06902430A439A60E26860691A61A268FB
:1038A000196912040A4380211A61DA688A43DA60CE
:1038B000DA6C7D398A43DA64E269D96C02430A43DF
:1038C000DA649B689B060CD42000FFF781FF002878
:1038D00007D0FF22236801345A620423F377E57787
:1038E000CBE7FF2223685A620123F377C6E7C0467D
:1038F000BFFF8FFF0023092803D81B011843C0B264
:1039000070470A380133C0B2F5E700000223F7B56B
:10391000471C0C00F97F05001E00012936D001214B
:10392000F977C118CB7700914021036866789B68CE
:1039300020780B40002A2BD1002B00D1E370FFF739
:10394000D9FF01903000FFF7D5FF0600A078FFF700
:10395000D1FF0300E078360200041843019B1B04EA
:10396000184330430190CA222B6828005A62773AE4
:103970005A62FFF747FF2B68061E16D0FF225A62D5
:103980000423009AD3770023FB7701263000FEBD85
:10399000002B00D1E370000436020643A0780643F2
:1039A000E078000406430196DDE71548019A1549C1
:1039B00002401A609A6820690A409A60E268996831
:1039C00002430A4380219A60DA688A43DA609B687E
:1039D0009B060CD42800FFF7FBFE002807D0FF222F
:1039E0002B685A620423009AD377FE77CDE7FF2233
:1039F0002B685A620123009AD3770023FB77C5E72F
:103A00007F7F7F00FFFFFBFF0223F0B5471C0D0007
:103A1000F97F85B004001E00012935D00121F97716
:103A2000C1180191CB776B78E878AE78002A4ED137
:103A30001032134202D093430A336B70FFF75AFFE0
:103A400002906878FFF756FF03903000FFF752FFAF
:103A5000029B2D781E046D03039B054335431E0214
:103A6000CA22236820005A62773A5A62FFF7CAFED8
:103A700035432368061E0AD0FF225A620423019AA6
:103A8000D3770023FB770126300005B0F0BD8021FD
:103A9000124805405D60DA688A43DA609B689B06DD
:103AA0000CD42000FFF794FE002807D0FF222368E3
:103AB0005A620423019AD377FE77E4E7FF22236852
:103AC0005A620123019AD3770023FB77DCE70004D5
:103AD0001B022D7803431E436D03C1E73FFFFF0028
:103AE000F7B5431C00930D00D97F02230400180092
:103AF000012900D18DE001216018C177E118CB7751
:103B00004021236828789B686E78AF780B40002AA4
:103B10005DD1002B00D1EB70FFF7ECFE019030007F
:103B2000FFF7E8FE06003800FFF7E4FE07006B1C15
:103B3000D87FFFF7DFFE6A69EB6936021343EA7844
:103B40000006120413431F43019B1B041F4337430A
:103B50000743AA696B68696A1343CA220193236801
:103B60005A62773A5A62AD32914253D19A683C49CF
:103B70000A409A60D9683B4AC9B20A43DA60FEF744
:103B80001FFC060001222368DD68154032D0019A2F
:103B9000DF615A648022996852000A439A60802249
:103BA000996852010A439A6080222F4B9202196849
:103BB00000201143196099680A439A60FF22236824
:103BC00002345A620123E377009BD87721E0002B6F
:103BD00000D1EB70EB696A69000413431F4336029E
:103BE00007433743EE786B1C36043743DE7F3606D7
:103BF0003743AEE7FEF7E4FBFA23801B9B009842B5
:103C0000C0D9FF220320236802345A62009BE07768
:103C1000DD77FEBD9A6815490A409A60D968144A52
:103C2000C9B20A43DA60FEF7CBFB06000222236822
:103C3000DD6815400BD0019A1F629A648022996852
:103C400092000A439A60802299689201AAE7FEF7DF
:103C5000B7FBFA23801B9B009842E7D9D1E7C04607
:103C6000FFFEFFFF7FFEFFFF00040140FFFDFFFF9F
:103C70007FFDFFFF0A23020953430F22104018184B
:103C8000C0B2704770B50C007F2501683F208B6A79
:103C900063600B695B045B0CA3600B680D490B4010
:103CA0001E0A190C2E401D40402308401940207068
:103CB0006670A570E170002A0AD1FFF7DBFF207063
:103CC0003000FFF7D7FF60702800FFF7D3FFA07028
:103CD000002070BD7F7F7F0070B53F250C0003681A
:103CE0000D495B680B40180CDE041D401B04F60EEA
:103CF0005B0FE0706670A5702370002A0AD1FFF791
:103D0000B9FFE0703000FFF7B5FF60702800FFF7E3
:103D1000B1FFA070002070BD3FFFFF0070470000A2
:103D200070B504000120002C37D000232500A362C9
:103D300051352B78DBB2002B05D1220050321370A5
:103D4000200000F0C9FC0223402221682B700B6880
:103D5000A06893430B606368A2690343E068034370
:103D60002069034360690343E0690343206A034316
:103D7000A06A034380208000104003430B600423AB
:103D8000120C1A40636A00201A434A60CB69034A46
:103D90001340CB61012360652B7070BDFFF7FFFFFF
:103DA00070B504000120002C10D025000223402112
:103DB000226851352B70136820008B43136000F08C
:103DC000B7FC0020503460602870207070BD70B562
:103DD00005000120002D12D0242300246B672B68DE
:103DE0001A6882431A6028001C605C609C6000F0C6
:103DF000E3FC2000EC676C67AC6770352C7070BD1D
:103E0000F8B504002569A26803682A436569C16999
:103E10002A431868794D0A43284002431A605A68B9
:103E20007748784D0240E06802435A60A069AB428F
:103E300001D0226A10439A68734E324002439A605E
:103E4000724A934213D10322714BDB6C1340714AC7
:103E5000D05C80231B02994200D092E008281ED833
:103E6000FCF764F95860631D841D1D1D87006A4AB4
:103E7000934205D10C22664BDB6C1340674AE7E79F
:103E8000AB4200D0B3E0C0218020614A0901D36C6D
:103E9000C0000B40834238D003D8002B0AD0012544
:103EA0000DE08020000183420ED08B42F7D18020AC
:103EB00000020DE0FFF7FCFA0025A84208D100231C
:103EC000280023666366F8BD1368DB0620D55448D6
:103ED000032263685A438242E1D81A038242DED346
:103EE0000027020E01025E0889197A4108001100BC
:103EF0001A003B00FCF79AFA4A4BC2184A4B9A4206
:103F0000CDD823683D00D860D9E7FEF759FFD3E745
:103F10004648DDE7FFF7CCFA636840005B08C0184D
:103F200061680BE0FFF7D4FAF6E71025384B6168BB
:103F30001A684808154006D03D4BC018FCF700F938
:103F4000002583B204E03B4BC018FCF7F9F883B2BC
:103F50001900394810398142A1D80F2118001B07D8
:103F600088435B0F21680343CB60A8E7FEF728FF77
:103F7000D2E76368580880235B02D0E7012500235D
:103F8000E6E7082837D8FCF7D1F8050C0F362A36B3
:103F900036362D00FFF78CFA63685B08C01861683D
:103FA0000BE0FFF795FAF7E71025194B61681A68DF
:103FB000480815400DD01A4BC018FCF7C1F8002571
:103FC00083B219001C481039814200D967E7216883
:103FD000CAE7164BC018FCF7B3F883B2F1E7FEF757
:103FE000EFFED9E76368580880231B02D6E78023D9
:103FF0001B029942C2D001250023E2E7F369FFEFDB
:10400000FFCFFFFF00480040FFF4FFFF00380140F2
:10401000001002407C7300080044004080730008D8
:1040200000093D0000FDFFFFFFFC0F000024F4002D
:1040300000127A000048E801EFFF0000436A30B543
:10404000DA0706D50168284C4A682240846A224370
:104050004A609A0706D50168244C4A682240C46A1F
:1040600022434A605A0706D50168214C4A6822401B
:10407000046B22434A601A0706D501681D4C4A6842
:104080002240446B22434A60DA0606D501681A4C86
:104090008A682240846B22438A609A0606D50168AA
:1040A000164C8A682240C46B22438A605A0610D597
:1040B0000168134D4A68046C2A4022434A608022FA
:1040C0005203944205D14A680E4C2240446C22436C
:1040D0004A601B0606D502680B4953680B40816C89
:1040E0000B43536030BDC046FFFFFDFFFFFFFEFFE7
:1040F000FFFFFBFFFF7FFFFFFFEFFFFFFFDFFFFF84
:10410000FFFFEFFFFFFF9FFFFFFFF7FFF8B5040082
:104110000E0015001F002268D36933409B1B5942D3
:104120004B41AB4201D000201BE0069B0133F3D092
:10413000FEF746F9069BC01B834201D3002BEAD150
:10414000236808491A6803200A401A609A68A33154
:10415000FF318A439A6020236367A367002370348A
:104160002370F8BD5FFEFFFF73B500260400C6672D
:10417000FEF726F9236805001B681B0715D4236882
:104180001B685B070AD580210E4B00220093C903F0
:104190002B002000FFF7BAFF002811D120230020B8
:1041A0006367A367703420700BE08021054B3200F9
:1041B0000093890303002000FFF7A8FF0028DED04A
:1041C000032076BDFFFFFF0110B5041E01D10120C1
:1041D00010BD436F002B04D102007032137000F049
:1041E000BDFA2423012122686367136820008B43F2
:1041F0001360FFF705FE0128E9D0636A002B02D0A7
:104200002000FFF71BFF236807495A6820000A4077
:104210002A215A609A688A439A60012219680A43DF
:104220001A60FFF7A1FFD3E7FFB7FFFF30B59DB0DE
:10423000382200210EA801F0CDF914220021684691
:1042400001F0C8F92422002105A801F0C3F9802358
:104250001749184C0A681B01224013430B60FEF7F4
:1042600077FD154A0125136D0EA82340136506231B
:1042700000240E93FA331093F03B12931195189487
:10428000FEF7DAFD0F2321006846009301950294A2
:1042900003940494FFF754F82A230593802305A878
:1042A0005B0209940B940693FFF722F91DB030BD11
:1042B00000700040FFE7FFFF00100240F0B599B02A
:1042C0000EADFEF75DF8FFF7B1FF142200212800C4
:1042D00001F080F90420B54B0024D96A0143D9626A
:1042E000DA6A02400592059AD96A7C300143D962A4
:1042F0000121DA6A02400692069ADA6AAC480A4359
:10430000DA62DA6A0A400792079ADA6A49180A43B7
:10431000DA62DB6A0B400893089B80239B010E93B3
:10432000A44B29006B600123AB60FEF7C5F8202386
:1043300029000E93A0481F3BAB606C60FEF7BCF8F1
:10434000220021000720FEF763F80720FEF790F80F
:104350009A4E9B4B300033609A4BB46073600123DC
:104360003461F3607461B461F4613462FEF708FB98
:1043700030002100FEF7A2FC3000210009AEFEF75C
:10438000C3FC14222100300001F024F9282221006E
:104390002800049401F01EF98B4F8C4B38003B60D1
:1043A0007F23BB608033FB607C603C617C61BC61CF
:1043B000FC61FFF743FA0122310038003470747059
:1043C000B470F4603461FFF7A1FA012202AB1A72F3
:1043D00001225A72012204A99A7238000122DC7269
:1043E000FFF712FB312302AA9B180122DA77802300
:1043F000012229005B0038006B622C706C70AC707D
:104400006C60EC602C616C61AC61EC61FFF768FB87
:104410006F48704B8460036082235B004360FC3311
:104420008361FA3BFF3BC362C46004614461C461C1
:10443000046244628462FFF773FC6748674B8460E0
:104440000360E1235B0243600C23C46043610461A9
:104450008461C46104624462FFF7B6FE00F094FE1A
:1044600000F01EFA00F04EFD00F08EFD1C2215211A
:10447000200000F093FE5A4800F0ECFDFF2000F011
:1044800051FEFF2000F054FE00F0FCFDFA20C000B9
:10449000FDF79CFF00F038FE002C4AD100F078FCBC
:1044A000060000F097FC0A210700FBF7D3FE0A2163
:1044B00000B2FBF7B5FF09B2CA178B18534064214D
:1044C00038000393FBF7C6FE0A2107B23000FBF762
:1044D000C1FE0A2100B2FBF7A3FF09B2CB17C9182E
:1044E0005940019130006421FBF7B4FE00B2009006
:1044F000039B3A003B49280001F084FB422000F076
:1045000011FE802000F014FE0134E0B20321FBF71D
:104510009DFE2800CCB200F09DFD00F0B3FD00F040
:1045200091FE80213C30090600F0B4FE00F0EEFE62
:10453000B0E7012C15D100F025FB0A210700FBF79D
:1045400085FE38008EB20A21FBF7FAFD330082B2F5
:104550002549280001F056FB102000F0E3FD402023
:10456000D0E7022CD0D100F049FD00F063FD070038
:1045700000F060FDFDF7ACFC1C4A1D4BFCF7DEFEB5
:1045800000221C4BFCF7DAFEFDF76EFC0A21060048
:104590003800FBF75FFE330002B21749280001F034
:1045A00031FB402000F0BEFD2020ABE700100240B0
:1045B000000800500000211000040050F802002004
:1045C000005400405B3D30004403002000280040C0
:1045D0006803002000300140C00300200044004078
:1045E0008D73000896730008A77300083F355EBA04
:1045F000490CD23F00803040AE7300080122054BC9
:10460000596B0A435A638022996B52050A439A6395
:104610007047C0460010024010B5040086B0142256
:10462000002101A800F0D6FF104B22689A421AD14F
:1046300002210F4C0F48E26A0A43E262E36A0B4030
:104640000093009BC0239B000193122302930F3B16
:10465000049301A901330593FDF72EFF8023A26B7C
:104660009B031343A36306B010BDC0460054004033
:104670000010024000040050074B026810B59A4237
:1046800009D1064A0649936B06480B40C021936343
:104690008900FDF7CFFF10BD00540040001002401C
:1046A000FFFFDFFF00040050094B026810B59A427B
:1046B0000DD18023074ADB02116D02200B431365E5
:1046C00000221100FDF7A4FE0220FDF7D1FE10BD6F
:1046D000002800400010024010B5040086B01422EB
:1046E000002101A800F076FF0F4B22689A4218D1F2
:1046F00080220E4B5201596BA0200A4301215A63BC
:10470000DA6AC0050A43DA62DB6A0B400093009B59
:10471000E0230193DE3B02935B1801A90493FDF7AC
:10472000CBFE06B010BDC046003001400010024074
:10473000074B026810B59A4209D1A020054A0649E4
:10474000536BC0050B405363E021FDF773FF10BDB1
:104750000030014000100240FFEFFFFF10B50400E1
:1047600086B01422002101A800F034FF104B22680B
:104770009A421AD180220F4B9202996BA0200A43D1
:1047800001219A63DA6AC0050A43DA62DB6A0B40E8
:104790000093009B0C2301930A3B02935B18049344
:1047A0005B1801A90593FDF787FE06B010BDC04652
:1047B0000044004000100240074B026810B59A42C6
:1047C00009D1A020054A0649936BC0050B409363AD
:1047D0000C21FDF72FFF10BD0044004000100240E7
:1047E000FFFFFDFF7047FEE77047704710B5FDF70C
:1047F000DBFD10BD10B50248FEF7BAFF10BDC04684
:1048000044030020802010B58001FDF791FF10BD0A
:104810000A4B10B519680200002901D10849196036
:104820006946186882188A4206D900F0C5FD0C2333
:1048300003600120404210BD1A60FCE748020020DE
:10484000440400208022104B520019680A431A6069
:10485000DA680E490A40DA601A680D490A400121F7
:104860001A609A688A439A601A680A490A401A606C
:10487000DA6809490A40DA6000221A618022074B8F
:1048800012059A607047C046001002400C40FF8835
:10489000F6FFF6FEFFFFFBFFFFFF02FF00ED00E06B
:1048A000F0B5FA26AA2393B0634D0CACB600237082
:1048B00022000096A93BEE212800FEF7D1F80096D1
:1048C00022001623EE212800FEF760F92278637893
:1048D000120213431BB20393A278E378120213432C
:1048E0001BB20493A77AE37A3F023B430593A27B72
:1048F000E37B120213431BB20693A37CE67C1B02EC
:104900001E4333B20793237D657D1B021D4323792C
:1049100060791B02184300B2FDF7DAFA0022474B18
:10492000FCF70CFD08900991A379E0791B0218436C
:10493000FDF7CEFA424A434BFCF700FD237B06000D
:10494000607B1B02184300B20F00FDF7C1FA002282
:104950003D4BFCF7F3FC0A900B91237A607A1B0223
:104960001843FDF7B5FA394A394BFCF7E7FC394BE8
:104970002DB2186059600598FDF7ECFA364B1860B7
:1049800059600798FDF7A4FA344A354BFCF7D6FC7A
:10499000344B186059602800FDF79AFA0022324B18
:1049A000FCF798F9314B186059600398FDF790FABD
:1049B0002F4B186059600498FDF78AFA00222D4B9E
:1049C000FCF7BCFC2C4B186059600698FDF780FA88
:1049D00000222A4BFCF7B2FC294B002218605960D8
:1049E000284B30003900FCF7A9FC274B3200186037
:1049F0005960089809993B00FCF7A0FC234B18600C
:104A000059600A9A0B9B30003900FCF797FC204B49
:104A1000186059601F4B20482049186059600020D9
:104A20001F4B20491860596000201F491F4B186018
:104A3000596013B0F0BDC046F80200200000743F7A
:104A4000FCA9F1D24D62603E0000F93E9A99999915
:104A50009999893E50020020580200207B14AE47ED
:104A6000E17AB43F60020020000064406802002048
:104A7000880200200000943F900200200000493F7F
:104A8000980200200000E040A0020020A8020020C0
:104A9000B0020020700200200AD7A3703DEA024055
:104AA0007802002086C6EF3FE08AD23E80020020D6
:104AB000F0B5F423FA2685B003AC2B4D2370B60075
:104AC000C63B6370220000962C3BEE212800FDF7C8
:104AD000C7FF0520FDF77AFCF62322002370EE21A4
:104AE0000096F53B2800FDF7BBFF2200009602234D
:104AF000EE212800FEF74AF82078FDF7E9F90022B8
:104B00001A4BFCF71BFC060060780F00FDF7E0F97C
:104B100002000B0030003900FBF7CCFD144B1A6883
:104B20005B68FCF78BFE134B1A685B68FCF706FCAE
:104B3000114B04001A685B680D00FBF7BBFD0B000E
:104B40000E49020008684968FCF7C4F822002B00EF
:104B5000FBF7B0FD00220A4BFCF7F0FBFDF784F9F0
:104B600000B205B0F0BDC046F80200200000704061
:104B7000580200205002002068020020600200203D
:104B800000005940F0B5FA2689B0FFF791FFF423F1
:104B9000604D07ACB60023706370220007000096DA
:104BA000F23BEE212800FDF75BFF1A20FDF70EFC1B
:104BB000F62322002370EE210096F53B2800FDF736
:104BC0004FFF220000960323EE212800FDF7DEFFB1
:104BD0003800FDF77DF900224F4BFCF77BF80022EF
:104BE0004E4BFCF72BFE02000B0002900391FCF7EA
:104BF000A5FB049005912078FDF76AF90022484B47
:104C0000FCF79CFB060060780F00FDF761F90200DD
:104C10000B0030003900FBF74DFD0600A0780F00B7
:104C2000FDF756F900223F4BFCF788FB02000B0012
:104C300030003900FBF73EFD3B4B06001A685B680D
:104C40000F0004980599FCF779FB384B04001A68AB
:104C50005B680D0002980399FCF770FB02000B00E3
:104C600020002900FBF726FD314B1A685B68FBF733
:104C700021FD02000B0030003900FCF7DFFD2D4B59
:104C800006001A685B680F0004980599FCF756FB4C
:104C9000294B04001A685B680D0002980399FCF721
:104CA0004DFB02000B0020002900FBF703FD234B06
:104CB0001A685B68FBF7FEFC02000B00300039004D
:104CC000FCF708F802000B0004000D00FCF736FBAF
:104CD0001B4B1A685B68FCF731FB1A4B06001A681D
:104CE0005B680F0020002900FCF728FB02000B0086
:104CF00030003900FBF7DEFC134B1A685B68FBF7EA
:104D0000D9FC0022114BFCF719FBFBF7AFFB80B27B
:104D100009B0F0BDF8020020000059400000394001
:104D2000000070400000703F9802002090020020B8
:104D300088020020B0020020A8020020A00200206B
:104D40008002002078020020700200200000244031
:104D500070B50F22FA2686B00C4D6A44B60010706A
:104D60000123802100962800FDF77AFE05AC64201F
:104D7000FDF72CFB00960323220080212800FDF77D
:104D800005FF208840BA80B206B070BDF80200204E
:104D900010B5F520FFF7DCFF0323984380B2FBF743
:104DA00043FCFDF70FF90022074BFCF7C7FA00227E
:104DB000064BFCF743FD0022054BFCF7BFFAFDF75D
:104DC00053F800B210BDC04600405F3F00001840DD
:104DD0000000594010B5F320FFF7BAFF03239843B2
:104DE00080B2FBF721FCFDF7EDF8084A084BFCF711
:104DF000A5FA084A084BFCF721FD0022074BFCF7F7
:104E00009DFAFDF731F800B210BDC046D7A3703D42
:104E10000AF7653FCDCCCCCCCC6C47400000594064
:104E200070B50F22FA26172486B00A4D6A44B600E0
:104E300010706C4400960123C0212800FDF710FE7D
:104E4000009601232200C0212800FDF79FFE207854
:104E500006B070BDF80200201FB5FA2303AA9B001C
:104E60001070517003480093C0210223FDF7F8FD34
:104E700005B000BDF802002007B58BB2FA21890009
:104E8000020000910248C021FDF7EAFD07BDC046BF
:104E9000F8020020F0B51400FA260F220F0085B0AA
:104EA000094D6A44B600107001230096C021280005
:104EB000FDF7D6FDA3B200963A00C0212800FDF709
:104EC00065FE05B0F0BDC046F80200207FB50F2496
:104ED000FA2620230A4D6C44B60023702200009667
:104EE0001F3BC0212800FDF7BBFD009601232200D7
:104EF000C0212800FDF74AFE207804B070BDC046EE
:104F0000F802002073B50020FFF78AFF472801D080
:104F1000002076BD01211820FFF79EFFFFF7D6FF86
:104F2000051EF5D117210720FFF796FF290017204E
:104F3000FFF792FF1826A22301AC02212000637024
:104F40002670FFF799FF29001720FFF785FFA3239D
:104F50000221200063702670FFF78EFF29000F20CA
:104F6000FFF77AFF29001020FFF776FF01210420C8
:104F7000FFF772FF01212120FFF76EFF03200121BF
:104F8000FFF76AFF0120C4E713B5B0211720FFF730
:104F900063FF18246B466A461C70A12368460221F1
:104FA0005370FFF769FF6A46132313706833537019
:104FB000103B93706A3BD370002368460521137140
:104FC000FFF75AFF20211720FFF746FF6B466A467E
:104FD0001C70B223684602215370FFF74DFF202159
:104FE0001720FFF739FF6B466A461C70BF2302216A
:104FF00068465370FFF740FF13BD000010B5FDF782
:10500000DFF9062104001820FFF726FF20210848B9
:10501000FDF786FB012804D001212120FFF71CFFAA
:1050200010BDFDF7CDF9001BC728EFD9F4E7C04646
:105030000004005013B501AC022221002220FFF72A
:1050400029FF637820781B0218430138FF3800B22B
:1050500016BD000070B50400FBF756F800230749A1
:10506000074DC0B2834200DB70BDE25C5E5CAA18F3
:10507000203A127832435A540133F3E7B902002040
:10508000D8730008F0B587B003AD092200212800CD
:1050900000F0A0FA0023194F01335A1EBA5CEA54FB
:1050A000082BF9D1FA239B0000932A0009237021D1
:1050B0001348FDF7D5FC022600240722114B121BD2
:1050C0001B78210013410122013413405A017B5CFB
:1050D000395D9B01C9080B4313436B70FA239B0096
:1050E0002E702A0000937021022305480336FDF735
:1050F000B7FCF6B2082CE0D107B0F0BDB902002031
:10510000F8020020B802002010B508220021034850
:1051100000F060FA0022024B1A7010BDB9020020A4
:10512000B8020020014B18707047C046B80200203A
:10513000F0B50023072501262024084A0700E91AB4
:105140000F41374206D0D15C2143D1540133082BA3
:10515000F4D1F0BDD15CA143F7E7C046B90200200D
:105160001FB580235B4218430F22FA236A449B0039
:1051700010707021009303480123FDF771FC05B006
:1051800000BDC046F802002010B54B20FFF7E8FF35
:10519000FFF7BAFFFFF776FF10BD0000F0B507007C
:1051A0000E00150087B001AC14220021200000F091
:1051B00011FA00222100044827706670A570FEF7DE
:1051C000A5FB07B0F0BDC04644030020F0B50025A4
:1051D00004008BB005AE14220021300000F0FAF973
:1051E000174F2A00310038000495FEF74BFD2A00C6
:1051F00004A93800FEF770FD33787778019304AB8B
:105200009B786421029304AB5B78013B039304AB6E
:10521000D878FBF71BF8B37820002360019BC9B254
:10522000A360029B6431E360039B676023610123F9
:105230005B426161A561E56123620BB0F0BDC046D0
:105240004403002000B58BB001A8FFF7BFFF01A801
:1052500000F094FA0BB000BD70B51C000C4B1500AB
:10526000186018000E0000F0ADF803783370037971
:105270002B70037A2370027B049B1A700369059AD2
:10528000013313704369069A6C33137070BDC046C6
:10529000C4020020F0B580271B4E97B07F000CADF4
:1052A0000490059130003900FEF700FA07AC28227F
:1052B0000021280000F08EF914220021200000F0C7
:1052C00089F9132302AA9B18152202A95218162144
:1052D0000293019302A814AB0918009304982300C9
:1052E000FFF7BAFF2B0007CC07C306CC06C300228A
:1052F000059B290030006B61AA61EA616F62FEF7CD
:10530000EFFB17B0F0BDC0464403002070B5FDF7B9
:1053100029FDFDF74BFDFDF76BF80F4E3000FDF753
:1053200085FB0E4D2800FEF73BFD0D4C2000FEF7DF
:105330004EFD01210800FDF71DFDFEF777FFFDF78B
:105340005FF83000FDF71CFB2800FEF7E9FC2000A9
:10535000FEF73AFF70BDC046F80200206803002047
:10536000C00300200D488546002103E00C4B5B582C
:10537000435004310B480C4B42189A42F6D30B4A67
:1053800002E0002313600432094B9A42F9D3FFF77D
:1053900059FA00F0E7F8FEF791FFFEE70020002041
:1053A000CC760008000000202802002028020020FF
:1053B00044040020FEE70000014B18687047C04617
:1053C00010000020074B70B51C680500E36B002B34
:1053D00003D1242000F0EAF8E0632800E16B00F03C
:1053E00003F870BD10000020F0B5056885B00C0012
:1053F00028005249FAF72EFF504906002800FBF713
:105400000FF80F1E00DA80E04D4BE1213800090152
:10541000F518FAF71FFFE121A06009013800FAF73B
:10542000FFFF0E003C213000FAF714FF3C216060C2
:105430003000FAF7F5FFE81C21600721FAF7F0FFCA
:105440002800A1613F49FAF705FF3F4E3F49464317
:10545000761907003000FAF773FE3D4985193000D0
:10546000FAF76EFE3B492D1A3000FAF769FE6E21FD
:105470002D1AFF312800FAF763FE37490190280002
:10548000FAF75EFE324986192800FAF759FE6E21B6
:10549000019BFF315943361A731A180005267043D1
:1054A000992102300293FAF74BFE050099206843D8
:1054B000029B0230013331000393FAF741FE039B54
:1054C0001B1A03930223092D00D90C3B5D19C82335
:1054D0005B005F43019B0126FF180023AE425B4146
:1054E000FF183223029AFF339A4212D91600333E34
:1054F000FF3E1A4B2000FF18039BE661E360002388
:1055000067612561236205B0F0BD0C4BCF18144BC9
:105510007BE7019B9B0705D164210198FAF796FE72
:10552000002906D1C82101984900FAF78FFE4E42A2
:105530004E4102983B308619DBE7C046805101009E
:105540006CFA0A00B13A02004FC5FDFFAC8E0000B4
:10555000B4050000B03A0200948E000094F8FFFFFA
:105560006BFA0A0070B500260C4D0D4C641BA4109C
:10557000A64209D1002601F0AFFE0A4D0A4C641B79
:10558000A410A64205D170BDB300EB589847013670
:10559000EEE7B300EB5898470136F2E7C47600080F
:1055A000C4760008C4760008C876000810B5034B1E
:1055B0000100186800F0B6FA10BDC04610000020C7
:1055C00010B5034B0100186800F062FA10BDC04628
:1055D0001000002003008218934200D17047197018
:1055E0000133F9E7F7B5016804003B290BD93C22E8
:1055F000684600F05FFD63680099019A5B1863607C
:10560000002A6CDB226061683B290BD93C2268468A
:1056100000F050FDA3680099019A5B18A360002A6E
:1056200062DB6260A16817290BD91822684600F076
:1056300041FDE3680099019A5B18E360002A58DB9A
:10564000A26021690B290BD90C22684600F032FDBB
:1056500063690099019A5B186361002A4EDB22613D
:1056600065691C23AA070FD164212800FAF7D8FE28
:105670001D23002908D13D4B9131E818FF31FAF77D
:10568000CFFE4B424B411C33E268002A3BDD022631
:10569000374F2169E268012961D08800C0598242F0
:1056A00035DD121A0131E26021610C29F1D10023AC
:1056B00065692361681C60611C338207E9D1583138
:1056C000FAF7AEFE1D230029E3D12A4B9131E818E9
:1056D000FF31FAF7A5FE4B424B411C33D9E73C3270
:1056E000013B226063608EE73C32013B6260A36055
:1056F00098E71832013BA260E360A2E70C32013B5D
:1057000022616361ACE71D27E668002E00DDF7BD6E
:105710002269013A2261013217D10B230322656904
:105720002361681E6061113310420ED16421FAF7C3
:1057300077FE3B00002908D10F4B9131E818FF316B
:10574000FAF76EFE4B424B411C3321691A000129C6
:1057500002D0074A89008A589619E660D4E7934236
:10576000D5DAD21AE260266193E7C0466C070000E2
:10577000047400086D0700006B070000F0B587B0E7
:10578000040000F0F5FC04902000FFF72BFF3C2301
:105790006268A1685343226865699B18E12212017F
:1057A0004A439B18E26803932369501EB14A99004B
:1057B0008A5882180192012B12DDAB0710D16421A7
:1057C0002800FAF72DFE002907D1AB4B9131FF31AC
:1057D000E818FAF725FE002902D1019B0133019355
:1057E000019BA64AE361A64BEB18934200D9F8E06F
:1057F00046230293462D00DC72E0B727C8267F00BF
:1058000076000322029B134268D118006421FAF744
:1058100007FE3B00002909D1029B974A31009818E6
:10582000FAF7FEFD4B424B416E33FF33019AD3181A
:105830000193029B013302939D42E2D1019A914B65
:105840005343039A9B18039300F0ACFA00F0ACFAB0
:105850008D4B1D68002D00D107E16369864A266AD9
:105860009818002E00DD0126049B5B680593984282
:1058700000D073E0049B039DD86BDB6905931A1A73
:10588000049B996B1B6ACF1ABD4200DB6DE0049943
:105890000968002900D16DE00399914200DAE1E046
:1058A0000125B94200DB0025002E00DBA0E0012D20
:1058B00000D0DAE00125049BDE6B039B9E1900F00B
:1058C00072FA0198256204300721FAF7A9FD002930
:1058D00000DA84E0A161300007B0F0BD6E23A4E7D8
:1058E0009D42ABD045260327AE4217DC3D4230D166
:1058F00064212800FAF794FD00292CD15E4B9131E8
:10590000E818FF31FAF78CFD0B00594259416E310E
:10591000FF31019B02955B1A01938FE73E4216D13E
:1059200064213000FAF77CFDB7235B00002909D120
:10593000514B9131F018FF31FAF772FD4B424B4158
:105940006E33FF33019A013ED31A0193CCE76E23E5
:10595000F7E76E21DCE7B7214900DAE700F074F9D8
:10596000002800D086E73500A1E7039D091A8D4283
:10597000F9DB8CE7039D954236DA039A0125BA429A
:1059800000DA91E70D008FE701277F424BE0B62157
:105990004900E1618BE76E2162E0029A1A4217D159
:1059A00064211000FAF73CFD002913D1324A029B12
:1059B0009446913163441800FF31FAF731FD0B0032
:1059C000594259416E31FF31B94206DDE7616EE758
:1059D0006E21F8E7B7214900F6E77F1AF6E70731AD
:1059E00078E70126764276E70125002E00DA61E7A6
:1059F0006E40012E00D05AE71B1A002D00D15B42E9
:105A000022682000D2182260039AE768D318039313
:105A1000FFF7E8FDE368DF1B00D148E7012FB3DCA7
:105A20007B1C00DA3700019BE269DB190193032339
:105A3000BF18B2D5029A501E1842A8D16421FAF7B5
:105A4000EFFC0029A7D1114A029B9446913163448F
:105A50001800FF31FAF7E4FC0B00594259416D314F
:105A6000FF3196E70025002EC2DA049B1E6A039BD5
:105A70009E1924E7347400086C070000204E0000D3
:105A80001027000080510100EC0200206B0700008D
:105A900070B50500002910D00C1F2368002B00DA18
:105AA000E418280000F068FB1D4A1368002B05D19C
:105AB00063601460280000F060FB70BDA34209D948
:105AC000216860188342F3D118685B68411821602F
:105AD000EEE713005A68002A01D0A242F9D91968EA
