:020000040800F2
:1000000000200020593B0008B1360008B336000834
:1000100000000000000000000000000000000000E0
:10002000000000000000000000000000B5360008DD
:100030000000000000000000B7360008B9360008D4
:10004000A93B0008A93B0008C1360008A93B0008ED
:10005000A93B0008A93B0008A93B0008A93B0008F0
:10006000A93B0008A93B0008A93B0008A93B0008E0
:10007000A93B0008A93B000800000000A93B0008BC
:1000800000000000A93B0008000000000000000084
:10009000A93B000800000000A93B0008A93B00089C
:1000A000A93B0008A93B0008A93B0008A93B0008A0
:1000B000A93B0008A93B0008A93B0008A93B000890
:1000C00010B5064C2378002B07D1054B002B02D02E
:1000D000044800E000BF0123237010BD2802002067
:1000E00000000000CC5A0008044B10B5002B03D0D0
:1000F0000349044800E000BF10BDC04600000000F6
:100100002C020020CC5A00080023C25C0133002AD4
:10011000FBD1581E704702780B78002A03D00130BB
:1001200001319A42F7D0D01A7047000002B47146EC
:1001300049084900095C49008E4402BC7047C0462A
:10014000002243088B4274D303098B425FD3030A16
:100150008B4244D3030B8B4228D3030C8B420DD329
:10016000FF22090212BA030C8B4202D312120902B7
:1001700065D0030B8B4219D300E0090AC30B8B42F5
:1001800001D3CB03C01A5241830B8B4201D38B03A3
:10019000C01A5241430B8B4201D34B03C01A524148
:1001A000030B8B4201D30B03C01A5241C30A8B428B
:1001B00001D3CB02C01A5241830A8B4201D38B0276
:1001C000C01A5241430A8B4201D34B02C01A52411A
:1001D000030A8B4201D30B02C01A5241CDD2C3098C
:1001E0008B4201D3CB01C01A524183098B4201D308
:1001F0008B01C01A524143098B4201D34B01C01AF3
:10020000524103098B4201D30B01C01A5241C3086A
:100210008B4201D3CB00C01A524183088B4201D3D9
:100220008B00C01A524143088B4201D34B00C01AC5
:100230005241411A00D20146524110467047FFE731
:1002400001B5002000F0F0F802BDC0460029F7D04B
:1002500076E7704703460B437FD4002243088B4266
:1002600074D303098B425FD3030A8B4244D3030B3D
:100270008B4228D3030C8B420DD3FF22090212BA02
:10028000030C8B4202D31212090265D0030B8B427E
:1002900019D300E0090AC30B8B4201D3CB03C01A68
:1002A0005241830B8B4201D38B03C01A5241430B43
:1002B0008B4201D34B03C01A5241030B8B4201D333
:1002C0000B03C01A5241C30A8B4201D3CB02C01A9E
:1002D0005241830A8B4201D38B02C01A5241430A16
:1002E0008B4201D34B02C01A5241030A8B4201D305
:1002F0000B02C01A5241CDD2C3098B4201D3CB01AC
:10030000C01A524183098B4201D38B01C01A52415A
:1003100043098B4201D34B01C01A524103098B425E
:1003200001D30B01C01A5241C3088B4201D3CB0049
:10033000C01A524183088B4201D38B00C01A52412C
:1003400043088B4201D34B00C01A5241411A00D2DC
:1003500001465241104670475DE0CA0F00D0494245
:10036000031000D34042534000229C4603098B42B5
:100370002DD3030A8B4212D3FC22890112BA030A3D
:100380008B420CD3890192118B4208D389019211BF
:100390008B4204D389013AD0921100E08909C30944
:1003A0008B4201D3CB01C01A524183098B4201D346
:1003B0008B01C01A524143098B4201D34B01C01A31
:1003C000524103098B4201D30B01C01A5241C308A9
:1003D0008B4201D3CB00C01A524183088B4201D318
:1003E0008B00C01A5241D9D243088B4201D34B0033
:1003F000C01A5241411A00D20146634652415B1075
:10040000104601D34042002B00D549427047634655
:100410005B1000D3404201B5002000F005F802BD9A
:100420000029F8D016E770477047C046002B11D15D
:10043000002A0FD1002900D1002802D00021C94391
:10044000081C07B4024802A14018029003BDC04630
:10045000D9FFFFFF03B4684601B5029800F006F823
:10046000019B9E4602B00CBC7047C046F0B5574693
:100470004E464546DE46E0B5040083B00D00924688
:1004800099468B422FD82CD04946504600F02EFF7B
:1004900029000600200000F029FF331A9846203B6F
:1004A0009B4600D574E053465A4693401F0053467E
:1004B000424693401E00AF4229D826D05B46A41B7B
:1004C000BD41002B00DA79E0002200230092019365
:1004D00001235A46934001930123424693400093DF
:1004E00019E08242D0D900220023009201930C9B94
:1004F000002B01D01C605D600098019903B03CBCEA
:1005000090469946A246AB46F0BDA342D6D90022FA
:100510000023009201934346002BE8D0FB077208AA
:100520001A4346467B080EE0AB4201D1A2420CD8EA
:10053000A41A9D41012024196D410021013E241877
:100540004D41002E06D0AB42EED9013E24196D413B
:10055000002EF8D15B460098019900196941002BE3
:1005600022DB2B005A46D3402A004446E2401C00BE
:100570005B461500002B2CDB26009E403300260036
:100580004746BE403200801A994100900191AEE783
:10059000424620239B1A5246DA40414613004A46FF
:1005A0008A4017001F4382E7424620239B1A2A00F5
:1005B00046469A402300F3401343D5E742462023A2
:1005C00000219B1A0022009101920122DA4001923F
:1005D00082E74246202326009B1ADE402F00B446C5
:1005E000974066463B003343C9E7C04610B5041E3A
:1005F00027D000F05DFE9E231B1A962B0ADC962264
:10060000D21A94406402640ADBB26402DB05600A19
:10061000184310BD992B17DC9922D21A002A27DD26
:1006200094402200134C1440510704D00F210A407B
:10063000042A00D00434620112D4A401640ADBB29B
:10064000E3E700230024E0E7B9222100D21A914019
:100650000A00511E8A410521091ACC401443DBE7E8
:10066000044B1C409F23A4011B1A640ADBB2CCE795
:100670002200D7E7FFFFFFFBF0B557464546DE46B1
:100680004E46E0B50C0398464E00230B87B007009A
:1006900092469B46760DCD0F002E6BD06D4B9E4241
:1006A00035D080245B46420F2404DB0014431C43F6
:1006B000C3009946684BA3469C4600230027664426
:1006C000029343461C035A00DB0F5046240B520D85
:1006D000984600D176E05F4B9A426DD08023410F5F
:1006E0001B040B435C49E4008C461C43C300002000
:1006F00062444146B6186940721C01919446074312
:100700000F2F00D9B0E0554ABF00D25997465B463B
:100710000343994600D087E000239B460233082715
:100720000293CEE742460192022867D0032800D107
:100730000EE2012800D062E1002300240022994645
:1007400001990140CDB2002112030B0D120B1B05C4
:100750001343434A240513401C436400ED07640817
:100760002C434846210007B03CBC90469946A2461F
:10077000AB46F0BD034399464FD05B46002B00D1FA
:1007800089E1584600F094FD03000B3B1C2B00DD73
:100790007AE11D22D31A3A0001005C46DA4008399A
:1007A0008C4013008F4023439B46B94600232D4EB7
:1007B0000027361A029384E7534623432AD10024A4
:1007C000022096E75346234320D0002C00D157E166
:1007D000200000F06DFD03000B3B1C2B00DD49E108
:1007E0001D21CB1A51460200D9405346083A944085
:1007F00093400C431B4A121A00207AE70125019B03
:10080000144C1D400023002299469CE7002400223E
:1008100001206EE7534603206BE700239B4601331C
:100820000427002602934CE7032381460C270293FA
:1008300047E780220023002512039946054C82E7F2
:100840005C464B4602986FE75C464B460195029822
:100850006AE7C046FF07000001FCFFFFF05A0008EE
:10086000FFFF0F800DFCFFFF4A464946170C1A0C8C
:100870001B041B0C08041900000C4143150088469A
:1008800019007D43794303958946290015004543A6
:100890004D44029545462D0CAA46029D5544A94556
:1008A00006D98A46802149028946CA4451460391A5
:1008B000290C0491414609042D04090C884629009D
:1008C000250C24044144240C059121004143884611
:1008D000210079438A466843414650448146080CCA
:1008E00048446F43824503D98021490289464F44D9
:1008F000010C894639004944029141460F0404998C
:100900003F0C88460004C019804441460491594672
:100910000F0C0904090C884659438A463900514393
:10092000894641464A435146090C8B467B43D218BF
:100930005A44934203D980235B029B46D9445146D3
:100940000904090C8A46414661437C43130C120496
:100950004B445244A1468A463C0041466C434D43B9
:1009600051464D440F0C7D19A94503D980214902F8
:1009700088464444049F0399B84641448B468345C6
:10098000804141428846514608042F04000C3F181C
:100990005846029910188946904292414F44BA46EF
:1009A000524299469346C244D144CB448F42BF4100
:1009B000C245894199459B41934592417F424942B5
:1009C0002D0C52420F435B4213437F19FF185B46C5
:1009D0003C19DB0D059A64021C43430213435D1E60
:1009E000AB415A46C00D034352021343E20156D5B0
:1009F00001205A0803401343E207134364085A488E
:100A0000604400284DDD5A0709D00F221A40042AFD
:100A100005D01A1D9A429B415B42E4181300E20183
:100A200004D58020514AC00014406044504A90428E
:100A300000DDE3E60125DB0862071A436402019B3F
:100A40009146220B4405640D1D407CE680225946E8
:100A50001203114208D0144206D122431203120B92
:100A600045469946434C6EE65B461A431203120B09
:100A7000404C68E603005446283B9C400023B9E6FE
:100A800000F016FC2030A6E60300283B9F40002320
:100A9000BB4699468AE600F00BFC203074E6B4466B
:100AA000ADE701252A1A382A06DD019B00241D40E6
:100AB00000230022994646E61F2A21DC202520003B
:100AC000AD1A1E00AB40A840D6405D1EAB4130437E
:100AD0001843D440430709D00F230340042B05D00B
:100AE0000300181D98429B415B42E418230221D564
:100AF0000125019B01241D4000230022994622E686
:100B00001F2521006D42281AC1400800202A1DD04F
:100B10005F35AA1A944023435C1EA3410725034373
:100B20001D400022002D09D00F2200241A40180079
:100B3000042AD6D1030065076402220BDB082B438D
:100B400001259946019B00241D40FCE50024E2E7B5
:100B5000802201251203224301991203120B0D403A
:100B60009946044CEFE5C046FF030000FFFFFFFE7F
:100B7000FE070000FF070000F0B54646D6464F4688
:100B80000C03C0B5CD0F4E00610A440F0C43C100E9
:100B90005800400D84468A460F001903500F490A39
:100BA0000143C648760DA846DB0FD200844500D12C
:100BB000D8E001204340AB4200D1A6E06046351AA0
:100BC000002D00DC05E1002810D10B00134300D1FB
:100BD000D7E06B1E002B00D04BE153469F1ABA455D
:100BE0008041641A4042241A01261EE0B34B9E4203
:100BF00048D080231B041943382D00DD19E11F2D37
:100C000000DD4CE120230F005B1B10009A409F4049
:100C1000E840531E9A41E940074317435346DF1B00
:100C2000611ABA45A44164420C1B230200D4C5E0FA
:100C30006402650A002D00D1F6E0280000F038FBC0
:100C40000300083B1F2B00DDE9E020223C00D21A04
:100C50009D40D4409F4025439E4200DDDBE09E1B2B
:100C6000731C1F2B00DD0AE120223800D21A290054
:100C700097402C009140D8407A1E9741DC400026D6
:100C800001430F437B0709D00F233B40042B05D0C2
:100C90003B1DBB42BF417F42E4191F00230225D503
:100CA000864B01369E4200D1AFE0854B01251C40AA
:100CB00043466207FF08640276051743240B760D4E
:100CC0001D4000212403230B0C0D7E4A24051C43E8
:100CD0001440330523435B00ED075B082B433800CA
:100CE00019001CBC90469946A246F0BD012543461A
:100CF0006207FF081743E4081D40704B9E4236D040
:100D000024037605240B760DDBE76346F31A002BEC
:100D100000DC94E06046002835D068488642B1D0B7
:100D200080273F043943382B00DCFDE00A431700DD
:100D300000217A1E97415744574580410919444282
:100D40000C1923023AD55D4B01369E4200D14BE18E
:100D500001225B4B1C407B0817401F43E2071743EF
:100D600064088FE70800104300D024E721E7230040
:100D70003B4300D1B9E18022120314432403240B26
:100D80009FE72E007EE70800104300D1CAE0581EFE
:100D90008446002800D0E7E0524452458041641860
:100DA0004042241817000126230207D50226CFE768
:100DB00064462C4300D1B3E12C0067467B0700D08A
:100DC00062E76307FF081F4301254346E4081D400F
:100DD00093E7002D78D1751C6D056D0D012D00DC9C
:100DE000F2E05046801A8245BF41651A7F42ED1BF2
:100DF0008446280200D48CE05046171ABA42924129
:100E00000C1B5542651B984614E7012543460024F8
:100E10001D40002755E72A4CF61A2C4032E73D00CA
:100E200028388540002717E7380000F041FA2030C5
:100E300006E70A43170000217A1E9741EEE6002BD1
:100E400000D0E5E0731C9C465B055B0D012B00DCCC
:100E50009FE01A4B9C4500D1C5E052445245804169
:100E6000641840422418E70752081743640866468E
:100E700008E71248854200D185E01D00BCE6290044
:100E80001F3EF140202B00D17FE04022D31A9D402D
:100E90002F437D1EAF4100240F4300268EE72B0019
:100EA0000F00203BDF40202D71D040235D1BA94067
:100EB0000A43511E8A4100211743AFE6FF07000095
:100EC000FFFF7FFFFFFF0F80002E3ED0B34EB445E3
:100ED00045D0802636046D423443382D00DDA8E02D
:100EE0001F2D00DD1FE1202627005046761BB7404E
:100EF000E84007435046B040461EB041EC403843FE
:100F0000171ABA4292410C1B5242A41A66469846DE
:100F10008BE6644667462C4300D08BE6002500260E
:100F20000027EAE61E00ADE61F2B60DC2027F81A3A
:100F30000F00844687401000D84007436046824037
:100F4000501E8241D9401743F5E62600504606431D
:100F500005D0ED43002DD3D0904EB445BDD10C004B
:100F60001700664698468DE68C4883420BD0634650
:100F7000D9E6002D00D096E00800104300D1E2E051
:100F80000C0017009846854E7CE6002580E700217E
:100F90008EE7230050460343002E00D0A8E0002B2C
:100FA00000D1DEE00B00134300D16BE65244524502
:100FB00080416418404224181700230200D4FDE643
:100FC000774B66461C405DE6250050460543002EE3
:100FD000CFD1002D4FD10C00144300D1A0E00C0064
:100FE000170098464EE666460024002785E61F0057
:100FF0000800203FF8400700202B00D18EE0402061
:10100000C31A99400A43511E8A410021174392E6B0
:10101000002E14D126005046064362D0DB43002B3D
:101020005CD187189742924164185242A4186646D0
:1010300087E650462043441EA041002460E7574EF7
:10104000B4454ED0802636045B423443382B00DD55
:101050007FE01F2B00DD8BE0202627005046F61A8C
:10106000B740D84007435046B040461EB041074302
:10107000DC40BF18D6E70D00154300D102E650460C
:10108000801A8245BF41651A7F42ED1B84462802C3
:1010900000D48DE65046171ABA4292410C1B5242B8
:1010A000A41A9846EEE50D00154300D16BE75046B3
:1010B0006707C00807438020E4080003044207D004
:1010C000CD08054204D12C009846D70849070F43A4
:1010D0007B0FE4001C43FF00304ED3E52F4EB44598
:1010E000B4D10C0017006646CCE500270024E8E5E3
:1010F000002B39D00B00134300D144E7C008670729
:1011000007438020E40800030442E1D0CB080342F7
:10111000DED1D70849070F431C00D9E7002171E74A
:1011200000250027E9E52E002700203EF740202D6E
:101130002FD04026751BAC4050462043441EA04192
:1011400000243843DCE6802400252403134E0027C6
:10115000D3E5504620430700781E87410024BF187E
:1011600060E70C0017008DE50C0017000B4E89E5B9
:101170001E002700203EF740202B0CD04026F31AFB
:101180009C4050462043441EA04107430024BF1802
:1011900048E70024D0E70024F3E7C046FF0700003B
:1011A000FFFF7FFF30B5134D0A034B00120B5B0DA1
:1011B000C90F0024AB4210DD0F4CA3420FDC80248A
:1011C0000E4D64032243ED1A1F2D0BDD0C48C31A8C
:1011D000DA405442002900D11400200030BD094BF0
:1011E000CC18FAE7084CE840A44663449A4002430E
:1011F000EFE7C046FE0300001D04000033040000BA
:1012000013040000FFFFFF7FEDFBFFFF4100090E0D
:101210004B1C70B5DBB24602750AC40F012B14DDFE
:10122000E0239B006D07360BCB1800210A0D280028
:1012300012051C4D32435B052A405B0813435B00DB
:10124000E4075B082343190070BD002914D1002D69
:101250001ED0280000F02CF80A281CDC0B232A00E2
:101260001B1ADA40030015339D400F4B12031B1A63
:101270005B05160B5B0DD8E7002D06D0320B8026E0
:1012800036036D071643094BCFE7084B0026CCE722
:1012900000230026C9E703002A000B3B9A400025E3
:1012A000E3E7C046FFFF0F8089030000FF0700004F
:1012B0001C2101231B04984201D3000C10391B0A86
:1012C000984201D3000A08391B09984201D300094A
:1012D000043902A2105C40187047C04604030202A1
:1012E00001010101000000000000000010B500290C
:1012F00003D1FFF7DDFF203002E0081CFFF7D8FF25
:1013000010BDC04670B50500FA200D4B800019785D
:10131000FEF716FF0B4B01001868FEF711FF00F0F7
:1013200097F804000120002C09D1032D07D80238BA
:101330002200290000F052F82000034B1D6070BD10
:10134000000000200C000020040000204023084A78
:1013500010B5116800200B431360FFF7D3FF041E84
:1013600003D102F0AFF8200010BD0124FBE7C04616
:1013700000200240034A044B11681B785B1813607D
:101380007047C0468802002000000020014B18680A
:101390007047C0468802002070B50400FFF7F6FFD2
:1013A0000500631C02D0044B1B78E418FFF7EEFF26
:1013B000401B8442FAD870BD000000200221024A7E
:1013C00013688B431360704710E000E00223024A69
:1013D00011680B431360704710E000E070B589019D
:1013E000002814DA0F23C0B20340083B114A9B08BF
:1013F0009B009B18032210409040FC3215001140C6
:1014000085408140DC69AC432143D96170BD03252F
:1014100083082840A840FC352E00074A9B009B18F3
:10142000C02286402940814092009C58B443214309
:101430009950EBE700ED00E000E100E01F231840C9
:101440001E3B8340014A13607047C04600E100E044
:10145000094A431E012093420DD8C021074A08487B
:101460005360036A09061B021B0A0B430362002038
:101470000723906013607047FFFFFF0010E000E05B
:1014800000ED00E0F0B5574A0B688218541EA241E7
:1014900087B004930023053203910592049ADA4041
:1014A00001D107B0F0BD012637009F40049A3A40B1
:1014B000029200D193E0039A526801921022019D9A
:1014C00095436A1EB24213D8032459008C408C46BF
:1014D00082680399A243CC6861468C4022438260B3
:1014E000019A4468120932409A40BC432243426048
:1014F00003225F00BA400399D2438C68C668BC409F
:1015000016403443C460022D0ED10F2105351D4015
:10151000AD00A940DC08A4000419266A8E43039993
:101520000969A9400E432662032604682240019CF3
:101530003440BC4022430260019AD2004FD50127BB
:10154000294C1D00626B35403A436263274A9C0870
:10155000A400A418A268AD0094460F226146AA40D8
:101560009143A022D2059446002260450DD0204A26
:1015700094463A00604508D01E4F9218B84204D0F5
:101580001D4F3200B84200D0059AAA400A43029982
:10159000A2600D00194ACC43166801993543C9036E
:1015A00001D43500254015605668029D01993543E8
:1015B000890301D43500254055609668029D019944
:1015C0003543C90201D4350025409560D568029E97
:1015D00001992E43890201D425402E00D6600133A3
:1015E0005CE7C04600E4FFAF00100240000001408D
:1015F0000004005000080050000C0050000401409E
:10160000344AF0B58218541EA241002385B0053239
:1016100003920A00DA4001D105B0F0BD01229A40E0
:10162000160000920E4053D02B4C9A0892001219CB
:101630009468032527000F241D40AD00AC400194A1
:101640003C400294A024E405A446002460450DD04B
:10165000224CA4460124604508D0214F2419B842E9
:1016600004D0204F0134B84200D0039CAC40029D0E
:10167000A54211D1F6431C4C2568354025606568AC
:1016800035406560A5683540A560E5682E40E66098
:101690009468019DAC43946003225D00AA40072535
:1016A0000F271D40AD00AF40D543046814430460CC
:1016B000DC08A4000419266A009ABE432662C468A6
:1016C0002C40C46044689443446082682A4082602D
:1016D00001339EE700E4FFAF00000140000400502A
:1016E00000080050000C00500004014003689A6993
:1016F000920701D500229A6201229969114202D112
:1017000099690A439A61704770B5049E890533430D
:10171000890D194380230468DB00700D1840044BC9
:10172000656812041843854311432943616070BD05
:10173000FF63FF03F8B504000E0017001D002268C8
:10174000936933409B1B59424B41BB4201D000205F
:1017500017E06B1CF4D0FFF719FE069BC01A8542F8
:1017600001D3002DEBD12022636C0120134363646D
:10177000230041331A702200002342324034137098
:101780002370F8BDF8B503680400986910230E00B3
:10179000170018402025002818D1F8BD721C16D05B
:1017A000FFF7F4FDC01B864201D3002E0ED120228C
:1017B000636C13436364230041331A7022000023D7
:1017C00042324034137001202370E6E723689A699F
:1017D0002A42E3D010222000DA61DD61FFF786FFA4
:1017E0002268064953680B4053600423626C13431C
:1017F0006364230041331D70E0E7C04600E800FE4B
:10180000F8B504000D001600022723689B693B42CF
:1018100001D00020F8BD320029002000FFF7B2FF00
:10182000002815D16B1CF0D0FFF7B0FD801B85425E
:1018300001D3002DE9D12022636C1343636423009C
:1018400041331A7022000023423240341370237057
:101850000120DFE7F8B504000D00160020272368FB
:101860009B693B4201D00020F8BD320029002000D6
:10187000FFF788FF002813D1FFF788FD801B854202
:1018800001D3002DEBD12022636C1343636423004A
:1018900041331A7022000023423240341370237007
:1018A0000120E1E7F8B504000D00170004262368C5
:1018B0009B69334211D13A0029002000FFF762FFF3
:1018C00000281AD1202123689A690A4217D09A6900
:1018D000324204D0228D002A01D00020F8BD202100
:1018E000D9615A680E4802405A60220000234132F2
:1018F000636411704034537023700120EEE7FFF7EA
:1019000045FDC01B854201D3002DD0D12022636C40
:1019100013436364230041331A7040340023EBE720
:1019200000E800FE70B504000120002C3FD0250027
:1019300041352B78DBB2002B05D1220040321370E9
:10194000200001F0CDFD242301212B702368E068E5
:101950001A68A6688A431A6061681A4A0A401A61BE
:101960009968194A11409960012821D18021090202
:10197000314399605868154901435960D96800207E
:101980000A40DA60616922690A43A16909020A43CF
:10199000DA60216AE2690A431A60012219680A437F
:1019A0001A60202360642B7020634234207070BD65
:1019B00084210902314399600228DBD18021090189
:1019C0005960D7E7FFFFFFF0FF7FFFFF00800002B5
:1019D00070B504000120002C13D0250024232268B8
:1019E00041352B70136883431360200001F0AAFD7A
:1019F0000020230060644233287020634034187054
:101A0000207070BDF0B5050087B003910492059376
:101A100041352B7804000220202B14D123004033C1
:101A20001A78012A0FD001261E70FFF7AFFC802123
:101A3000070000901923320009022000FFF77AFE08
:101A4000002802D0012007B0F0BD21232B70250013
:101A5000113B42352B70049B606463626B469B8A2A
:101A600060636385628D304BFF2A21D9FF22228576
:101A7000009380235B0403992000FFF745FEFF26B7
:101A8000638D3A000C992000002B19D1FFF7E2FE7C
:101A90000028D7D120212368244ED9615A683240CA
:101AA0005A60230040344133197028702070CAE70F
:101AB000628D92B2228500938023D2B29B04DAE732
:101AC000FFF79EFE0028BDD1636A226819780133B2
:101AD00091626362638D228D013B9BB26385013A03
:101AE000638D92B22285002BCAD0002AC8D10097FC
:101AF0000C9B80212000FFF71DFE0028A2D1638DE2
:101B0000FF2B09D98023FF2226855B0400900399CF
:101B10002000FFF7F9FDB3E78023628D9B0492B2AA
:101B20002285D2B20090F2E70020008000E800FE9B
:101B3000F0B5050087B003910492059341352B78E9
:101B400004000220202B14D1230040331A78012AEC
:101B50000FD001261E70FFF719FC802107000090AE
:101B60001923320009022000FFF7E4FD002802D00B
:101B7000012007B0F0BD22232B702500123B423517
:101B80002B70049B606463626B469B8A6063638511
:101B9000628D314BFF2A21D9FF22228500938023B9
:101BA0005B0403992000FFF7AFFDFF26638D3A0029
:101BB0000C992000002B19D1FFF74CFE0028D7D13B
:101BC00020212368254ED9615A6832405A6023008B
:101BD00040344133197028702070CAE7628D92B288
:101BE000228500938023D2B29B04DAE7FFF75AFEE6
:101BF0000028BDD12368626A5B6A1370636A228D14
:101C000001336362638D013A013B9BB26385638D4F
:101C100092B22285002BC9D0002AC7D100970C9B15
:101C200080212000FFF786FD0028A1D1638DFF2BC6
:101C300009D98023FF2226855B04009003992000A8
:101C4000FFF762FDB2E78023628D9B0492B222858A
:101C5000D2B20090F2E7C0460024008000E800FE07
:101C6000F0B50400413422780300D2B20220202AC9
:101C700018D11D0040352E78012E13D01B6822305C
:101C800020701E68233886431E601E68064F3E4043
:101C90001E601E68314319601968084318600020EF
:101CA00022702870F0BDC046FFEFFFFFF0B50500C1
:101CB00041352A780300D2B20220202A17D11C0015
:101CC00040342678012E12D01B68223028701E68FE
:101CD000233886431E601E68054F09023E4031438B
:101CE000196019680843186000202A702070F0BD40
:101CF000FFF0FFFF8023034A5B0011680B43136072
:101D00007047C046007000401021024A13688B43A0
:101D1000136070470070004010B503240A4A13682E
:101D2000A343184310600422084B186902431A6148
:101D3000012905D130BF04211A698A431A6110BDF7
:101D400040BF20BF20BFF6E70070004000ED00E07C
:101D50008023034A9B0011680B4313607047C04601
:101D6000007000400C22184B10B5D9680A40082AB0
:101D700026D00C2A06D0042A1AD11B68DB0621D4EF
:101D8000124810BD8A021248120F825C0902D868FC
:101D9000890F0131C00304D50E485043FEF7D0F936
:101DA000EFE71B68DB0601D50B48F6E70748F4E7C9
:101DB00080205B6800021B045B0F01339840E0E762
:101DC0000448DEE70448DCE7001002400024F40089
:101DD000735B000800127A0000093D00F0B50500B1
:101DE00087B0002802D1012007B0F0BD0C23BE4C03
:101DF000E668E2681E4080235B021A400192026896
:101E0000D20741D42B689B0700D587E02B68DB06FF
:101E100028D5002E00D0D9E023689B0502D5EB69B8
:101E2000002BE0D06268B1496B6A0A401A436260D5
:101E300061682A6A0902090A12060A43626080225E
:101E40005B0B013312029A401300E16800200A067E
:101E5000A749120F8A5CD340A64A1360FFF752FAD3
:101E60000028C1D12B681B0700D5E6E02B685B0773
:101E700000D508E12B689B0600D58DE1AB6A002BED
:101E800000D0BCE10020AFE7082E04D00C2E09D111
:101E9000019A002A06D023689B03B3D56B68002BF8
:101EA000B0D1A0E76A689A4211D122681343236037
:101EB000FFF76CFA07008022236892021342A1D137
:101EC000FFF764FAC01B6428F5D903208CE7A02132
:101ED000C9028A4205D180222168D2020A432260C7
:101EE000E3E7216884480140216021680B400593A5
:101EF000059B824923680B402360002AD8D1FFF755
:101F000045FA0700802223689202134200D179E744
:101F1000FFF73CFAC01B6428F4D9D6E7EA68042E20
:101F200004D00C2E25D1019B002B22D123685B0706
:101F300002D5002A00D156E761682B6970481B0260
:101F400001400B430921636023688B4313432360E3
:101F5000FFF708FFE368664A1B061B0FD35CD840F7
:101F6000644B18600020FFF7CDF9002800D14DE741
:101F70003AE72368002A18D009218B4313432360D2
:101F8000FFF704FA070004222368134207D06268AF
:101F90002B695B491B020A401343636036E7FFF776
:101FA000F5F9C01B0228EED98FE701229343236085
:101FB000FFF7ECF9070004222368134200D125E75C
:101FC000FFF7E4F9C01B0228F5D97EE7EB69002B87
:101FD00020D0802322685B0013432360FFF7D6F9EB
:101FE000070080222368920013420DD063683F4AA5
:101FF00013406A6A1343636062682B6A12021B060D
:10200000120A134363602DE7FFF7C0F9C01B0228D3
:10201000E7D95AE723683B4A13402360FFF7B6F934
:102020000700802223689200134200D11AE7FFF7CD
:10203000ADF9C01B0228F4D947E76A690123002AD9
:1020400010D0226D13432365FFF7A0F90700022289
:10205000236D134200D009E7FFF798F9C01B02284F
:10206000F5D932E7226D9A432265FFF78FF9070011
:102070000222236D134200D1F8E6FFF787F9C01B57
:102080000228F5D921E780230021A26B5B0501918D
:102090001A4204D1A26B1343A3630123019380224C
:1020A000194F52003B68134208D08022AB6852009F
:1020B00093422BD1226D134323654CE080223B6871
:1020C000520013433B60FFF761F980235B000290ED
:1020D00003933B68039A1342E7D1FFF757F9029B3A
:1020E000C01A6428F5D9F0E600100240FF1FFFFF78
:1020F0005B5B00080C000020FFFFFEFFFFFFFBFF03
:10210000FFE0FFFFFFFEFFFF00700040002B16D135
:10211000236D6C4A13402365236D6B4A134023657E
:10212000FFF734F907008022236D920013422AD072
:10213000FFF72CF9654BC01B9842F4D9C5E6A021E6
:10214000C9008B420BD18023216DDB000B4323653B
:10215000236D1A432265FFF719F907000EE0236D7E
:10216000584A13402365236D574A1340A4E7FFF7ED
:102170000DF9564BC01B984200D9A6E68022236D6C
:1021800092001342F3D0019B012B00D072E6A36BA7
:102190004F4A1340A3636DE6A96901234D4A002904
:1021A00018D0A1681943A160616B0B43636380235E
:1021B000116A9B010B431362FFF7E8F80700022244
:1021C000A368134200D059E6FFF7E0F8C01B0228CD
:1021D000F5D97AE6A1689943A160136A3E490B409C
:1021E0001362FFF7D3F807000222A368134200D15D
:1021F00044E6FFF7CBF8C01B0228F5D965E60C2EA4
:1022000043D0364A022B2ED1236880261340236008
:10221000FFF7BCF80700B604236833421DD1296BD1
:10222000EB6AE2680B432E490A4013436A6B802530
:102230001343E360802322685B0413432360FFF7AA
:10224000A5F80600AD0423682B4200D01AE6FFF77C
:102250009DF8801B0228F6D937E6FFF797F8C01BD8
:102260000228D9D931E62368802513402360FFF77F
:102270008DF80600AD0423682B4200D102E6FFF77B
:1022800085F8801B0228F6D91FE61800012B00D123
:10229000AAE58022E368E96A52021A4001208A42D4
:1022A00000D0A1E5F022296B92031A408A4200D0A7
:1022B0009AE5C02000040340686B181A431E984139
:1022C000C0B291E5FFFEFFFFFFFBFFFF8813000098
:1022D000FFFFFFEF00000140FFDFFFFFFFFFFFFEFA
:1022E000FFFF02FFF7B5061E019101D10120FEBDDF
:1022F0000122514C0199236813408B4227D3326845
:1023000093072FD4D30735D40123226801991A40AB
:10231000914200D281E03268484C530700D584E0F6
:10232000130706D5E26833694549DB000A401343C9
:10233000E360FFF717FDE368424A1B061B0FD35CFF
:10234000D840414B18600020FEF7DCFFCFE7236840
:10235000019993430B43236023681340019A9A42E7
:10236000C4D1CCE7F0203549CB688343B068034340
:10237000CB60C7E7314D72682B68022A19D19B03E5
:10238000B4D50321EB688B431343EB60FEF7FEFFEC
:1023900073680700022B19D10C22EB681340082B3D
:1023A000B2D0FEF7F3FF294BC01B9842F4D90320AB
:1023B0009DE7032A02D19B01E3D497E7012A02D1CA
:1023C0005B07DED492E79B05DBD48FE7032B0BD1B1
:1023D0000C22EB681340934296D0FEF7D7FF1B4BBD
:1023E000C01B9842F4D9E2E7012B10D00C22EB6815
:1023F000134289D0FEF7CAFF144BC01B9842F5D98F
:10240000D5E7FEF7C3FF114BC01B9842CFD80C2273
:10241000EB681340042BF4D176E722689A432260DC
:1024200022681A4200D061E775E7E36808490B406B
:10243000F1680B43E36073E70020024000100240A4
:10244000FFC7FFFF5B5B00080C0000208813000043
:10245000FFF8FFFF044B054ADB685B055B0FD35CAD
:10246000034A1068D8407047001002406B5B0008B8
:102470000C000020044B054ADB689B045B0FD35C17
:10248000034A1068D8407047001002406B5B000898
:102490000C0000208223F7B502681B0105001A42D8
:1024A00047D0802300215F4C5B05A26B00911A424C
:1024B00004D1A26B1343A3630123009380275A4ED8
:1024C0007F0033683B426DD06968C02208002368F2
:1024D000920313401040834203D1A8680240934204
:1024E00009D0C0230A009B021A409A4203D12368F4
:1024F00001209B0366D4C022236D9202134062D157
:102500006968C0230A009B021A409A4207D12368D7
:1025100046480340C020800301400B432360236DE5
:102520001A43009B2265012B03D1A36B404A134041
:10253000A3632B68DA0706D503203A49CA6C8243A5
:10254000E8680243CA649A0706D50C203549CA6C6C
:10255000824328690243CA645A0706D5314935487F
:10256000CA6C024068690243CA641A0706D52D493D
:102570003148CA6C0240A8690243CA645A0606D5AB
:1025800028492E48CA6C0240286A0243CA640020C7
:102590001B0617D5234A2A49D36C0B40E9690B4324
:1025A000D3640FE033683B433360FEF7EFFE0190E6
:1025B00033683B4288D1FEF7E9FE019BC01A6428CC
:1025C000F6D90320FEBD11408B4202D0296889064E
:1025D00008D4A9680A40934200D191E72B681B05F3
:1025E00000D48DE78022216D206D12030243226505
:1025F000226D144B14480B40024022652365CB0525
:1026000000D47DE7FEF7C2FE80270600BF00236DE1
:102610003B4200D074E7FEF7B9FE0C4B801B98429A
:10262000F5D9CEE70010024000700040FFFFCFFF59
:10263000FFFFFFEFFFF3FFFFFFCFFFFFFFFFFFFBFA
:10264000FFFFF3FFFFFFFCFFFFFFF7FF8813000012
:10265000F7B50227451CEB7F04003800012B24D07E
:102660000123CA22EB772368E619F7775A62773A93
:102670005A62AD32914228D19A6821490A409A6043
:102680009A6820490A409A60FEF780FE0123009074
:1026900001932368DF68019B1F4007D0FF22236856
:1026A00000205A620123F377E877FEBDFEF76EFE45
:1026B000009BC01AFA239B009842EAD9FF2203200C
:1026C00023685A62F077EF77EFE79A680E490A407D
:1026D0009A609A680D490A409A60FEF757FE019782
:1026E00000902368DF68019B1F40D7D1FEF74EFEA4
:1026F000009BC01AFA239B009842F2D9DEE7C0463D
:10270000FFFEFFFFFFEFFFFFFFFDFFFFFFDFFFFF0C
:1027100070470000036810B59A680400D2040AD517
:10272000DB68DB0507D5FFF7F3FF21680E4BCA68AE
:10273000D2B21343CB6023689A6892040BD5DB684E
:102740009B0508D5200000F0BBFA2168074BCA683A
:10275000D2B21343CB608022054B92025A6101230F
:102760000234E37710BDC0467FFEFFFF7FFDFFFF11
:1027700000040140A0210268F8B5D36804008B432F
:10278000D360FEF703FEFA2706002025BF0023686A
:10279000DB682B4201D00020F8BDFEF7F7FD801B5F
:1027A000B842F4D90320F7E7F8B5402403680500E0
:1027B000DA68224201D00020F8BD01225242DA60DC
:1027C000FEF7E4FDFA270600BF002B68DB68234212
:1027D000F1D1FEF7DBFD801BB842F6D90320EBE711
:1027E00070B50400012500281AD0861CF37FDBB2E7
:1027F000002B03D14219D37700F0BCFE0223CA227A
:10280000F377236820005A62773A5A62FFF7CCFFC9
:102810002368051E06D0FF225A620423F3770125A0
:10282000280070BD9A681B4920690A409A60626856
:1028300099680243A06902430A439A60E2686069AA
:102840001A61A268196912040A4380211A61DA68C0
:102850008A43DA60DA6C7D398A43DA64E269D96CDA
:1028600002430A43DA649B689B060CD42000FFF7FE
:1028700081FF002807D0FF22236801345A62042315
:10288000F377E577CBE7FF2223685A620123F377DA
:10289000C6E7C046BFFF8FFF0023092803D81B01EE
:1028A0001843C0B270470A380133C0B2F5E70000E0
:1028B0000223F7B5471C0C00F97F05001E00012913
:1028C00036D00121F977C118CB77009140210368F8
:1028D00066789B6820780B40002A2BD1002B00D112
:1028E000E370FFF7D9FF01903000FFF7D5FF060036
:1028F000A078FFF7D1FF0300E07836020004184308
:10290000019B1B04184330430190CA222B68280006
:102910005A62773A5A62FFF747FF2B68061E16D0B5
:10292000FF225A620423009AD3770023FB77012603
:102930003000FEBD002B00D1E370000436020643D8
:10294000A0780643E078000406430196DDE71548C9
:10295000019A154902401A609A6820690A409A60F3
:10296000E268996802430A4380219A60DA688A43E0
:10297000DA609B689B060CD42800FFF7FBFE00285A
:1029800007D0FF222B685A620423009AD377FE7780
:10299000CDE7FF222B685A620123009AD3770023E8
:1029A000FB77C5E77F7F7F00FFFFFBFF0223F0B5CA
:1029B000471C0D00F97F85B004001E00012935D0A9
:1029C0000121F977C1180191CB776B78E878AE785F
:1029D000002A4ED11032134202D093430A336B7057
:1029E000FFF75AFF02906878FFF756FF0390300018
:1029F000FFF752FF029B2D781E046D03039B0543D6
:102A000035431E02CA22236820005A62773A5A626E
:102A1000FFF7CAFE35432368061E0AD0FF225A621A
:102A20000423019AD3770023FB770126300005B0F9
:102A3000F0BD8021124805405D60DA688A43DA60A3
:102A40009B689B060CD42000FFF794FE002807D05B
:102A5000FF2223685A620423019AD377FE77E4E7C2
:102A6000FF2223685A620123019AD3770023FB7760
:102A7000DCE700041B022D7803431E436D03C1E70E
:102A80003FFFFF00F7B5431C00930D00D97F0223E1
:102A900004001800012900D18DE001216018C177E0
:102AA000E118CB774021236828789B686E78AF784F
:102AB0000B40002A5DD1002B00D1EB70FFF7ECFE3C
:102AC00001903000FFF7E8FE06003800FFF7E4FE53
:102AD00007006B1CD87FFFF7DFFE6A69EB693602DF
:102AE0001343EA780006120413431F43019B1B049F
:102AF0001F4337430743AA696B68696A1343CA22B5
:102B0000019323685A62773A5A62AD32914253D1A7
:102B10009A683C490A409A60D9683B4AC9B20A435C
:102B2000DA60FEF733FC060001222368DD681540F9
:102B300032D0019ADF615A648022996852000A43B8
:102B40009A608022996852010A439A6080222F4B32
:102B50009202196800201143196099680A439A602B
:102B6000FF22236802345A620123E377009BD8775F
:102B700021E0002B00D1EB70EB696A69000413437C
:102B80001F43360207433743EE786B1C3604374346
:102B9000DE7F36063743AEE7FEF7F8FBFA23801BED
:102BA0009B009842C0D9FF220320236802345A6256
:102BB000009BE077DD77FEBD9A6815490A409A6070
:102BC000D968144AC9B20A43DA60FEF7DFFB06008F
:102BD00002222368DD6815400BD0019A1F629A64B7
:102BE0008022996892000A439A6080229968920133
:102BF000AAE7FEF7CBFBFA23801B9B009842E7D99C
:102C0000D1E7C046FFFEFFFF7FFEFFFF000401404B
:102C1000FFFDFFFF7FFDFFFF0A23020953430F2241
:102C200010401818C0B2704770B50C007F250168BD
:102C30003F208B6A63600B695B045B0CA3600B68CD
:102C40000D490B401E0A190C2E401D404023084020
:102C5000194020706670A570E170002A0AD1FFF754
:102C6000DBFF20703000FFF7D7FF60702800FFF710
:102C7000D3FFA070002070BD7F7F7F0070B53F251F
:102C80000C0003680D495B680B40180CDE041D4006
:102C90001B04F60E5B0FE0706670A5702370002AAF
:102CA0000AD1FFF7B9FFE0703000FFF7B5FF6070A1
:102CB0002800FFF7B1FFA070002070BD3FFFFF00AC
:102CC0007047000070B504000120002C37D00023AD
:102CD0002500A36251352B78DBB2002B05D12200F1
:102CE00050321370200000F05DFC02234022216866
:102CF0002B700B68A06893430B606368A269034361
:102D0000E06803432069034360690343E0690343C8
:102D1000206A0343A06A03438020800010400343DD
:102D20000B600423120C1A40636A00201A434A60A5
:102D3000CB69034A1340CB61012360652B7070BDE2
:102D4000FFF7FFFF70B504000120002C10D0250014
:102D500002234021226851352B70136820008B43D9
:102D6000136000F04BFC002050346060287020702D
:102D700070BD70B505000120002D12D02423002461
:102D80006B672B681A6882431A6028001C605C60BD
:102D90009C6000F077FC2000EC676C67AC677035D6
:102DA0002C7070BDF8B504002569A26803682A4339
:102DB0006569C1692A431868794D0A43284002436E
:102DC0001A605A687748784D0240E06802435A60BA
:102DD000A069AB4201D0226A10439A68734E324018
:102DE00002439A60724A934213D10322714BDB6C07
:102DF0001340714AD05C80231B02994200D092E0BC
:102E000008281ED8FDF792F95860631D841D1D1D0A
:102E100087006A4A934205D10C22664BDB6C134053
:102E2000674AE7E7AB4200D0B3E0C0218020614AA7
:102E30000901D36CC0000B40834238D003D8002B6B
:102E40000AD001250DE08020000183420ED08B4284
:102E5000F7D1802000020DE0FFF7FCFA0025A84220
:102E600008D10023280023666366F8BD1368DB06DB
:102E700020D55448032263685A438242E1D81A039A
:102E80008242DED30027020E01025E0889197A41D0
:102E9000080011001A003B00FDF7C8FA4A4BC2189F
:102EA0004A4B9A42CDD823683D00D860D9E7FEF757
:102EB00059FFD3E74648DDE7FFF7CCFA63684000E7
:102EC0005B08C01861680BE0FFF7D4FAF6E710253D
:102ED000384B61681A684808154006D03D4BC01849
:102EE000FDF72EF9002583B204E03B4BC018FDF737
:102EF00027F983B21900394810398142A1D80F212E
:102F000018001B0788435B0F21680343CB60A8E7C9
:102F1000FEF728FFD2E76368580880235B02D0E7FA
:102F200001250023E6E7082837D8FDF7FFF8050C50
:102F30000F362A3636362D00FFF78CFA63685B08A9
:102F4000C01861680BE0FFF795FAF7E71025194BF9
:102F500061681A68480815400DD01A4BC018FDF773
:102F6000EFF8002583B219001C481039814200D9BE
:102F700067E72168CAE7164BC018FDF7E1F883B28E
:102F8000F1E7FEF7EFFED9E76368580880231B02DC
:102F9000D6E780231B029942C2D001250023E2E735
:102FA000F369FFEFFFCFFFFF00480040FFF4FFFF92
:102FB0000038014000100240305B0008004400402F
:102FC000345B000800093D0000FDFFFFFFFC0F001F
:102FD0000024F40000127A000048E801EFFF00002E
:102FE000436A30B5DA0706D50168284C4A682240A2
:102FF000846A22434A609A0706D50168244C4A68CD
:103000002240C46A22434A605A0706D50168214C0F
:103010004A682240046B22434A601A0706D50168B9
:103020001D4C4A682240446B22434A60DA0606D5AA
:1030300001681A4C8A682240846B22438A609A068F
:1030400006D50168164C8A682240C46B22438A6008
:103050005A0610D50168134D4A68046C2A40224371
:103060004A6080225203944205D14A680E4C2240A5
:10307000446C22434A601B0606D502680B4953681C
:103080000B40816C0B43536030BDC046FFFFFDFF1A
:10309000FFFFFEFFFFFFFBFFFF7FFFFFFFEFFFFFD5
:1030A000FFDFFFFFFFFFEFFFFFFF9FFFFFFFF7FFC8
:1030B000F8B504000E0015001F002268D3693340E4
:1030C0009B1B59424B41AB4201D000201BE0069BA9
:1030D0000133F3D0FEF75AF9069BC01B834201D39C
:1030E000002BEAD1236808491A6803200A401A60B5
:1030F0009A68A331FF318A439A6020236367A367EC
:10310000002370342370F8BD5FFEFFFF73B5002607
:103110000400C667FEF73AF9236805001B681B0721
:1031200015D423681B685B070AD580210E4B00224B
:103130000093C9032B002000FFF7BAFF002811D12C
:10314000202300206367A367703420700BE0802188
:10315000054B32000093890303002000FFF7A8FF0E
:103160000028DED0032076BDFFFFFF0110B5041E4E
:1031700001D1012010BD436F002B04D10200703239
:10318000137000F051FA2423012122686367136849
:1031900020008B431360FFF705FE0128E9D0636A26
:1031A000002B02D02000FFF71BFF236807495A6855
:1031B00020000A402A215A609A688A439A600122B4
:1031C00019680A431A60FFF7A1FFD3E7FFB7FFFFB3
:1031D00030B59DB0382200210EA800F0F5FD142274
:1031E0000021684600F0F0FD2422002105A800F02F
:1031F000EBFD80231749184C0A681B01224013433A
:103200000B60FEF777FD154A0125136D0EA82340CC
:103210001365062300240E93FA331093F03B1293A8
:1032200011951894FEF7DAFD0F23210068460093EC
:103230000195029403940494FFF754F82A2305930C
:10324000802305A85B0209940B940693FFF722F9EB
:103250001DB030BD00700040FFE7FFFF00100240CE
:10326000F0B599B00EAFFEF771F8FFF7B1FF142279
:103270000021380000F0A8FD04218020834B0126A6
:10328000DA6A00240A43DA62DA6A0A400592059A89
:10329000D96A0143D9620221DA6A02400692069A8B
:1032A000DA6A7B483243DA62DA6A32400792079A76
:1032B000DA6A0A43DA62DB6A0B400893089B8023D0
:1032C0009B010E93734B39007B60FEF7DBF8724D68
:1032D000724B28002B60724BAC606B602C616C6190
:1032E000AC61EC612C62EE60FEF71CFB2100280053
:1032F000FEF7B6FC21002800FEF7D8FC21001422BE
:1033000009A800F061FD210028223800049400F093
:103310005BFD644D644B28002B607F23AB608033E2
:103320006C60EB602C616C61AC61EC61FFF758FA8A
:1033300002AB320009A928001C775C779C770C94BB
:103340000D94FFF7B5FA02AB320004A92800DC7235
:103350001E725E729E72FFF729FB312302AA9B1830
:10336000DE778023320039005B0028003C707C70DF
:10337000BC707C60FC603C617C61BC61FC617B6218
:10338000FFF780FB49484A4B8460036082235B005F
:103390004360FC338361FA3BFF3BC46004614461DA
:1033A000C461046244628462C362FFF78BFC4148DB
:1033B000414B84600360E1235B0243600C23C460E3
:1033C000436104618461C46104624462FFF7CEFE1C
:1033D00000F0D6F900F0D2FA13220421172000F0F1
:1033E000D7FA364800F038FAFF2000F09DFA2000A6
:1033F000310000F09FFA00F047FAFA20C000FDF714
:10340000CBFF0A3400F0E0F9050000F0FFF92100DD
:103410000600FCF71FFF210000B2FDF701F809B21A
:10342000CA178B185340642130000393FCF712FF36
:10343000210006B22800FCF70DFF210000B2FCF7C6
:10344000EFFF09B2CB17C918594001912800642138
:10345000FCF700FF00B2039B3200194900903800CE
:1034600000F0CAFF00F052FA380000F0F5F94220EF
:1034700000F05AFA00F008FA00F0DEFA80213C3041
:10348000090600F001FB00F03BFBBBE70010024027
:1034900000080050000021108C0200200054004061
:1034A0001A061000D802002000280040FC0200206C
:1034B000003001405403002000440040415B0008FC
:1034C0004A5B00080122054B596B0A435A6380226C
:1034D000996B52050A439A637047C0460010024038
:1034E00010B5040086B01422002101A800F06CFC85
:1034F000114B22689A421CD10221104C1048E26AFA
:103500000A43E262E36A0B400093009BC0239B00E6
:10351000019312230293113B03935B18049301A9B7
:1035200001330593FDF7AEFF8023A26B9B0313438A
:10353000A36306B010BDC046005400400010024016
:1035400000040050074B026810B59A4209D1064AA0
:103550000649936B06480B40C02193638900FEF730
:103560004FF810BD0054004000100240FFFFDFFF85
:1035700000040050094B026810B59A420DD1802317
:10358000074ADB02116D02200B4313650022110074
:10359000FDF724FF0220FDF751FF10BD0028004079
:1035A0000010024010B5040086B01422002101A8CA
:1035B00000F00AFC0F4B22689A4218D180220E4B71
:1035C0005201596BA0200A4301215A63DA6AC005EF
:1035D0000A43DA62DB6A0B400093009BE02301930D
:1035E000DE3B02935B1801A90493FDF74BFF06B085
:1035F00010BDC0460030014000100240074B026879
:1036000010B59A4209D1A020054A0649536BC0055E
:103610000B405363E021FDF7F3FF10BD0030014084
:1036200000100240FFEFFFFF10B5040086B0142227
:10363000002101A800F0C8FB104B22689A421AD161
:1036400080220F4B9202996BA0200A4301219A63BA
:10365000DA6AC0050A43DA62DB6A0B400093009B1A
:103660000C2301930A3B02935B1804935B1801A996
:103670000593FDF707FF06B010BDC04600440040AB
:1036800000100240074B026810B59A4209D1A020F1
:10369000054A0649936BC0050B4093630C21FDF767
:1036A000AFFF10BD0044004000100240FFFFFDFFCF
:1036B0007047FEE77047704710B5FDF75BFE10BD21
:1036C00010B50248FFF726F810BDC046D80200200A
:1036D0000A4B10B519680200002901D10849196088
:1036E0006946186882188A4206D900F05FFA0C23EE
:1036F00003600120404210BD1A60FCE74802002030
:10370000D80300208022104B520019680A431A6027
:10371000DA680E490A40DA601A680D490A40012148
:103720001A609A688A439A601A680A490A401A60BD
:10373000DA6809490A40DA6000221A618022074BE0
:1037400012059A607047C046001002400C40FF8886
:10375000F6FFF6FEFFFFFBFFFFFF02FF00ED00E0BC
:10376000FA2307B59B000093002380211A00034829
:10377000FEF748F943425841C0B20EBD8C0200200A
:1037800010B5FFF7EDFF10BD70B50F22FA2686B019
:103790000C4D6A44B6001070012380210096280069
:1037A000FEF730F905AC6420FDF7F6FD0096032323
:1037B000220080212800FEF7BBF9208840BA80B2A1
:1037C00006B070BD8C02002010B5F520FFF7DCFFBD
:1037D0000323984380B2FCF709FFFDF717FD002291
:1037E000074BFCF749FF0022064BFDF7C5F9002205
:1037F000054BFCF741FFFDF7D5FC00B210BDC046FC
:1038000000405F3F000018400000594010B5F32011
:10381000FFF7BAFF0323984380B2FCF7E7FEFDF7FA
:10382000F5FC084A084BFCF727FF084A084BFDF750
:10383000A3F90022074BFCF71FFFFDF7B3FC00B212
:1038400010BDC046D7A3703D0AF7653FCDCCCCCCA8
:10385000CC6C47400000594070B50400FCF754FCA4
:10386000002301300649074DC0B2834200DB70BD22
:10387000E25C203A5200525B5A540133F5E7C046ED
:103880004D0200207C5B0008F0B587B003AD092233
:103890000021280000F098FA0023194F01335A1E26
:1038A000BA5CEA54082BF9D1FA239B0000932A0052
:1038B000092370211348FEF7A5F8022600240722E9
:1038C000114B121B1B7821001341012201341340BC
:1038D0005A017B5C395D9B01C9080B4313436B7034
:1038E000FA239B002E702A000093702102230548C2
:1038F0000336FEF787F8F6B2082CE0D107B0F0BD2A
:103900004D0200208C0200204C02002010B508223D
:103910000021034800F058FA0022024B1A7010BD33
:103920004D0200204C020020014B18707047C04629
:103930004C020020072320221840054B002903D009
:10394000195C0A431A547047195C91431954FAE7F9
:103950004D0200201FB580235B4218430F22FA233B
:103960006A449B0010707021009303480123FEF706
:1039700049F805B000BDC0468C02002010B54B20B0
:10398000FFF7E8FFFFF7C2FFFFF77EFF10BD000063
:10399000F0B507000E00150087B001AC142200211D
:1039A000200000F011FA0022210004482770667000
:1039B000A570FEF77DFF07B0F0BDC046D80200201D
:1039C000F0B5002504008BB005AE142200213000B4
:1039D00000F0FAF9174F2A00310038000495FFF77C
:1039E00023F92A0004A93800FFF748F933787778DB
:1039F000019304AB9B786421029304AB5B78013B99
:103A0000039304ABD878FCF721FCB3782000236043
:103A1000019BC9B2A360029B6431E360039B6760B2
:103A2000236101235B426161A561E56123620BB003
:103A3000F0BDC046D802002000B58BB001A8FFF74A
:103A4000BFFF01A800F094FA0BB000BD70B51C00D8
:103A50000C4B1500186018000E0000F0ADF803784C
:103A6000337003792B70037A2370027B049B1A70E6
:103A70000369059A013313704369069A6C33137016
:103A800070BDC04658020020F0B580271B4E97B08D
:103A90007F000CAD0490059130003900FEF7D8FD91
:103AA00007AC28220021280000F08EF91422002102
:103AB000200000F089F9132302AA9B18152202A9FD
:103AC000521816210293019302A814AB091800930F
:103AD00004982300FFF7BAFF2B0007CC07C306CCDE
:103AE00006C30022059B290030006B61AA61EA61D0
:103AF0006F62FEF7C7FF17B0F0BDC046D8020020C6
:103B000070B5FEF701F9FEF723F9FDF757FC0F4EEC
:103B10003000FDF75DFF0E4D2800FFF713F90D4C47
:103B20002000FFF726F901210800FEF7F5F8FFF75E
:103B30004FFBFDF74BFC3000FDF7F4FE2800FFF7CC
:103B4000C1F82000FFF712FB70BDC0468C020020B8
:103B5000FC020020540300200D488546002103E0AC
:103B60000C4B5B58435004310B480C4B42189A42A3
:103B7000F6D30B4A02E0002313600432094B9A4249
:103B8000F9D3FFF7BFFD00F0E7F8FFF769FBFEE7A9
:103B900000200020985E000800000020280200207D
:103BA00028020020D8030020FEE70000014B18681F
:103BB0007047C04610000020074B70B51C68050018
:103BC000E36B002B03D1242000F0EAF8E063280027
:103BD000E16B00F003F870BD10000020F0B505683F
:103BE00085B00C0028005249FCF734FB5049060010
:103BF0002800FCF715FC0F1E00DA80E04D4BE12198
:103C000038000901F518FCF725FBE121A060090146
:103C10003800FCF705FC0E003C213000FCF71AFBD5
:103C20003C2160603000FCF7FBFBE81C21600721B1
:103C3000FCF7F6FB2800A1613F49FCF70BFB3F4E68
:103C40003F494643761907003000FCF779FA3D49B1
:103C500085193000FCF774FA3B492D1A3000FCF747
:103C60006FFA6E212D1AFF312800FCF769FA3749E7
:103C700001902800FCF764FA324986192800FCF705
:103C80005FFA6E21019BFF315943361A731A1800EF
:103C900005267043992102300293FCF751FA050082
:103CA00099206843029B0230013331000393FCF7F3
:103CB00047FA039B1B1A03930223092D00D90C3BDF
:103CC0005D19C8235B005F43019B0126FF18002399
:103CD000AE425B41FF183223029AFF339A4212D957
:103CE0001600333EFF3E1A4B2000FF18039BE6618F
:103CF000E360002367612561236205B0F0BD0C4BD2
:103D0000CF18144B7BE7019B9B0705D164210198D9
:103D1000FCF79CFA002906D1C82101984900FCF75C
:103D200095FA4E424E4102983B308619DBE7C04679
:103D3000805101006CFA0A00B13A02004FC5FDFF44
:103D4000AC8E0000B4050000B03A0200948E000072
:103D500094F8FFFF6BFA0A0070B500260C4D0D4C6D
:103D6000641BA410A64209D1002601F0AFFE0A4D43
:103D70000A4C641BA410A64205D170BDB300EB58D9
:103D800098470136EEE7B300EB5898470136F2E763
:103D9000905E0008905E0008905E0008945E000847
:103DA00010B5034B0100186800F0B6FA10BDC0460C
:103DB0001000002010B5034B0100186800F062FAF3
:103DC00010BDC0461000002003008218934200D1AD
:103DD000704719700133F9E7F7B5016804003B2912
:103DE0000BD93C22684600F05FFD63680099019A98
:103DF0005B186360002A6CDB226061683B290BD989
:103E00003C22684600F050FDA3680099019A5B18B7
:103E1000A360002A62DB6260A16817290BD918220F
:103E2000684600F041FDE3680099019A5B18E36081
:103E3000002A58DBA26021690B290BD90C226846A5
:103E400000F032FD63690099019A5B186361002AF2
:103E50004EDB226165691C23AA070FD1642128006B
:103E6000FCF7DEFA1D23002908D13D4B9131E818FB
:103E7000FF31FCF7D5FA4B424B411C33E268002A74
:103E80003BDD0226374F2169E268012961D08800B5
:103E9000C059824235DD121A0131E26021610C29DC
:103EA000F1D1002365692361681C60611C338207BE
:103EB000E9D15831FCF7B4FA1D230029E3D12A4B8C
:103EC0009131E818FF31FCF7ABFA4B424B411C3300
:103ED000D9E73C32013B226063608EE73C32013B14
:103EE0006260A36098E71832013BA260E360A2E73A
:103EF0000C32013B22616361ACE71D27E668002EAE
:103F000000DDF7BD2269013A2261013217D10B238E
:103F1000032265692361681E6061113310420ED16E
:103F20006421FCF77DFA3B00002908D10F4B913149
:103F3000E818FF31FCF774FA4B424B411C332169FE
:103F40001A00012902D0074A89008A589619E660AA
:103F5000D4E79342D5DAD21AE260266193E7C046ED
:103F60006C070000D05B00086D0700006B070000C5
:103F7000F0B587B0040000F0F5FC04902000FFF7D6
:103F80002BFF3C236268A1685343226865699B1834
:103F9000E12212014A439B18E26803932369501EF1
:103FA000B14A99008A5882180192012B12DDAB07A1
:103FB00010D164212800FCF733FA002907D1AB4B5C
:103FC0009131FF31E818FCF72BFA002902D1019B4F
:103FD00001330193019BA64AE361A64BEB18934280
:103FE00000D9F8E046230293462D00DC72E0B727A3
:103FF000C8267F0076000322029B134268D1180076
:104000006421FCF70DFA3B00002909D1029B974A75
:1040100031009818FCF704FA4B424B416E33FF33E2
:10402000019AD3180193029B013302939D42E2D17E
:10403000019A914B5343039A9B18039300F0ACFAF7
:1040400000F0ACFA8D4B1D68002D00D107E16369CB
:10405000864A266A9818002E00DD0126049B5B68BC
:104060000593984200D073E0049B039DD86BDB69F5
:1040700005931A1A049B996B1B6ACF1ABD4200DB89
:104080006DE004990968002900D16DE0039991421F
:1040900000DAE1E00125B94200DB0025002E00DB5B
:1040A000A0E0012D00D0DAE00125049BDE6B039B2C
:1040B0009E1900F072FA0198256204300721FCF77E
:1040C000AFF9002900DA84E0A161300007B0F0BD4B
:1040D0006E23A4E79D42ABD045260327AE4217DCF2
:1040E0003D4230D164212800FCF79AF900292CD1F7
:1040F0005E4B9131E818FF31FCF792F90B00594201
:1041000059416E31FF31019B02955B1A01938FE794
:104110003E4216D164213000FCF782F9B7235B00E0
:10412000002909D1514B9131F018FF31FCF778F992
:104130004B424B416E33FF33019A013ED31A019338
:10414000CCE76E23F7E76E21DCE7B7214900DAE719
:1041500000F074F9002800D086E73500A1E7039D40
:10416000091A8D42F9DB8CE7039D954236DA039AF2
:104170000125BA4200DA91E70D008FE701277F425F
:104180004BE0B6214900E1618BE76E2162E0029AC3
:104190001A4217D164211000FCF742F9002913D10B
:1041A000324A029B9446913163441800FF31FCF778
:1041B00037F90B00594259416E31FF31B94206DDE2
:1041C000E7616EE76E21F8E7B7214900F6E77F1A4D
:1041D000F6E7073178E70126764276E70125002EDB
:1041E00000DA61E76E40012E00D05AE71B1A002D5D
:1041F00000D15B4222682000D2182260039AE7684F
:10420000D3180393FFF7E8FDE368DF1B00D148E70D
:10421000012FB3DC7B1C00DA3700019BE269DB195C
:1042200001930323BF18B2D5029A501E1842A8D199
:104230006421FCF7F5F80029A7D1114A029B9446A6
:10424000913163441800FF31FCF7EAF80B00594242
:1042500059416D31FF3196E70025002EC2DA049BEB
:104260001E6A039B9E1924E7005C00086C0700008F
:10427000204E000010270000805101008002002025
:104280006B07000070B50500002910D00C1F2368D3
:10429000002B00DAE418280000F068FB1D4A1368C0
:1042A000002B05D163601460280000F060FB70BD36
:1042B000A34209D9216860188342F3D118685B686A
:1042C00041182160EEE713005A68002A01D0A2428B
:1042D000F9D919685818A0420BD120680918581844
:1042E00019608242E0D110685268411819605A6022
:1042F000DAE7A04202D90C232B60D5E721686018C9
:10430000824203D1106852684118216062605C608B
:10431000CAE7C0465C020020032370B5CD1C9D4354
:10432000083506000C2D1ED20C25A9421DD83000E0
:1043300000F01CFB254A14682100002919D1244CE7
:104340002368002B03D1300000F044F820602900DE
:10435000300000F03FF8431C2CD10C2330003360B8
:1043600000F005FB03E0002DDFDA0C2333600020B2
:1043700070BD0B685B1B1AD40B2B03D90B60CC18D8
:10438000256003E08C420ED163681360300000F0BA
:10439000EEFA200007220B30231D9043C31AE7D00A
:1043A0005A42E250E4E74B6863600C00EEE70C0011
:1043B0004968C2E70323C41C9C43A042E0D0211AF1
:1043C000300000F007F8431CDAD1C6E75C02002099
:1043D00060020020002370B5064C05000800236031
:1043E000FFF776F9431C03D12368002B00D02B6024
:1043F00070BDC046D40300200EB410B59DB002A914
:10440000029008610B488224886048610120404284
:104410001FABC881084804CBA400006801938C81BD
:1044200000F008FB0023029A13701DB010BC08BCFA
:1044300003B01847FFFFFF7F10000020F0B589B0E0
:10444000040000F08FFA4C4B070000209C4258DD1E
:104450006E256421494BFF35E0184543484B7C608D
:10446000E018484B80102D184942E018FBF7F2FE87
:10447000C821454B2D184900E018FBF7EBFE6421DD
:104480002B1820000193FBF7CBFF0291C8212000DD
:104490004900FBF7C5FF0A0053425A413B00403335
:1044A000079303233D001C400391059208350694B1
:1044B0002B784A2B27D1019AEB68D118069A002A4B
:1044C00002D1029A002A03D10024039AA24203D106
:1044D00001243B2B00DC00246418013C2B492B6990
:1044E0004C43E418AB69E418079B6C611C35AB4284
:1044F000DED1FA69B96B01238A4200DB0023012077
:104500003B6009B0F0BD442B03D1019BEA689C18C5
:10451000E4E7069A059B002A03D1029A002A00D0FC
:104520000123302253431A4A6E689B1804931A00E1
:104530000123019CB34218DB002E00DC0126201D64
:104540000721FBF76DFFEB685B1A00D507330721E6
:10455000AA68013A5143C9180E4BF618049BB600DD
:10456000F358994205DA6418B8E702CA01336418AF
:10457000E0E70739F5E7C046B10700004EF8FFFF56
:104580004FF8FFFF93F8FFFFBFF9FFFF80510100D5
:104590006C5C0008FFFFFF3F7047704710B5024B8F
:1045A000186800F003F810BD10000020F0B58DB0C1
:1045B000070000F0D7F9AF490600380000F0CCF949
:1045C000AD4D041E0DD1AD4BAD4A1860AD4B18601A
:1045D000AD4B28681A605A60FFF7ECFB2C600DB0F9
:1045E000F0BD296800295AD12868FFF7E3FB2000B5
:1045F000FBF78AFD411C3800FFF78EFE286000287B
:1046000052D123783A3B5942594164180AAB9F4A28
:104610009F49200000F09AFC0028E0DD0A9BE41886
:1046200023782D2B44D12E3B01340493162702AB63
:10463000FF1800233B80002308AD2B800AAB0393B7
:1046400002950193009707AA9249200000F07EFC92
:104650000028C4DD3C233A888F4F53432A888A4D73
:104660009B1802AA918AE12212014A439B18049ADC
:1046700087495A43854B32622B600A9B3A00E41803
:1046800020000AAB00F062FC002818DC2B68326ABC
:104690006B607A4B1A6000227A4B1A609FE7FBF737
:1046A0003AFD00289BD09FE7210000F079FCA8E7A5
:1046B00001222B3B0492594259416418B6E70A9BE8
:1046C0006F60E41823782D2B00D08FE02E3B01344F
:1046D00004931627002302AABF1807AD13832B806B
:1046E0003B8008AA0A930AAB0292039301930097B6
:1046F0002A006849200000F029FC002800DD7CE049
:10470000336A664A9B18F3630A9B3700E418002358
:104710000837049323782C3B594259416418257873
:104720004D2D00D078E01E2202A95218029209AA4B
:1047300000921A220AAB52180393019358492000A1
:1047400000F004FC032800D049E702AB598B4B1E54
:104750000B2B00D943E702AB9A8B531E042B00D9D5
:104760003DE702ABDB8B062B00D938E73D70796063
:10477000BA60FB600A9BE518022307AA1380002396
:1047800002A908ACCB8223800A932B782F2B0BD164
:10479000162102A809180AAB009103930294019311
:1047A0004049280000F0D2FB02ABDA8A3C23534395
:1047B00022889B1807AA1188E12212014A439B18FC
:1047C0003B610A9B1C37EC18049B01330493022BBA
:1047D000A0D17068FFF732FE326A284B1A60F36B83
:1047E0009B1A5A1E9341274A1360F8E601222B3B7D
:1047F00004925942594164186BE73C233A8829884E
:10480000534302AA128B9B18E12212014A439B18C0
:10481000049A5A43130076E7442305934A2D01D1A5
:10482000013405950A220BA9200000F069FC1E2323
:1048300002AA0B9D9B181880AC4215D1049B002B3B
:1048400008D14D3333720323F360013B3361049B82
:10485000736191E74D22731DDA770B23B3620A3B34
:10486000F3620023336387E76B461B7D80B23B70A6
:10487000F86081E7305C00087C02002084020020A0
:10488000335C000880020020740000206F020020CA
:10489000375C00085A5C000864020020F0F1FFFF5A
:1048A000465C0008595C0008F8B50F0006001100CE
:1048B00038001500FBF7CEFC290004003800FBF798
:1048C000AFFD002F07DB002901DA0134491B30005E
:1048D00034607160F8BD0029F9DD013C4919F6E743
:1048E000F0B50E0085B00700039200F01DFC194CD6
:1048F00033002568002D06D1380000F016FC00209A
:1049000005B0F0BD01331A78002A1FD03D2AF9D135
:10491000F2E7043528680028EED0019A310000F053
:1049200047FB0028F5D1019A2B6894466344029313
:104930001B783D2BEDD123683800ED1A039BAD1099
:104940001D6000F0F2FB02980130D9E79B1B019338
:10495000E0E7C0460800002007B501AAFFF7C0FF46
:104960000EBD0000004870477C0000207047704773
:10497000F0B58E6885B007000C00039201939E424B
:1049800039D890238A89DB001A4234D0032509697B
:1049900023685B1A0293636902985D43EB0F5D190C
:1049A000019B6D1001331B18AB4200D91D0053054C
:1049B00032D529003800FFF7AFFC061E09D10C23C1
:1049C0003B6040230120A28940421343A38105B0EC
:1049D000F0BD029A216900F0D8FBA389144A1A405D
:1049E00080231343A381029B2661F618266065612C
:1049F000019EED1AA560019BB34200D21E00320059
:104A00000399206800F0CAFBA36800209B1BA360E9
:104A100023689E192660DAE72A00380000F0D0FBF0
:104A2000061EE0D121693800FFF72CFCC7E7C0461D
:104A30007FFBFFFFF0B59FB0029005938B890F00BD
:104A400016001B0611D50B69002B0ED14021FFF774
:104A500063FC38603861002805D10C23029A0138C4
:104A600013601FB0F0BD40237B61002306AD6B6176
:104A700020336B761033AB7634002378002B47D18C
:104A8000A31B04930DD0A31B320039000298FFF73B
:104A90006FFF431C00D1B5E06A69049B94466344F0
:104AA0006B612378002B00D1ACE00122002352423D
:104AB0006A6002A95432521801342B60EB60AB607B
:104AC0001370AB65584E05222178300000F052FB80
:104AD000621C002820D12968CB0604D5532302AEDE
:104AE00020309B1918700B0704D553232B2002AEDE
:104AF0009B19187023782A2B16D000200A21099BB5
:104B00002278303A092A55D9002815D0099313E0A4
:104B1000252BB5D00134B0E70123801B83402968E1
:104B200014000B432B60CDE7059B181D1B680590F7
:104B3000002B39DB0993140023782E2B0BD16378DB
:104B4000621C2A2B3ED1059B02341A1D1B6805925C
:104B5000002B34DB0793354E21780322300000F020
:104B600009FB002806D04023801B83402A680134BB
:104B700013432B60217806222D48661C297600F00D
:104B8000F9FA002846D02B4B002B2FD12968059B22
:104B90000722C90528D59B189343083305936B69F1
:104BA000039A9B186B6167E75B42EB6002230B4340
:104BB0002B60C0E74B4301349B180120A0E7012381
:104BC0005B42C7E7002314000A201A006B602178BB
:104BD0003039092903D9002BBDD00792BBE74243E6
:104BE000013452180123F2E70733D5E705AB0093F0
:104BF0003A00114B2900029800E000BF0390039B8C
:104C00000133CCD1BB890B985B0600D429E7012086
:104C1000404226E705AB00933A00074B2900029873
:104C200000F07AF8EAE7C046CC5C0008D25C0008E5
:104C3000D65C00080000000071490008F7B51500B7
:104C400001938A680B6900900C00934200DA13000C
:104C500022002B6043321278002A01D001332B60EE
:104C600023689B0602D52B6802332B600627236836
:104C70001F4027D0230043331B785A1E93412268DC
:104C8000920630D42200019943320098089EB04722
:104C9000431C25D0062320682A68E16803400025CC
:104CA000042B03D18D1AEB43DB171D40A368226947
:104CB000934201DD9B1AED180027BD4220D1002050
:104CC00010E00137E3682A689B1A9F42D2DA22007B
:104CD0000123193201990098089EB047431CF0D176
:104CE00001204042FEBD3020E11843310870210010
:104CF0005A1C45310978A218433202331170C1E7BA
:104D0000220001231A3201990098089EB047431CE3
:104D1000E6D00137D1E70000F0B58BB006920A006B
:104D200043320793059004920A7E0C00109B6E2A72
:104D300000D18FE017D8632A2CD008D8002A00D1E0
:104D400099E0582A54D026004236327029E0642A6D
:104D500001D0692AF7D121681A68080623D5111DE8
:104D60001960156825E0732A00D188E008D86F2AF9
:104D700029D0702AE7D1202209680A43226003E083
:104D8000752A20D0782ADED1220078214532117090
:104D90006C4A30E00E001A684236111D1960136823
:104DA0003370012379E04906D9D5111D196000231C
:104DB000D55E002D03DA2D23049A6D421370624BE9
:104DC0000A2703932FE020681968050603D5081DFC
:104DD00018600D6805E04006F9D50D68081D1860DB
:104DE000ADB2594B082703936F2A18D00A2716E053
:104DF00045310A70544A03921A682168101D1860E0
:104E00001568080622D5CB0702D520231943216057
:104E10001027002D03D1202322689A43226023000B
:104E2000002243331A706368A360002B5CDB04220A
:104E3000216891432160002D58D1049E002B64D03D
:104E40002600039B42361B7833705EE04806DAD5B5
:104E5000ADB2D8E709681A68080605D5111D1960B2
:104E6000136862691A6006E04906F7D5111D1960DA
:104E70001368A28A1A800023049E236154E01A68F2
:104E8000111D1960166800216268300000F072F987
:104E9000002801D0801B6060636823610023049AAE
:104EA000137041E02369320006990598079DA847D1
:104EB000431C43D0236800259B070FD4099BE0685F
:104EC00098423DDA18003BE022000123193206998E
:104ED0000598079EB047431C30D00135E368099A16
:104EE0009B1A9D42F0DBE9E7002DA9D0049E280023
:104EF0003900FBF7ABF9039B013E5B5C2800337084
:104F00003900FBF71DF9051EF1D1082F09D12368DF
:104F1000DB0706D563682269934202DC3023013E39
:104F20003370049B9B1B2361079B09AA00932100FC
:104F3000069B0598FFF782FE431CB3D10120404237
:104F40000BB0F0BDEE5C0008DD5C00080EB4812300
:104F500070B59DB002AC21AD9B0040CDA381029005
:104F60000690FBF7D1F80B4B606063620023606131
:104F700009486363A364013BE38132002B002100F5
:104F80000068019500F09EF91DB070BC08BC03B02C
:104F90001847C0469D4F00081000002000207047B1
:104FA000031C0A7801311A700133002AF9D17047C5
:104FB000002330B59A420AD0013AC45CCD5CAC42C1
:104FC00004D19A4202D00133002CF6D1631B1800A1
:104FD00030BDF0B51F000E0087B00590039101921F
:104FE0000C98347800F0A2F8082200194378751C58
:104FF00013400CD12D2C0CD101332C780293B51C0D
:10500000002F0CD0102F14D1302C0AD011E02E001C
:10501000E6E702932B2CF3D12C78B51CF0E7302C6B
:105020002FD120222B789343582B54D110276C7802
:105030000235012039004042FBF782F806000120CA
:1050400039004042FBF702F90023049101210122BB
:1050500018008C46524221003039092913D80C001F
:10506000A7421EDD002B1ADB1300864206D302D1B5
:105070000499A14202DB6346784320182C7801355D
:10508000E9E70A27D5E721004139192901D8373C3A
:10509000E6E721006139192903D8573CE0E71300FE
:1050A000ECE7002B09DA22230120059A4042136025
:1050B000019B002B0BD107B0F0BD029A002A00D053
:1050C0004042019A002AF6D0039A002B00D06A1EB3
:1050D000019B1A60EFE73024002FAAD10837A8E718
:1050E00013B5054C2468246A002C00D1034C0094AD
:1050F000FFF76FFF16BDC04610000020BC00002067
:1051000037B51300064A05001068046A002C00D168
:10511000044C0A0000942900FFF75BFF3EBDC04627
:1051200010000020BC00002070477047EC30006881
:1051300070470000044B1B681B6A002B00D1034B17
:10514000EC3318687047C04610000020BC000020F7
:1051500082B0002900D101A9101E06D0002B06D074
:1051600013780B601078431E984102B070470220FC
:105170004042FAE7C9B28218904201D1002070473C
:1051800003788B42FBD00130F6E7002310B59A423A
:1051900000D110BDCC5CC4540133F8E710B588428F
:1051A00002D98B18984208D300239A4207D0CC5CCE
:1051B000C4540133F9E78B5C8354013AFBD210BD30
:1051C000F8B507000D001600002905D11100FFF702
:1051D000A3F804002000F8BD002A03D1FFF752F81D
:1051E0003400F7E700F06AFC2C008642F2D9310067
:1051F0003800FFF791F8041EECD029003200FFF7C9
:10520000C4FF29003800FFF73DF8E3E770B514004C
:105210004B1C03D101256D42280070BD93892022CB
:105220009343626BA381CEB2CDB26368002A10D0E3
:10523000A26B934207DA2368013B23601E70636808
:1052400001336360E8E7210000F0EEFB0028F2D0B4
:10525000E0E721692268002907D0914205D2511E5A
:105260000878854201D12160EAE7236423004433B2
:1052700063630323A36323004633E2631E7023604A
:105280000123DEE710B50C00496B00290ED0230086
:105290004433994201D0FEF7F5FF0020236C606390
:1052A0006360834202D0E36B236010BD2369012059
:1052B00023600023A289636020331343A38140420B
:1052C000F3E70000F0B5BD4C8625A5440393002309
:1052D0004893499305AB4A93BE236D0000900C00A0
:1052E00002A8B7495B004019C027C15002AB5B1947
:1052F0001500B4497F00D9512B78002B00D15BE118
:10530000FFF718FF08222B78C01801934378134049
:1053100041D1019A6E1C252A00D0A8E047934593FD
:105320006B782A2B02D11A3B4593AE1C35000A221A
:1053300029780B00303B092B48D9A34E03223000BB
:10534000FFF718FF002807D00123801B8340459AF0
:1053500001351343029245932B786E1C672B58D866
:10536000652B00D3DDE0472B38D8452B00D3D8E0A0
:10537000002B00D11DE1252B79D003234B9307335C
:10538000469353E0499A013301920132499262688F
:105390002360013A62606368002B0BDDFFF7CAFEF1
:1053A000082123681A78801842780A42EAD16E1CD4
:1053B0003500A1E7862202AB52009B18DB59210081
:1053C0000098019398470028E8D0F0E7479B013503
:1053D00002935343303B59184791A9E75B2B00D107
:1053E00077E00FD8582BC8D1459A019280220199B5
:1053F00092000A4345921022469203226E2B14DD3E
:10540000013212E0632B00D171E0642BB5D10A2286
:10541000F2E7702B52D022D86E2B00D16FE054D817
:10542000692BAAD10023032246934B926368002B79
:1054300000DC78E0459B01935B0600D48BE04B9B3E
:10544000022B00DD9DE003AB220045A9009800F08F
:10545000BFF8012800D1AFE00228A9D125E0752BC3
:10546000D5D0782BC0D0732B87D102233DE0636861
:10547000002B0FDD236801991A78914200D09BE040
:10548000013362682360499B013A019301336260F2
:1054900049938DE7862202AB52009B18DB5921000D
:1054A0000098029398470028E4D04898002800D03C
:1054B0007BE00138A7239B009D44F0BD459A0192F3
:1054C000202201990A4345928EE70823042246933D
:1054D000ABE7310005A800F0DFF9459B060001931A
:1054E0004023019A1343459301234B939EE7459B29
:1054F00001934023019A134345930023F5E745990F
:10550000CB0600D554E7039B499AC80704D5191D5B
:1055100003911B681A804BE7191D03911B681A60E1
:1055200046E70523E1E7862202AB52009B18DB59D0
:105530002100009801939847002800D17AE7B4E74A
:10554000499A0192013249926268013A6260002AE6
:105550000BDD01332360FFF7EDFD082123681A7886
:10556000801842780A42EBD169E7862202AB5200EA
:105570009B18DB5921000098019398470028EAD036
:1055800093E7042B06DC03AB220045A9009800F04A
:1055900083F85EE70D4B002B00D109E703AB220037
:1055A00045A9009800E000BF53E7A3895B0600D43B
:1055B00080E7012040427DE748987BE764FDFFFFDC
:1055C0000D52000885520008D25C0008000000005F
:1055D000F7B515008A6801900C00002A06D18A6987
:1055E000511E8A41012152420A43A2602268D2061A
:1055F00003D41A68111D196017680026A369002BCF
:105600001CD0012B08D12B6862691B78D35C002B5E
:1056100014D1002E30D106E0022B06D0002E2BD163
:10562000A369012B28D10120FEBDFFF783FD0822CD
:105630002B681B78C01843781342EFD110222368DF
:105640000136134203D12B681B783B7001372A685F
:105650006B6801322A60A268013B013A6B60A2606C
:10566000002A09D0002BC9DCC0235B00E3582900C5
:10567000019898470028C1D010232268134006D112
:10568000E2680132E260A269002A00D03B7023691F
:1056900000209E192661C7E7F0B50C008DB002937B
:1056A000774B0590160009AA23CB23C2754B0693AE
:1056B000A369032B01D0744B0693AE220020A3688C
:1056C0005200591E0490914205D95E3BFF3B049362
:1056D0005E23FF33A36023001C330193D0230027F4
:1056E00022681B0113432360019B0393336809A8BD
:1056F0001978BB0002221858FFF73CFD00282BD078
:10570000012F5FD16368002B06D1083322686360E4
:10571000F933FF33134323605C4B2268134023604B
:10572000A3685A1EA260002B16D0039B5D1C336831
:105730005A1C32601B78039A039513707368013BFF
:105740007360002B08DCC0235B00E3583100059830
:105750000793984700287DD10137032FC6D163688E
:10576000002B01D10A336360102100276368606950
:10577000C91A474BC91800F08FF8039DA368002B86
:1057800041D0326860691178405C00283BD03029F4
:1057900028D1802021680001014223D0049A0137DA
:1057A000002A03D0013A01330492A3607368013BDD
:1057B0007360002B1EDD336801333360A368013B47
:1057C000A360DBE7022FABD1C02180232268C90090
:1057D00011409B009942C2D1F13BFF3B6360F03323
:1057E00013439CE721682B4B0B40236013782B70ED
:1057F0000135DBE7C0235B00E358310005980393D4
:1058000098470028DAD02368DB050ED5019B9D421E
:1058100007D9BE23013D5B002978E3583200059883
:105820009847019B01209D4227D0102223681A40EF
:105830001CD12A70636801990598069EB047029BA7
:1058400022681B68910607D502991A1D0A601B6819
:10585000186008E00027D6E7D107F5D502991A1D90
:105860000A601B681880E3680133E3600020019B35
:10587000ED1A2369EF19DF1927610DB0F0BDC0469D
:10588000E45A0008095A0008E1500008FFFAFFFF37
:10589000095D0008FFF6FFFF70B50B785E2B0DD099
:1058A0004A1C00210400451CFF3521700134A5422B
:1058B000FBD1002B06D1013A100070BD8A1C4B7839
:1058C0000121EFE701244C401100C4540D784A1C1B
:1058D0002D2D07D05D2DEFD0002D01D10A00EBE773
:1058E0002B00F1E74E785D2EFAD0B342F8DC02319E
:1058F0000133C4549E42FBDCE8E70000F0B51F0012
:105900000E0087B00590039102920C983478FFF74F
:105910000DFC082200194378751C13400CD12D2C66
:105920000CD101332C780193B51C002F0CD0102F13
:1059300014D1302C0AD011E02E00E6E701932B2C75
:10594000F3D12C78B51CF0E7302C2FD120222B7806
:105950009343582B51D110276C780235019B294A6B
:1059600039009E183000FAF771FC300004913900BC
:10597000FAF7E6FB01210023494202008C46180099
:1059800021003039092913D80C00A7421CDD591C0D
:1059900009D06346824206D302D10499A14202DBB8
:1059A0000123784320182C780135E9E70A27D5E749
:1059B00021004139192901D8373CE6E72100613936
:1059C000192901D8573CE0E75A1C08D1059A23331E
:1059D0001360029B3000002B0BD107B0F0BD019A81
:1059E000002A00D04042029A002AF6D0039A002BE7
:1059F00000D06A1E029B1A60EFE73024002FADD161
:105A00000837ABE7FFFFFF7F13B5054C2468246A16
:105A1000002C00D1034C0094FFF770FF16BDC04668
:105A200010000020BC0000200B00F7B54D6B443384
:105A30000C009D421CD18026F6003100FEF76CFC64
:105A4000002802D101204042FEBD23006063A6630E
:105A500046331A78104BC254230045331A780F4B43
:105A6000C2542A780E4BC254C01820600020EBE7C5
:105A70008E6B290073001A000193FFF7A1FB051E2E
:105A8000E0D08719010032003800FFF77EFB019B50
:105A900027606563A363E9E7FF030000FE030000DE
:105AA000FD0300000B1E04D0FF2A04D98A230360E3
:105AB0008B3B180070470A700123FAE70B1F1B6825
:105AC000181F002B01DA0B58C0187047F8B5C046F4
:105AD000F8BC08BC9E467047F8B5C046F8BC08BC88
